:020000040800F2
:1000000008060020D90000085D1800084D170008F8
:1000100000000000000000000000000000000000E0
:10002000000000000000000000000000611800084F
:1000300000000000000000005F18000863180008BE
:10004000EB000008EB000008EB000008EB000008E4
:10005000EB000008EB000008EB000008EB000008D4
:10006000000000000D0200081D020008EB0000085F
:10007000EB000008EB000008EB000008EB000008B4
:10008000EB000008EB000008EB000008EB000008A4
:1000900000000000EB000008EB000008EB00000887
:1000A000EB000008EB000008EB000008A91F0008A7
:1000B000B91F0008EB00000800000000000000006D
:1000C0000448854600F090F8004800478520000865
:1000D000C046C04608060020044880470448004740
:1000E000FEE7FEE7FEE7FEE7FEE7FEE7D7180008BB
:1000F000C100000830B50B46014600202022012433
:1001000009E00D46D5409D4205D31D469540491B4B
:100110002546954040191546521E002DF1DC30BD94
:10012000F0B51FB40646002082B005464024019178
:1001300000901BE0019922460F46304600F042F83D
:10014000049A059B801A994110D3104619462246FD
:1001500000F028F8361A8F4101972246012000212D
:10016000009F00F01FF838184D4100902046641E93
:100170000028DFDC019B00982946324607B0F0BD1D
:10018000D2B201E00270401C491EFBD2704700222F
:10019000F6E710B513460A4604461946FFF7F0FF86
:1001A000204610BD10B5202A04DB0146203A9140BC
:1001B000002010BD914020239C1A0346E3401943C0
:1001C000904010BD10B5202A04DB0846203AD040EC
:1001D000002110BD0B46D340D0402024A21A9140EC
:1001E0000843194610BD0000064C0125064E05E0E7
:1001F000E36807CC2B430C3C98471034B442F7D348
:10020000FFF762FF90210008B021000810B50248F6
:1002100000F0D8F810BD00004C01002010B50248D5
:1002200000F0D0F810BD0000A801002010B5044671
:10023000006C09498008800040186064207814210F
:100240000838FFF757FF04498031A164C106C90E81
:1002500001208840E06410BD000802400179084B8D
:100260008906890E8A00D2180265054A4432491E61
:1002700042658A07920F0121914081657047000015
:10028000FC080240F0B5846CC56C6560046D002C00
:1002900002D0446D856D65600B4C6568066C1C274B
:1002A0003E400127B7403D43656004686360836852
:1002B000102B036803D099600068C260F0BD9A609B
:1002C0000068C160F0BD00000000024072B6FEE7A9
:1002D000F0B5002808D0014620314A79022A05D01D
:1002E0000422C263002008710120F0BD0268136877
:1002F0000E24A3431360426C1468FF2301339C4314
:100300001460026814686408640014600C4A55683C
:10031000066C1C24264001242746B7403D43556007
:10032000826CC56C5560026D002A05D015689D432E
:100330001560826D406D42604C7100200871F0BD07
:1003400000000240F8B5002402462032517902290B
:1003500003D00421C16301242DE001680B680E2540
:10036000AB430B6001680B685B085B000B60416C82
:100370000B68FF250135AB430B6010494D68066CD7
:100380001C231E4001231F46B7403D434D60816C36
:10039000C56C4D60016D002906D00E681D02AE438C
:1003A0000E60416D856D4D60537100211171816B3F
:1003B000002900D088472046F8BD00000000024018
:1003C000C06B7047F0B42C490C6802681368056C68
:1003D0001C273D400426AE40264211D05E070FD5B3
:1003E00013689B0603D4146804239C4314604B6871
:1003F000046C04223C40A24013434B60016B1CE0A0
:100400000227AF40064627402036002F19D09F070D
:1004100017D513689B0605D413680A24A3431360F9
:10042000012272714B68046C1C2214400222A2400B
:1004300013434B6000213171C16A00291AD0F0BC0E
:1004400008470827AF40274214D01B0712D513686E
:100450000E24A34313604B68046C1C221440012239
:100460001546A5402B434B60C26372710021317168
:10047000416BE2E7F0BC70470000024070B5040039
:100480003FD02548256814212818FFF733FE800047
:100490002064022026462036707128681F490840D3
:1004A0002860E168A0686269084321691143084334
:1004B000A1690843E1690843216A084321680A6881
:1004C000104308602046FFF7B1FE0121A0688903B0
:1004D0000025884200D165602079616C8006800E1D
:1004E0000860A06CE16C41606068401E03280AD877
:1004F0002046FFF7B3FE206D0560606DA16D416081
:1005000004E0012070BD25656565A565E5630120F2
:1005100070713571002070BDF8FFFDBF0F80FFFFC7
:10052000F8B504468C4620300179002501290BD00E
:100530000126067141790027012907D08021E16356
:10054000077101252846F8BD0220F8BD022141713E
:10055000E763206801684908490001606146204658
:10056000FFF790FE206B00282068016801D00E2262
:1005700005E0042291430160206801680A221143CA
:100580000160606C0168CA03074902D502680A432A
:100590000260206D002802D002680A4302602068D1
:1005A000016831430160CDE700010000F0B5002390
:1005B00003249AE02A4601259D402A407ED00E79E8
:1005C000B607B60F012E01D0022E16D18668274637
:1005D000B4465E00B646B7406646BE43B446CF68F2
:1005E0007646B7406646374387604668AE430D7926
:1005F000ED06ED0F9D40354345600D79ED43AD07A8
:1006000008D0C5685F002646BE40B5438E68BE4030
:100610002E43C6600D79AD07AD0F022D0ED1DD085A
:10062000AD002D18AC462D6A5E07F60E0F27B740B9
:10063000BD430F69B7402F4365462F6205685F00D1
:100640002646BE40B5430E79B607B60FBE402E43D0
:1006500006604D68AD03AD0F46D09E08264DB6002E
:100660007519AC462D6E9E07F60E0F27B740BD4399
:1006700005273F07B84201D100270FE01F4FB842BE
:1006800001D101270AE01E4FB84201D1022705E03F
:100690001C4FB84201D1032700E00527B7402F4384
:1006A000154D664637662D684E689543F60200D5AF
:1006B0001543114F3D607D68954300E014E04E689E
:1006C000B60200D515437D600B4D80356E684F68CE
:1006D0009643BF0300D516436E602E684F6896435D
:1006E000FF0300D516432E605B1C0A681546DA40EE
:1006F00000D05FE7F0BD0000001802400004005089
:1007000000080050000C005001488068704700004D
:1007100004000020024881680278891881607047CF
:100720000400002010B50848002401688215114318
:100730000160032000F00AF8002801D0012401E044
:1007400000F028F8204610BD0020024070B50F4E82
:10075000002431780546002915D07D20C000FFF720
:10076000C9FC01460A480068FFF7C4FC00F030FCF1
:10077000002808D1042D06D200222946401E00F090
:100780002BF8756000E00124204670BD04000020B5
:100790001000002008B509480168012211430160DA
:1007A00000681040009005484038C26B01040A43BD
:1007B000C263C06B0840009008BD000040100240BA
:1007C000002805DBC106C90E0120884001490860E8
:1007D0007047000000E100E010B501F021FC10BD01
:1007E00010B50F4C2168032252029143014321604E
:1007F000C11FFF39FA390ED10A4806210068484363
:100800000949FFF777FC401C02E0002805D0401E94
:1008100061694905F9D4002010BD032010BD000016
:10082000007000401000002040420F00F8B5044660
:1008300000680026664D800358D56548002740387B
:10084000C06BC00009D462484038C26B01040A433F
:10085000C263C06B0840012700905E4801688215A2
:1008600011430160FFF750FF009005E0FFF74CFFD8
:100870000099401A022825D856480068C005F5D5C9
:10088000E8690321090208400FD0616A81420CD057
:10089000E86903210902EA698843012109040A433E
:1008A000EA61EA698A43EA61E861C0070FD0FFF7AD
:1008B0002BFF009008E0FFF727FF0099411A4648F8
:1008C000814201D9032609E0E8698007F3D5E86988
:1008D000032109028843616A0843E861002F05D0BB
:1008E0003B484038C26B01048A43C2632078C0078A
:1008F00005D06869616880088000084368612078D5
:10090000C00606D56869032189028843A1680843A7
:1009100068612088800506D56869032189048843B9
:100920006169084368612088400506D5686903212C
:1009300009058843A169084368612078800606D5C7
:100940006869032109038843E168084368612088D6
:10095000400411D56869E169800080080843686136
:100960000121E0698907884206D119484038C168E9
:10097000012212041143C1602068800210D5686909
:1009800001218905226A884310436861206A8842F0
:1009900006D10F484038C168012212061143C160D8
:1009A0002088000512D568690321890388432169DD
:1009B00008436861012120698903884206D10448FF
:1009C0004038C168012212041143C1603046F8BDAD
:1009D000401002400070004088130000F8B50F4638
:1009E000060043D04D4D28684007400FB84213D24F
:1009F0002868C008C00038432860FFF785FE044619
:100A000005E0FFF781FE011B4548814261D8286857
:100A10004007400FB842F4D13068424C81070DD5F1
:100A2000400704D5A068072109030843A060A06817
:100A30000F2109028843B1680843A0603078C007DD
:100A400032D0706801280AD002280BD000280FD0BD
:100A50003449403103280ED0C969890704E0216870
:100A6000890301E021688901002906DB0120F8BD26
:100A700021684905F8E7096AEFE7A168C908C900D4
:100A80000143A160FFF740FE009006E0FFF73CFE47
:100A90000099411A224881421BD8A0683821084099
:100AA0007168C9008842F1D128684007400FB842F8
:100AB00017D91A480168C908C90039430160FFF70E
:100AC00023FE054607E0FFF71FFE411B1448814245
:100AD00001D90320F8BD114800684007400FB84213
:100AE000F1D13078400706D5A06807210903884373
:100AF000F1680843A06000F031F8A1683C22890940
:100B00001140094A515CC906C90EC840074908602E
:100B100007480068FFF71AFEF8BD000000200240F9
:100B2000881300000010024030210008100000204F
:100B3000080000200648074900688968064A4904F9
:100B4000490F8900515CC906C90EC84070470000B2
:100B500010000020001002407021000810B5204C49
:100B6000A068204A8006400F16D0A0688006410F7A
:100B7000501001290FD0A1688906490F022912D00F
:100B8000A0688006400F042823D0A0688006400F8C
:100B9000032821D0002010BD206801218004400FCF
:100BA0008140104612E0E1688B07E1689B0F49061F
:100BB000490F491C032B00D01046FFF79BFAE16850
:100BC0004904490E4843E168490F491CFFF792FA6E
:100BD00010BD0120C00310BD7D20000210BD00002B
:100BE000001002400024F400F8B504007ED0207804
:100BF0003827C007ED4D002846D0A868E96838407E
:100C00008907890F102802D008280BD001E003299A
:100C100008D001206268000482420AD12968014399
:100C2000296015E0286880032ED560680028DDD093
:100C30002AE0052301211B0489049A422A6802D173
:100C40000A432A60EAE782432A60286888432860CA
:100C5000606800280CD0FFF757FD064604E0FFF758
:100C600053FD801B642873D828688003F7D50BE0F8
:100C7000FFF74AFD064604E0FFF746FD801B6428A7
:100C8000F1D828688003F7D42078800769D5A86850
:100C9000E96838408A070721920FC902102802D05C
:100CA000002813D001E0022A10D0E068002846D0C6
:100CB000286888432169084328602868FF2101319A
:100CC00008432860FFF720FD06462CE02A685205FD
:100CD00002D5E268002A89D06A687F231B029A4302
:100CE00063691B021A436A60002800E08DE00ED1A0
:100CF0002868884321690843286028680121800406
:100D0000400F8140AA48FFF7F5F9AA490860AA48B0
:100D10000068FFF71BFD002877D122E0FFF7F4FC05
:100D2000801B02289FD828684005F7D568687F2176
:100D300009028843616909020843686011E0296873
:100D4000FF20013081432960FFF7DEFC064605E005
:100D500098E0FFF7D9FC801B022884D8286840055A
:100D6000F7D42078954E00072ED5A8688006400F4E
:100D700003280AD0A0690028306A16D00121084350
:100D80003062FFF7C1FC07460BE0306A80071BD5D5
:100D9000A06900289FD017E0FFF7B6FCC01B02280F
:100DA00070D8306A8007F7D50EE040084000306206
:100DB000FFF7AAFC074604E0FFF7A6FCC01B0228C9
:100DC00060D8306A8007F7D4207840076CD5A868CF
:100DD00000278006400F042818D0E86BC00008D414
:100DE000E96B012000070143E963E96B014001273A
:100DF000009173480168C90519D40168821511432F
:100E00000160FFF781FC00900DE083E0F06980074E
:100E10004AD5A06800287DD046E0FFF775FC009910
:100E2000401A02282ED866480068C005F5D5A1688A
:100E3000012910D004200529F16911D04908490081
:100E4000F161F1698143F161A068002816D0FFF7D4
:100E50005BFC00900EE0F06901210843F061F3E7CC
:100E60000143F161F7E7FFF74FFC0099411A55483C
:100E7000814267D8F0698007F5D50EE0FFF744FCA2
:100E8000009007E05EE0FFF73FFC0099411A4D48F3
:100E9000814257D8F0698007F5D4002F04D0E86B61
:100EA000012109078843E863E06900287BD0A9682D
:100EB0008906490F02294FD00126360602282868E4
:100EC00005D0B0432860FFF71FFC04463CE0B04368
:100ED0002860FFF719FC074604E0FFF715FCC01B6C
:100EE00002282FD828688001F7D4616A206AA26A94
:100EF0000843E16A120211430843216B0843616B06
:100F00000843E968304A11400843E86028683043E4
:100F1000286000E045E0E868012109070843E8602F
:100F2000FFF7F2FB044604E0FFF7EEFB001B02288C
:100F300008D828688001F7D535E0FFF7E5FB001BEE
:100F4000022801D90320F8BD28688001F5D4E8689B
:100F50001E490840E86026E00128F4D0E868226ACB
:100F60008107890F91421CD17021626A0140914230
:100F700017D17F21A26A090201401202914210D1C9
:100F80001F214904E26A014091420AD10721490622
:100F9000226B0140914204D1400F616B40078842AF
:100FA00001D00120F8BD0020F8BD00000010024073
:100FB0000024F4001000002008000020401002402F
:100FC00000700040881300008C80C111FCFFFEEE11
:100FD000094910B5401E884201D9012010BD074CB7
:100FE00060610321081F01F01BF80020A0610720A9
:100FF0002061002010BD0000FFFFFF0000E000E0C6
:1010000010B5014680310A79012A15D001220A71F2
:1010100024228A60026813681468640864001460FB
:101020000122520793430022426600680360202099
:1010300088600A71104610BD022010BD70477047CD
:1010400070B5044605468034207901281AD0012065
:1010500020712420A06028680668026852085200A7
:1010600002602868826807235B069A430A4382600D
:10107000284600F031FC286806602020A06000208F
:10108000207170BD022070BD70B5044605468034E5
:101090002079012819D0012020712420A06028681F
:1010A0000668026852085200026028688268D2000E
:1010B000D2080A438260284600F00EFC28680660C9
:1010C0002020A0600020207170BD022070BD7047FC
:1010D0007047F8B5054604468035A868EE68216873
:1010E0008A6810271206002A1BDA212819D1EFF38B
:1010F0001080012282F310888A6880239A438A60D4
:1011000080F31088E06F002808D0FFF7E1F800288E
:1011100004D0E06FFFF754F9202824D0204600F0D7
:1011200081FD2168886840061BD5222E19D1EFF376
:101130001080012282F310888A6840239A438A60D3
:1011400080F310882868002808D0FFF7C1F800282D
:1011500004D02868FFF734F9202804D0204600F096
:101160002FFD0020F8BD2F610320F8BD704700005F
:10117000F8B503680446D96918689A68B44D0E46F4
:101180002E4025468035002E75D0B24EB24F164007
:10119000074037436ED0CF0706D0C70504D50127D7
:1011A0001F622B693B432B618B0708D5D30706D001
:1011B000276802233B622B6904273B432B614B07C3
:1011C00008D5D30706D0276804233B622B69022782
:1011D0003B432B610B0709D520230340334305D044
:1011E0002668082333622E691E432E610B0509D53C
:1011F000430107D501232668DB0233622B692026D1
:1012000033432B612B69002B42D089060AD520215C
:101210000840C9050A40104304D0616F002901D07D
:1012200020468847286921688968490602D4282110
:10123000084232D0204600F0C3FC2168886840068E
:1012400027D5EFF31080012282F310888B684022AB
:1012500093438B6080F310882868002819D07F4959
:1012600081632868FFF76EF8002811D02868816B29
:101270000DE000E017E08E0615D5012720263F0778
:10128000064017403E430ED0616FB5E020468847C8
:10129000F8BD2046FFF76AFFF8BD2046FFF766FF5E
:1012A00000202861F8BDE66E012E7DD1CE067BD5EB
:1012B000C60679D510221A62236898682646400629
:1012C0004036002849DA2968086840680004000CA4
:1012D000E8D0B78B8742E5D9F083086800688006BC
:1012E00034D4EFF31080012181F3108819681701BD
:1012F000B943196080F31088EFF31080012181F366
:10130000108821688B685B085B008B6080F3108815
:10131000EFF31080012181F3108821688B6840274A
:10132000BB438B6080F310882020E8600020E066DB
:10133000EFF31080012181F3108821680B6893433B
:101340000B6080F310882868FEF7C2FF0220206738
:10135000B08BF18B401A81B235E0B08BF18B401A23
:1013600081B2F08B00289DD000299BD0EFF3108034
:10137000012686F310881E68FF272137BE431E60B2
:1013800080F31088EFF31080012383F31088236823
:101390009E68304FFF433E409E6080F310882020BF
:1013A000E8600020E06600E011E06067EFF3108085
:1013B000012383F3108823681D6895431D6080F323
:1013C0001088022020672046FFF738FEF8BDCE02C5
:1013D00008D5560206D50120000518622046FFF701
:1013E00077FEF8BD0E060BD501278026FF050640C7
:1013F0003A40164304D0A16F002900D046E7F8BD5B
:101400004A0614D5420612D52046EFF31081012278
:1014100082F310881A684024A2431A6081F310886E
:101420002021A9600021816700F08FF9F8BD0A0230
:1014300005D5420003D52046FFF749FEF8BDC90196
:10144000FCD50028FADA2046FFF7F9FDF8BD0000C8
:101450000F0800000100001020010004A11A00087C
:1014600070B5040005D025468035A868002802D054
:1014700006E0012070BD00202871204600F026F80B
:101480002420A86020680168490849000160A06A1A
:10149000002802D0204600F041FA204600F0E0FB90
:1014A0000128E7D0206841680922D20291434160B7
:1014B000206881682A2291438160206801680122A6
:1014C00011430160204600F08FFA70BDF0B591B075
:1014D000064614216846FEF75AFE282105A8FEF7A5
:1014E00056FE464B374632680120454C0225803770
:1014F00000219A4241D105900020069005A8FFF7EF
:1015000095F9002801D0FEF7E1FE3D484030026821
:10151000012189030A430260006808400F90606B54
:1015200028436063606B019528400F900025C02020
:10153000009002950395694632480495FFF736F806
:10154000324C31482060A5603220E5606060656102
:10155000A561E5618020256220612046FEF78EFFAF
:10156000002801D0FEF7B2FE3C60002211461B208D
:10157000A662FFF731F91B203BE0254B9A423AD196
:10158000E36B012252041343E363E36B13400F93B5
:10159000626B02436263626B0195D207D20F0F92B6
:1015A00004900C220D460291039105200092694699
:1015B0000007FEF7FBFF1448144C14305C34206025
:1015C000A5603420E56060606561A561E56180200B
:1015D000256220612046FEF751FF002801D0FEF76A
:1015E00075FE3C60002211461C20A662FFF7F4F84D
:1015F0001C20FFF7E5F811B0F0BD000000380140F5
:101600000010024000040050080002404C0100207D
:101610000044004070B58C231B58202B01D00220C1
:1016200070BD00290BD0002A09D00124836824034F
:10163000A34206D10369002B03D1CB0701D00120BF
:1016400070BD0023C3660B4B04689C420ED06368D8
:101650001B020BD5EFF31083012585F31088256855
:101660000126B6063543256083F3108800F0FEFBA3
:1016700070BD00000080004070477047FFB506460F
:1016800004468036B06883B00D46202802D0022080
:1016900007B0F0BD002D0CD00598002809D001201E
:1016A000A1680003814206D12069002803D1E80720
:1016B00001D00120ECE7002030612120B060FFF76D
:1016C00023F80190274640370598B8820598F8829C
:1016D0000120A1680003814202D12069002802D0C4
:1016E0000295002515E00020029012E000228021E2
:1016F000204600F011FC002818D10298002819D0CB
:101700002168007888620298401C0290F88A401E86
:10171000F882F88A019B002806980090E6D1002202
:101720004021204600F0F8FB00280AD02020B060BD
:101730000320ADE728882168C005C00D8862AD1C74
:10174000E4E72020B0600020A2E77047FEE7000039
:1017500008B50C48816B012211438163806B1040F6
:101760000022009011460920FFF736F80920FFF704
:1017700027F8002211460A20FFF72EF80A20FFF76B
:101780001FF808BD0010024008B50848416B01224F
:1017900011434163416B11400091426B02210A43A6
:1017A0004263406B0840009008BD000000100240FA
:1017B00010B51A4818490160E12149024160002131
:1017C0008160C16001618161C1610C22016242617D
:1017D00041620821816209038163FFF741FE00280D
:1017E00001D0FEF773FD00210C48FFF74DFC0028E7
:1017F00001D0FEF76BFD00210848FFF721FC00280F
:1018000001D0FEF763FD0548FFF7FAFB002801D081
:10181000FEF75CFD10BD00000038014024000020F0
:1018200010B50D480B490160E121490241600021DA
:101830008160C16001618161C16101620C2241620C
:1018400042618162FFF70CFE002801D0FEF73EFDE9
:1018500010BD000000440040B8000020FEE77047C3
:10186000704710B5FEF756FF10BD30B593B0382164
:101870006846FEF78CFC002501200E950F9510950B
:1018800040021195FEF7ACFF0224E00103900094A2
:101890004020059008200A9080030B9007940002D6
:1018A0000C900894000104950D9009956846FFF787
:1018B0009BF9002801D072B6FEE707200EA931C1BE
:1018C00002210EA81195FFF789F8002801D072B601
:1018D000FEE713B030BD7047F8B50446416E4034A2
:1018E000002915D000688168806809014D0F0A4EF3
:1018F000400F3746315C083F385CC000FEF7FAFB0A
:101900006085785D715DC000FEF7F4FB2085F8BD51
:1019100001206085FAE700002821000810B5018D3C
:10192000090707D501684A680123DB039A43836BE3
:101930001A434A60018DC90707D001684A6801232C
:101940005B049A43C36A1A434A60018D890707D52D
:1019500001684A6801231B049A43036B1A434A60D7
:10196000018D490707D501684A6801239B049A4302
:10197000436B1A434A60018DC90607D50268916816
:1019800001231B039943C36B19439160018D8906A1
:1019900007D501688A6801235B039A43036C1A43E5
:1019A0008A60018D490612D503685A68012109052C
:1019B000446C8A4322435A60426C8A4207D10268CF
:1019C000516803235B059943836C19435160018D72
:1019D000090607D501684A680123DB04C06C9A43F5
:1019E00002434A6010BD0000FEB505460026803562
:1019F00004462E61FEF788FE0190206800682027CB
:101A00000007002817DA25480090002239042046F4
:101A1000019B00F081FA00280DD0EFF31080012126
:101A200081F3108821680A6880239A430A6080F352
:101A30001088AF6028E020680068400727D5174865
:101A400000900121002289052046019B00F064FAE4
:101A500000281CD0EFF31080012181F31088216849
:101A60000A68FF2321339A430A6080F31088EFF35A
:101A70001080012181F3108821688A685208520081
:101A80008A6080F31088EF602E710320FEBDAF6086
:101A9000EF60E66626672E710020FEBDFFFFFF01A6
:101AA00010B5806A002201464031CA83CA82FFF71E
:101AB0005DFB10BDF8B5846A20468030816805461C
:101AC000C6682068806800270006002806DA2129F9
:101AD00004D156200753204600F0A4F820688068FF
:101AE000400606D5222E04D15E200753204600F082
:101AF00067F828691021084328612046FFF736FB64
:101B0000F8BD70B501460968806A09680022890637
:101B1000002938DB5E210A52EFF31081012383F3A1
:101B2000108803681C68FF250135AC431C6081F3F5
:101B30001088EFF31081012383F3108803689C68F9
:101B4000640864009C6081F31088EFF31081012326
:101B500083F3108803689C684025AC439C6081F344
:101B6000108820238C210B50C16E01290BD1EFF37B
:101B70001081012383F3108803681C681025AC438F
:101B80001C6081F310880267C16E012902D0FFF743
:101B900073FD70BD5C21095AFFF750FA70BD10B596
:101BA000806A01210167C16E012902D0FFF765FD3E
:101BB00010BD5C21095A4908FFF740FA10BD00002A
:101BC00010B5EFF31081012282F3108802681368C8
:101BD000FF242134A343136081F31088EFF31081B5
:101BE000012282F31088026893680D4C23409360B1
:101BF00081F31088C16E01290BD1EFF3108101220E
:101C000082F31088026813681024A343136081F3E1
:101C1000108820228C210A500021C166416710BD26
:101C2000FEFFFFEF10B5EFF31081012282F3108861
:101C300002681368C024A343136081F31088EFF394
:101C40001081012282F31088026893680124E40560
:101C5000A343936081F3108820218030816010BD00
:101C6000F8B50446016880682369E569184363692B
:101C700000262B431843734A0B68734D2B400343D4
:101C80000B602068416803231B039943E3681943F1
:101C900041602168A069914201D0236A18438B6892
:101CA0006A4D2B4003438B602068C16A636A09094F
:101CB00009011943C1626649236866488B420AD10B
:101CC00040698007800F09D001282CD0022828D035
:101CD000032816D113E060498B4201D1002111E0A5
:101CE00093420ED141690320800201400AD00120B5
:101CF0008002091A17D0091A13D0814201D1082194
:101D000000E010210120554D554FC00393423DD1B5
:101D100000290AD0022911D0042909D0082934D178
:101D20000BE00221EEE70421ECE7FEF703FF01E000
:101D3000FEF714FF050001D179E00546606A400016
:101D4000395A28460091FEF7D5F967687900791865
:101D5000814267D83903814264D30023284619465B
:101D6000009AFEF7DDF9020E09020302780811431A
:101D70001818002251413A460023FEF7D1F90321F9
:101D80000902384A411A91424FD94BE0E269824236
:101D900027D1002906D0022907D0042907D0082915
:101DA00040D108E0FEF7C6FE03E0284603E0FEF758
:101DB000D5FE00283BD0616A4900795AFEF79AF9AE
:101DC000616840004A088018FEF794F90146264AE7
:101DD0001039914226D8511C01400007400F08439A
:101DE00023E0002906D0022907D0042907D00829BA
:101DF00018D108E0FEF79EFE03E0284603E0FEF758
:101E0000ADFE002813D0616A4900795AFEF772F9D5
:101E100061684A088018FEF76DF90146124A1039C8
:101E2000914201D9012602E080B22168C8602046B3
:101E3000012140304185018500206067A067304660
:101E4000F8BD000000800040F369FFCFFFF4FF11F0
:101E50000038014040100240004400400024F400DB
:101E600008210008FFFC0F00EFFF000070B50446DA
:101E700081654030828300202546803528612221FB
:101E8000E9602968002919D0204BCB622B682049D2
:101E900019632B681F495963296813468863A66D27
:101EA0002168324624312868FEF73AFB002805D025
:101EB000102028612020E860012070BD20690028E2
:101EC0000CD0EFF31080012181F3108821680A689B
:101ED000FF2301331A430A6080F31088EFF3108068
:101EE000012181F31088226893680B43936080F38B
:101EF0001088EFF3108081F3108821688A684023EE
:101F00001A438A6080F31088002070BD031B00080C
:101F10009F1B0008B51A0008FFB581B005460E46A4
:101F2000044680350A9F32E0781C30D0FEF7ECFB87
:101F30000499401AB84218D8002F16D020680168BA
:101F4000490724D5802E22D0402E20D0C169C94314
:101F500009070CD4082606622046FFF731FE2E61E1
:101F600000202871012005B0F0BD0320FBE7C06907
:101F7000C04300050BD401202168C002086220463E
:101F8000FFF71EFE2020286100202871EDE7206861
:101F9000C1693046884305D0002103988142C3D0EF
:101FA0000020E0E70121F8E710B50248FFF7E0F86C
:101FB00010BD00002400002010B5154C2068C16938
:101FC000C943C90613D4102101622046FFF781F8E6
:101FD000204680300068006840680F21091A0D48CB
:101FE00001700078002802D00B4901200870206899
:101FF000C169C943090706D4082101620F220749B4
:102000000348FFF707FB0248FFF7B2F810BD0000D6
:10201000B800002000000020010000201400002073
:102020008307FF22DB0E9A408907090E994000289A
:1020300008DB830809489B001B1818689043084375
:10204000186070470007000F0838830804489B0099
:102050001B18D86990430843D861704700E400E03A
:1020600000ED00E002E008C8121F08C1002AFAD102
:1020700070477047002001E001C1121F002AFBD108
:1020800070470000FEF74EFBFFF7EFFBFFF77CFB0E
:10209000FFF75EFBFFF78CFBFFF7C2FB0F22164931
:1020A0001648FFF7B7FA1548006801681022114377
:1020B00001602027124D134C002660780128FCD1C6
:1020C000227864230E480C498038FFF7D7FA00289D
:1020D00007D0AF6022786423094807498038FFF7AA
:1020E000CDFA66700F210448FEF751F80F2202491D
:1020F0000248FFF78FFAE0E714000020B800002044
:10210000A4000020000000200100020004000600DE
:1021100008000A000C0010002000400080000001B0
:102120000101010307010000080402040801010184
:10213000000000000000000000000000000000009F
:10214000000000000000000000000000000000008F
:102150000100000002000000030000000400000075
:102160000600000007000000080000000900000051
:10217000000000000000000000000000000000005F
:102180000100000002000000030000000400000045
:10219000B0210008000000201400000064200008A6
:1021A000C421000814000020F40500007420000879
:1021B000000000000100000004000000000000001A
:0421C0000024F40003
:04000005080000C12E
:00000001FF
