:020000040800F2
:1000000070D500200D020008BB160008FB12000886
:10001000B91600086F050008BD18000800000000B0
:10002000000000000000000000000000AD17000804
:100030007105000800000000BD160008AF17000899
:1000400027020008270200082702000827020008EC
:1000500027020008270200082702000827020008DC
:1000600027020008270200082702000827020008CC
:1000700027020008270200082702000827020008BC
:1000800027020008270200082702000827020008AC
:10009000270200082702000827020008270200089C
:1000A000270200082702000827020008270200088C
:1000B000270200082702000827020008270200087C
:1000C000270200082702000827020008270200086C
:1000D000270200082702000827020008270200085C
:1000E000270200082702000827020008270200084C
:1000F000270200082702000827020008270200083C
:10010000270200082702000827020008270200082B
:100110002702000827020008151800082702000817
:10012000270200082702000827020008270200080B
:1001300000F002F800F05AF80AA090E8000C82449F
:100140008344AAF10107DA4501D100F04FF8AFF27C
:10015000090EBAE80F0013F0010F18BFFB1A43F0A5
:1001600001031847AC9D0200CC9D02000A444FF0E9
:10017000000C10F8013B13F0070408BF10F8014B06
:100180001D1108BF10F8015B641E05D010F8016B4B
:10019000641E01F8016BF9D113F0080F1EBF10F8AF
:1001A000014BAD1C0C1B09D16D1E58BF01F801CBD2
:1001B000FAD505E014F8016B01F8016B6D1EF9D555
:1001C0009142D6D37047000000230024002500266A
:1001D000103A28BF78C1FBD8520728BF30C148BFAA
:1001E0000B6070471FB51FBD10B510BD00F08AF938
:1001F0001146FFF7F7FF1FF09FFE00F0A8F903B4C8
:10020000FFF7F2FF03BC00F0ABF90000094880479C
:1002100009480047FEE7FEE7FEE7FEE7FEE7FEE7E8
:10022000FEE7FEE7FEE7FEE704480549054A064B00
:1002300070470000111800083101000870CC002040
:1002400070D5002070CE002070CE002053EA020C42
:1002500000F069802DE9F04B4FF00006002B1FBF26
:10026000B3FA83F503FA05F424FA05F65E4012BFEB
:100270001643B2FA82F502FA05F4C5F120051EBF55
:1002800022FA05FC44EA0C04203556EA044C4FEAF5
:10029000144418BF641C4FF000084FF0000990424E
:1002A00071EB030C39D3002919BFB1FA81F701FAB8
:1002B00007F6B0FA80F700FA07F6C7F120071EBF6D
:1002C00020FA07FC46EA0C062037B6FBF4FCA7EB45
:1002D0000507103F07F01F0BCBF120060CFA0BFBB4
:1002E0002CFA06F644BFB3460026202FA4BF5E4674
:1002F0004FF0000B5BEA060C08BF4FF0010B19EB47
:100300000B09ABFB027C48EB0608C01B06FB02CCCA
:100310000BFB03CC71EB0C01C1E70B4602464146D7
:100320004846BDE8F08B13B54FF000004FF00001D8
:10033000AFF30080BDE81C40704740EA010302466D
:1003400030B59B0710D14FF0013400E008C208C956
:100350001D1B9D4315EAC41FF8D013F0FF0102F8DE
:10036000011B0DD01B0AF8E711F8013B002B02F826
:10037000013B05D011F8013B002B02F8013BF3D102
:1003800030BD10B5431C02E010F8011B71B18107AC
:10039000FAD14FF0013202C88C1A8C4314EAC21110
:1003A000F9D0C01A0A0603D0C01E10BDC01A10BD75
:1003B0000A0401D0801E10BD0902FCD0401E10BDF1
:1003C00010B5203AC0F00B80B1E81850203AA0E8F0
:1003D0001850B1E81850A0E81850BFF4F5AF5FEA24
:1003E000027C24BFB1E81850A0E8185044BF18C9D7
:1003F00018C0BDE810405FEA827C24BF51F8043B7E
:1004000040F8043B08BF7047D20728BF31F8023BD1
:1004100048BF11F8012B28BF20F8023B48BF00F865
:10042000012B70474FF0000200B5134694469646E4
:10043000203922BFA0E80C50A0E80C50B1F12001F7
:10044000BFF4F7AF090728BFA0E80C5048BF0CC0A5
:100450005DF804EB890028BF40F8042B08BF704703
:1004600048BF20F8022B11F0804F18BF00F8012B75
:10047000704700004FF0013C50F8042B51F8043B4A
:100480009A4221D1A2EB0C03934313EACC1317D168
:1004900050F8042B51F8043B9A4215D1A2EB0C03FF
:1004A000934313EACC130BD150F8042B51F8043BBF
:1004B0009A4209D1A2EB0C03934313EACC13DBD08D
:1004C0004FF00000704700BFD01A01BAB1FA81F1B5
:1004D00001F0180122FA01F0CB40C1F12001DBB29A
:1004E000C0B2C01A2CFA01F3D11A914311EAC31118
:1004F000E6D170477047704770470000004870476A
:100500000CCC00207546FFF7F9FFAE4605006946A2
:10051000534620F00700854618B020B5FFF784FE4B
:10052000BDE820404FF000064FF000074FF00008F4
:100530004FF0000B21F00701AC46ACE8C009ACE875
:10054000C009ACE8C009ACE8C0098D46704710B5D9
:100550000446AFF300802046BDE81040FFF74FBED1
:1005600001491820ABBEFEE7260002007047FEE7F7
:10057000704772B6FEE7000070B5044600F010F94F
:100580000546601C02D004480078044400F008F9D5
:10059000401BA042FAD370BD000000202DE9F84FA7
:1005A000DFF8C8910024A9F1040B23460F2709F1B5
:1005B000040AABF1040ED1E00125A54006EA0502CC
:1005C000AA4276D1DFF8A8C14E68A6EB0C086645B2
:1005D0002BD00DDC032E34D005DC36B3012E19D020
:1005E000022E2FD11BE0112E16D0122E2AD119E087
:1005F000B8F5881F19D006DCB8F5803F15D0B8F5DE
:10060000801F1FD111E0B8F5001F0ED0B8F5041FF0
:1006100018D10AE0CB6815E0CB681B1D12E0CB684F
:1006200008330FE0CB680C330CE08B682BB1012B47
:100630004FF0080303D0456104E0042302E00561A4
:1006400000E00023FF2A01D8064601E000F104067D
:100650004FEA840501D9A5F12005D6F8008007FAF4
:1006600005FC28EA0C0803FA05F548EA0508C6F86F
:1006700000804D68ED0070D53E4DAE6946F0010634
:10068000AE61AD6924F0030605F0010500953A4D11
:1006900006EB050CDCF80850A607360F07FA06F83B
:1006A00025EA0805DFF8D480404503D14FF0000863
:1006B00025E052E0DFF8C880404502D14FF0010844
:1006C0001DE0DFF8C080404502D14FF0020816E07F
:1006D000DFF8B480404502D14FF003080FE0DFF8A7
:1006E000AC80404502D14FF0040808E0DFF8A0805C
:1006F000404502D14FF0050801E04FF0060808FA26
:1007000006F848EA0508CCF808804D68D9F800607A
:10071000ED024D4601D5164300E096432E604D682C
:10072000DAF80060AD02554601D5164300E0964365
:100730002E604D68DBF80060AD035D4601D51643C1
:1007400000E096432E604D68DEF80060ED037546CC
:1007500001D5164300E096432E60641C0A681646D5
:10076000E2407FF429AFBDE8F88F000008040140A3
:10077000000011100010024000000140000801407C
:10078000000C01400010014000140140001801401D
:10079000001C01400AB1016170470904FBE7000039
:1007A000014880687047000000000020024881680E
:1007B000027811448160704700000020074810B59E
:1007C000016841F010010160032000F075F80F206E
:1007D00000F006F800F024F8002010BD00200240D0
:1007E00070B50D4D04464FF47A712878B1FBF0F0E6
:1007F0000A490968B1FBF0F000F001FC48B9102C7F
:1008000007D200222146501E00F036F800206C600E
:1008100070BD012070BD0000000000200C00002011
:100820000C4808B5816941F001018161816901F0DD
:1008300001010091C16941F08051C161C06900F0BE
:10084000805000900448416821F0E06141F000715F
:10085000416008BD0010024000000140002809DB93
:1008600000F01F02012191404009800000F1E020CA
:10087000C0F8001170470000F0B40E4B1B680C4626
:10088000C3F30223C3F10705042D00D90425191D64
:10089000072901D2002300E0DB1E012606FA05F13C
:1008A000491E214099409E40761E16403143F0BCBF
:1008B00001F005B80CED00E0064900F007020868F9
:1008C0004FF6FF03184040EA0220034A1043086035
:1008D000704700000CED00E00000FA052DE9F0473C
:1008E0000F46050061D0434E306800F00700B84263
:1008F00009D2306820F0070038433060306800F0DB
:100900000700B84251D128683B4C810712D54007F7
:1009100003D5606840F4E06060602878000703D584
:10092000606840F4605060606068A96820F0F00082
:10093000084360602878C00728D06868012810D074
:100940002168022810D0890700292EDA616821F079
:10095000030101436160FFF723FF804641F28839BC
:100960000DE021688903EFE78901EDE7FFF718FF44
:10097000A0EB0801494502D90320BDE8F087606873
:10098000696800F00C00B0EB810FEFD1306800F027
:100990000700B8420BD9306820F0070038433060B8
:1009A000306800F00700B84201D00120E5E7287860
:1009B000400705D56068E96820F4E060084360609E
:1009C0002878000706D56068296920F4605040EA5D
:1009D000C100606000F018F86168084AC1F30311B3
:1009E000515CC8400649086006480068FFF7F8FEF9
:1009F0000020C2E70020024000100240BA5702085F
:100A00000C000020040000200E4A51680E4801F03E
:100A10000C03042B11D0082B0FD10C48C1F38343D6
:100A2000C903C05C0AD55168084AC1F34041921E0F
:100A3000515C054A5043B0FBF1F07047044948430C
:100A4000704700000010024000127A00AA57020806
:100A500000093D002DE9F84F040070D02078C04D0A
:100A6000C00749D06868C0F38100012807D06868D2
:100A7000C0F38100022809D16868C00306D5286840
:100A8000800339D560680028E7D035E06068B0F5AC
:100A9000803F0BD010B1B0F5A02F11D0286820F402
:100AA00080302860286820F4802002E0286840F424
:100AB00080302860606890B1FFF772FE06460AE059
:100AC000286840F480202860F0E700BFFFF768FE48
:100AD000801B642873D828688003F7D50CE0FFF7E3
:100AE0005FFE064605E000BFFFF75AFE801B642844
:100AF000F0D828688003F7D420789A4E80074FF00A
:100B000001094FF0000839D5686810F00C0F07D0C4
:100B10006868C0F38100022809D16868C00306D460
:100B20002868800714D52069012808D110E02069C1
:100B3000B0B1C6F80090FFF733FE074605E00AE1C2
:100B4000FFF72EFEC01B0228C4D828688007F7D5FF
:100B50002868616920F0F80040EAC10028600DE0D3
:100B6000C6F80080FFF71CFE074604E0FFF718FEFA
:100B7000C01B022823D828688007F7D420780007F4
:100B80002CD57948A169D9B1C0F80090FFF708FECB
:100B9000074604E0FFF704FEC01B02280FD8686A6E
:100BA0008007F7D571484FF4FA510068B0FBF1F0B7
:100BB000009000BF0098411E0091FAD20EE080E044
:100BC000C0F80080FFF7ECFD074604E0FFF7E8FD02
:100BD000C01B022875D8686A8007F7D420784007C0
:100BE00060D5E8690027C00008D4E86940F080506B
:100BF000E861E869012700F0805000905C480168D6
:100C0000C90513D40168834641F480710160FFF780
:100C1000C7FD824606E000BFFFF7C2FDA0EB0A0059
:100C200064284ED8DBF80000C005F5D5E06801283F
:100C30000AD008B1052813D0286A20F001002862E4
:100C4000286A20F0040002E0286A40F001002862CF
:100C5000E06841F2883B98B1FFF7A2FD82460BE0C5
:100C6000286A40F004002862EEE700BFFFF798FD15
:100C7000A0EB0A0159455AD8286A8007F6D50CE03E
:100C8000FFF78EFD824605E0FFF78AFDA0EB0A0123
:100C900059454CD8286A8007F6D41FB1E86920F07E
:100CA0008050E861E06988B36968C1F38101022975
:100CB00044D00228C6F8608004D0FFF771FD0446D6
:100CC00038E034E0FFF76CFD074604E0FFF768FD0D
:100CD000C01B02282BD828688001F7D4206AB0F501
:100CE000803F05D16868A16820F40030084368603F
:100CF000D4E908010843696821F474110843686065
:100D0000C6F86090FFF74CFD044606E025E000BF02
:100D1000FFF746FD001B022809D828688001F7D597
:100D20001BE000BFFFF73CFD001B022802D9032097
:100D3000BDE8F88F28688001F4D40EE00128F7D0D0
:100D40006868226A00F48031914204D1616A00F43B
:100D50007010884201D00120EAE70020E8E7000097
:100D60000010024000004242800442420C00002079
:100D70000070004070B5040009D0606A002540B1E1
:100D800025616561A56294F8510040B10CE0012035
:100D900070BD6068B0F5827FF4D0E561F2E784F859
:100DA0005050204600F040F8022084F8510020689E
:100DB000016821F040010160A088218900F482705F
:100DC00001F404410843A18901F400610843217C36
:100DD00001F002010843217D01F001010843218B4C
:100DE00001F400710843217F01F03801084394F8B1
:100DF000201001F080010843218D01F400510843C7
:100E000021680860A069042101EA10402168486057
:100E10002068C16921F40061C1616565012084F821
:100E20005100002070BD000030B585B00024009452
:100E300001940294039400681449884223D1144811
:100E4000816941F480518161816901F4805104918B
:100E5000816941F00401816180690E4D00F0040058
:100E60000490A02000900220019003200390694686
:100E70002846FFF793FB4020CDE900046946284649
:100E80000294FFF78BFB05B030BD0000003001403D
:100E900000100240000801402DE9F84F9846164620
:100EA0008A460446FFF77CFC814694F851000128ED
:100EB0001ED1BAF1000F73D0002E71D094F85000FB
:100EC000012815D0012784F85070032084F85100C0
:100ED00000256565C4F830A0A686E686A563A587CB
:100EE000E58765642564A068B0F5004F03D00CE089
:100EF0000220BDE8F88F2068016821F04001016000
:100F00002068016841F48041016020680168490659
:100F100003D4016841F040010160E068B0F5006F62
:100F2000606803D048B3012E27D047E008B1012EF6
:100F30001FD1206B21680088C86006E020688168A6
:100F4000890709D5216B0988C160206B801C20634B
:100F5000E08E401EE0860CE0FFF722FCA0EB0901CA
:100F6000414503D3B8F1FF3F03D035E0B8F1000F9E
:100F700032D0E08E0028E1D123E0206B2168007898
:100F8000087306E02068816889070AD5216B097813
:100F90000173206B401C2063E08E401EE0860DE054
:100FA0002BE0FFF7FDFBA0EB0901414503D3B8F1AE
:100FB000FF3F03D010E0B8F1000F0DD0E08E002805
:100FC000E0D14A464146204600F079FB08B1202096
:100FD0006065A06830B109E084F8517084F8505021
:100FE000032086E72068C1688068009084F851700B
:100FF00004F8505F60680028F3D0012079E710B54D
:10100000401EB0F1807F01D3012010BD4FF0E024DD
:1010100060610F21601700F052FC0020A0610720E2
:101020002061002010BD70477047000070B590F837
:101030003C20012A2CD0012480F83C40022280F878
:101040003D2003685A689D6822F070060A683243A2
:101050005A60104B02689A420ED00F4B9A420BD046
:10106000B2F1804F08D00D4B9A4205D00C4B9A42FA
:1010700002D00C4B9A4204D1496825F080031943F1
:10108000916080F83D40002180F83C10084670BD1A
:10109000022070BD002C01400034014000040040DB
:1010A00000080040000C004010B5040003D094F884
:1010B0003D0010B107E0012010BD002084F83C0085
:1010C000204600F01FF8022084F83D00211D206812
:1010D00000F0A6FB012084F8460084F83E0084F866
:1010E0003F0084F8400084F8410084F8420084F80E
:1010F000430084F8440084F8450084F83D00002053
:1011000010BD000008B500680B49884212D10B4899
:10111000C16941F01001C161C069002200F01000F6
:10112000009011463620FFF7A7FBBDE808403620A7
:10113000FFF794BB08BD0000001000400010024003
:1011400090F83D10012901D001207047022180F85C
:101150003D100168CA6842F00102CA6000680E4989
:1011600088420ED00D4988420BD0B0F1804F08D094
:101170000B49884205D00B49884202D00A4988426F
:1011800004D1816801F00701062903D0016841F00C
:101190000101016000207047002C01400034014033
:1011A0000004004000080040000C004070472DE99A
:1011B000F04104460068C66805694FF00007A907BA
:1011C00013D5B10711D5F91E0161012020772068E0
:1011D00080698007204602D0FFF7E8FF04E000F0B6
:1011E0007EF8204600F07CF82777680716D5700750
:1011F00014D521686FF00400086102202077206870
:10120000806910F4407F204602D0FFF7CFFF04E052
:1012100000F065F8204600F063F82777280715D519
:10122000300713D521686FF008000861042020778B
:101230002068C0698007204602D0FFF7B7FF04E0AE
:1012400000F04DF8204600F04BF82777E80616D559
:10125000F00614D521686FF010000861082020778F
:101260002068C06910F4407F204602D0FFF79EFF3F
:1012700004E000F034F8204600F032F82777E80761
:1012800008D0F00706D021686FF001000861204601
:1012900000F028F8280608D5300606D521686FF03A
:1012A000800008612046FFF7BEFE680608D570067C
:1012B00006D521686FF040000861204600F01CF858
:1012C000A8060AD5B00608D521686FF0200008618D
:1012D0002046BDE8F041FFF7A7BEBDE8F0817047AA
:1012E000704700000349884202D101201EF022B855
:1012F00070470000900200207047FEE72DE9F041A2
:1013000004461D4616460F462A2000F0FDF82046EA
:1013100000F0DEF8304600F0DBF82B2000F0F4F8A7
:10132000384600F0D5F8284600F0D2F8BDE8F04184
:101330002C2000F0E9B8000010B5644C0022012117
:101340002046FFF727FA6420FFF716F9012211461D
:101350002046FFF71FFA6420FFF70EF9012204214F
:101360002046FFF717FA6420FFF706F9112000F076
:10137000CBF87820FFF700F9F02000F0C5F8C32083
:1013800000F0D6F8F02000F0BFF8962000F0D0F87A
:10139000362000F0B9F8282000F0CAF83A2000F012
:1013A000B3F8052000F0C4F8E82000F0ADF84020C4
:1013B00000F0BEF8822000F0BBF8072000F0B8F87B
:1013C000182000F0B5F8272000F0B2F80A2000F04D
:1013D000AFF8B62000F0ACF8332000F0A9F8C52033
:1013E00000F092F8272000F0A3F8C22000F08CF85B
:1013F000A72000F09DF8E02000F086F8F02000F033
:1014000097F8012000F094F8062000F091F80F20E2
:1014100000F08EF8122000F08BF81D2000F088F804
:10142000362000F085F8542000F082F8442000F0C7
:101430007FF80C2000F07CF8182000F079F81620D6
:1014400000F076F8132000F073F8152000F070F823
:10145000E12000F059F8F02000F06AF8012000F0D7
:1014600067F8052000F064F80A2000F061F80B200E
:1014700000F05EF8072000F05BF8322000F058F82A
:10148000442000F055F8442000F052F80C2000F001
:101490004FF8182000F04CF8172000F049F81320FE
:1014A00000F046F8162000F043F8F02000F02CF889
:1014B0003C2000F03DF8F02000F026F8692000F014
:1014C00037F8BDE81040292000F01EB800080140A0
:1014D00038B5010A8DF80010094C8DF80100002282
:1014E00008212046FFF756F9642302226946054881
:1014F000FFF7D2FC012208212046FFF74BF938BD47
:10150000000801403802002070B5084C0546002252
:1015100002212046FFF73EF9284600F009F8204650
:10152000BDE8704001220221FFF734B900080140F4
:1015300031B5094C002208212046FFF72BF964231E
:10154000012269460548FFF7A7FC01220821204631
:10155000FFF720F938BD00000008014038020020E4
:1015600070B5141A5E1A641C761C7443049DFFF750
:10157000C5FE0B4E002208213046FFF70BF94FF64F
:10158000FF7000EA4402642329460648FFF784FC02
:101590003046BDE8704001220821FFF7FBB800008B
:1015A0000008014038020020F0B585B000251B4836
:1015B0000095019502950395816941F004018161CF
:1015C000816901F004010491816941F008018161A0
:1015D0008069134F00F00800049001221F21384653
:1015E000FFF7D8F8012401AA0226009482E87000CF
:1015F00069463846FEF7D2FF1E20CDE90004CDE94A
:10160000024669463846FEF7C9FFCDE900456946FE
:1016100004480295FEF7C2FF05B0F0BD001002407D
:1016200000080140000C0140104810B50E4901604F
:101630004FF48271416000218160C1604FF40072FB
:101640000161C0E905120822C0E9072141628162F7
:101650000A21C162FFF78EFB002803D0BDE81040CD
:10166000FEF787BF10BD00000030014038020020A7
:101670001CB500240F4800940D49019401604721D6
:10168000C0E9011440F2E731C16080218161FFF7B8
:101690000BFD08B1FEF76DFF009469460548019403
:1016A000FFF7C4FC002801D0FEF763FF1CBD00005B
:1016B0000010004090020020FEE7FEE77047F8B5FA
:1016C00015460E460B46009204460122022100F008
:1016D00011F840B93346002280212046009500F0E1
:1016E00009F8002804D0606D40F0200060650320F8
:1016F000F8BD00002DE9F8431E4691468846044691
:10170000089DFFF74DF8401B351AFFF749F80746CB
:1017100025480068C0F3CB30684338E0701C37D0F0
:10172000FFF73EF8C01BA84203D215B1009860B382
:101730002CE02068416821F0E00141606068B0F56C
:10174000827F0BD1A068B0F5004F02D0B0F5806F5A
:1017500004D12068016821F040010160A06AB0F561
:10176000005F09D12068016821F400510160206800
:10177000016841F400510160012084F8510000200B
:1017800084F850000320BDE8F8830025401E009037
:101790002068816838EA010004D000214945BDD1A4
:1017A0000020F0E70121F9E70C0000207047FEF768
:1017B000FDBF30B58FB028216846FEF733FE1421F7
:1017C0000AA8FEF72FFE01210804CDE9001000242D
:1017D000029402250491CDE907504FF4E0100990DE
:1017E0006846FFF737F908B172B6FEE70F20CDE97A
:1017F0000A054FF48060CDE90C4002210AA80E943E
:10180000FFF76CF8002801D072B6FEE70FB030BDCC
:10181000704700000148FFF7CABC0000900200209A
:10182000F0B50268204C214D214E224F224B4FF043
:10183000804CA04209D0984207D0604505D0A8420C
:1018400003D0B04201D0B84204D122F0700E4A68F1
:1018500042EA0E02A04209D0984207D0604505D066
:10186000A84203D0B04201D0B84203D122F440755F
:10187000CA682A434D6922F080022A4302608A68BE
:10188000C2620A688262A04201D0984201D109690D
:101890000163012141610169C90703D0016921F098
:1018A00001010161F0BD0000002C01400004004076
:1018B00000080040000C004000340140FEE709072A
:1018C000090E002804DB00F1E02080F800147047C6
:1018D00000F00F0000F1E02080F8141D704770B593
:1018E000044600256FF02F0608E02068411C2160A7
:1018F000007805EB850106EB41014518206800786A
:1019000000F004F80028F0D1284670BD30380928CE
:1019100001D80120704700207047000010B5442115
:10192000074800F093FC00221E2106481DF07CFDB4
:10193000054CA06001F05AFD0020207010BD000091
:10194000402A0020A13400087C0100202DE9F04746
:101950000E46814617461146304600F011F9002820
:101960007ED000223946304600F0B6F800284FF00D
:10197000000076D1B6F904C0B6F90030F288ACEBBD
:1019800003010FFA81FAB6F90210B7F80280521A71
:10199000A8EB01080FFA88F812B2B8F1000F0EDDBB
:1019A00063F30F046CF30F0501EB080061F31F44B0
:1019B00060F31F45C9F800400120C9F80450B7F989
:1019C00006107388CB1AD21A12B2002A13DDB6F9A8
:1019D000063099420FDA338863F30F04B38861F35A
:1019E0001F4463F30F05114461F31F4509EBC00168
:1019F000401C0C604D60B7F90220B6F902108A4213
:101A000000DD1146B7F90630B6F90620934200DA38
:101A10001A463B88B6F900C0521AA3EB0C031BB25E
:101A200012B2002B10DD002A0EDD634463F30F05B4
:101A30008B1863F31F456CF30F0409EBC00361F3CC
:101A40001F441C605D60401CB7F904703388FE1AA7
:101A5000AAEB06031BB2002B11DD67F30F0401E0B4
:101A60000FE00CE061F31F443B4463F30F051144A6
:101A700061F31F4509EBC001401C0C604D60BDE8DF
:101A8000F0874FF0FF30FAE770B5B1F90030B2F9E6
:101A90000040A34200DC23460380B1F90250B2F9B2
:101AA0000240A54200DD2C464480B1F90460B2F941
:101AB0000450AE4200DA35468580B1F90610B2F91D
:101AC0000620914200DB1146C1800120AB4201DCBF
:101AD0008C4200DD002070BDF8B50D460446B0F91B
:101AE0000000B1F900101646884247DBB4F9021035
:101AF000B5F90220914241DBB4F90410B5F9042094
:101B000091423BDCB4F90610B5F90620914235DC70
:101B100096B3ADF800006088ADF802003246694621
:101B2000284600F099F8002827D0A088ADF80000DA
:101B30006088ADF8020032466946284600F08CF80D
:101B400000281AD02088ADF80000E088ADF8020027
:101B500032466946284600F07FF800280DD0A0885C
:101B6000ADF80000E088ADF802003246694628462C
:101B700000F072F8002800D00120F8BD0020F8BD68
:101B8000B0F90020B1F904309A4213DCB0F9042016
:101B9000B1F900309A420DDBB0F90220B1F90630FC
:101BA0009A4207DCB0F90600B1F90210884201DB65
:101BB0000120704700207047F8B50D460446B0F983
:101BC0000400B1F900101646884243DBB4F9060060
:101BD000B5F9021088423DDBB4F90000B5F90410F4
:101BE000884237DCB4F90210B5F90620914231DCA5
:101BF00076B3ADF800006088ADF802003246694661
:101C0000284600F029F818BBA088ADF800006088CD
:101C1000ADF8020032466946284600F01DF8B8B912
:101C20002088ADF80000E088ADF802003246694631
:101C3000284600F011F858B9A088ADF80000E088F7
:101C4000ADF8020032466946284600F005F808B1B2
:101C50000020F8BD0120F8BD2DE9FC4114460E46D8
:101C6000B1F90020B0F9001005468A423ADBB5F917
:101C70000400824236DCB6F90270B5F902209742C0
:101C800030DBB5F906309F422CDC002C75DD401AA4
:101C90009A1A401C521C00B212B200EBD07002EB38
:101CA000D27240105210904200DB1046844200DD98
:101CB0000446ADF80010288800222044ADF8040046
:101CC0006888ADF80200688831462044ADF8060007
:101CD0006846FFF7C1FF40B1BDF804002044ADF8ED
:101CE00004003FE00020BDE8FC81E8880022001BE2
:101CF000ADF80200E888ADF8060031466846FFF707
:101D0000ABFF28B1BDF804002044ADF8040011E099
:101D1000A8880022001BADF80000A888ADF80400D8
:101D200031466846FFF798FF50B1BDF80000001B30
:101D3000ADF80000BDF80200001BADF8020016E08F
:101D40006888ADF80200688800222044ADF80600DB
:101D500031466846FFF780FF70B1BDF80000001BF8
:101D6000ADF80000BDF806002044ADF8060031468D
:101D700068461AF039FDB6E7FFE70120B3E710B572
:101D8000B1F90040B2F900309C4200DA23460380EA
:101D9000B1F90240B2F902309C4200DA2346438096
:101DA000B1F90440B2F904309C4200DD234683803F
:101DB000B1F90610B2F90620914200DC1146C1804B
:101DC00010BD0000F8B507461DF0AAFA0025374CF3
:101DD0000646009537B1F868606038461DF0F2FBA2
:101DE000606802E00FF036FD606000691AF0F0FBF9
:101DF0006068406908B11AF0EBFB6068C0691AF0CE
:101E0000E7FB6068006A1AF0E3FB6068016991B162
:101E10001AF082FD20F022F91FF04CFE6068B0F845
:101E20005011D9B30068017CC9071DD0C068406853
:101E3000D0B1002713E0A0F85051F8BDC11991F8B6
:101E4000301151B900F5AC7000F057FA616801EB40
:101E5000C7010A6B0260496B41607F1CBFB26068BA
:101E6000B0F85011B942E9D860684FF48071303051
:101E700015F0DAFE6068202100F5987015F0D4FEA8
:101E80006068A0F8505130461DF044FA0090606838
:101E90000068436A13B122680099984715F0E4FC82
:101EA00000F032F8BDE8F84000F002B83C00002035
:101EB00070B50A4D002400BFC4EBC40655F82600D7
:101EC00008B115F045FD05EB86001C2115F0ACFEB0
:101ED000641CE4B2042CEFD370BD00001C2B002066
:101EE000084949680AE04A68824202D00A68824288
:101EF00003D10A7E42F001020A7649690029F2D133
:101F000070470000100000207047000004210148C5
:101F100000F09CB9342A00202021014800F096B935
:101F20004C2A00202DE9FF410446DDE90A671D0027
:101F30004FF0000002D1B6F5807F2BD003900190C6
:101F40000290ADF80C100090ADF80410ADF80A2026
:101F5000ADF80E203B463246294668461AF0A4FBEF
:101F60003B463246294601A81AF09EFB3B463246C4
:101F7000294602A81AF098FB3B463246294603A898
:101F80001AF092FBBDF90000BDF90430984209DA5D
:101F9000054608E02080491E6080A180521EE28034
:101FA000BDE8FF811D46BDF90820BDF90C108A422D
:101FB00001DA164600E00E46B54203DA984206DB27
:101FC000184604E08A4201DA104600E00846801E06
:101FD0002080BDF90030BDF90420934201DD1D468B
:101FE00000E01546BDF90800BDF90C10884201DD7E
:101FF000064600E00E46B54205DD934201DD194676
:1020000004E0114602E0884200DD0146891CA180FF
:10201000BDF90230BDF90620934201DA1D4600E009
:102020001546BDF90A00BDF90E10884201DA0646D0
:1020300000E00E46B54205DA934201DA194604E0A3
:10204000114602E0884200DA0146891E6180BDF92E
:102050000230BDF90620934201DD1D4600E0154621
:10206000BDF90A00BDF90E10884201DD064600E008
:102070000E46B54205DD934201DD194604E01146E6
:1020800002E0884200DD0146891CE18088E700000B
:102090002DE9F04115460E460746114C1DF040F95A
:1020A00080462B4632463946204613F043FD20B188
:1020B0000020A062E06950B110E02C21204615F00C
:1020C000B3FD4FF00040A0620020BDE8F081404623
:1020D0001DF020F9E06108B90120E0612046F4E735
:1020E000702A002010B51421074800F0AFF813F053
:1020F000E7FC40B10549016005494160054981603F
:102100000549C16010BDFEE7582A00209954010816
:1021100015580108E1590108655401087FB50E46BC
:10212000040003D10FF096FB04002CD00FF006FC46
:10213000002828D094F82800400724D4002506B3AE
:10214000ADF80050ADF8025020460FF09BFB401E4A
:10215000ADF8040020460FF0DBFB401EADF8060092
:102160006A46314602A8FFF78FFC00280BD0206892
:10217000017C890708D5DDE90001C4E90C010120D3
:1021800029E0A4F850517FBD82690AB102A99047A5
:1021900000260AE004EBC601002202A83031FFF756
:1021A0009BFC0028EFD1761CB6B2B4F85001B042C7
:1021B000F0D880B2202804D204EBC00002A930304D
:1021C00004E0A4F8505104F1300069460CF0E3FF3C
:1021D000B4F85001401CA4F8500160680028D2D027
:1021E0001DF0FCF97FBD70B5054600F012F80446FD
:1021F0000CE02146284600F01EF8064621462846F7
:1022000000F0A2F8204615F0A3FB3446002CF0D1D4
:1022100070BD002800D04068704700B5034600221A
:10222000FFF7F7FF03E01846521C00F004F8010026
:10223000F9D1104600BD0068091D4058704700687C
:1022400040587047002800D08068704700224260E4
:10225000C91C21F0030182600160704770B504461B
:102260000068083015F0E8FA050013D00146002296
:1022700020461EF0ADFA2946204662681EF0A2FAFA
:10228000616819B12A4620461EF0A2FA6560A0686E
:1022900000B9A560284670BD2DE9F0410C46060046
:1022A0000AD04CB1FFF7B5FFA04208D13046FFF786
:1022B000D5FF051E01D01EE00020BDE8F08130688A
:1022C000083015F0B9FA051EF7D030682A460759CC
:1022D000304639461EF076FA3A46294630461EF018
:1022E00077FA2A46214630461EF072FA22462946DF
:1022F00030461EF067FA2846DFE770B504460068EE
:10230000083015F099FA050013D001460022204646
:102310001EF058FA29462046A2681EF059FAA16814
:1023200019B12A4620461EF04DFAA560606800B932
:102330006560284670BD28B1416809B9806808B158
:10234000002070470120704770B504000DD0FFF7E2
:1023500060FF00228842204608D1FFF76CFF6060D2
:10236000011E01D000221EE0A26070BDFFF76AFFCF
:102370008842206808440AD10168A16029B120463A
:10238000BDE8704000221EF01DBA626070BD056895
:102390002046FFF750FF06460246294620461EF01B
:1023A00011FA2A4631462046BDE870401EF010BAA8
:1023B00010B50446006882680AB12146904720683B
:1023C0000068002801D02060F5E710BD8068002873
:1023D00001D0B0F9160070478068002801D0807ED7
:1023E0008009704770B5164605460C4651EA06004E
:1023F0001AD0284616F0E8FAA86801233246018A66
:1024000021440182A868418A3144418221462846FC
:1024100018F080FE00220B21284612F0E9FA01286C
:1024200003D1284618F0CFFD012070BD77B581B0EB
:102430000E46050017D0622218F0FCF8040012D0F6
:10244000206880B128463146632218F0F3F810F076
:10245000FF0208D023682046039998470090BDF8F2
:102460000000ADF80C00039804B070BD2DE9F047F2
:10247000074692B0408C1A9E40F00800788490463F
:102480003A8499468A463289384618F0D3F8054688
:10249000A7F8209032895146384618F0CBF8044608
:1024A000788CA54220F00800788403D12904B1EB90
:1024B000044F68D0A7F8208032895146384618F07A
:1024C000B9F805468046A7F82090514638460AF0EC
:1024D000D7FF318900682A461BF006FC30890B289B
:1024E00023D147F6FF794D4501D04C451DD13846E3
:1024F00018F06AFA00EBD0704510384617F041F931
:1025000000EBD0704010C84506D1691C431C9942AD
:1025100000DA00E0194688464C4506D1691C421C89
:10252000914201DA6C1C00E014461948FFF796FE50
:1025300005002BD02F60C5E903843089A880684648
:10254000C5F808A00CF090F81248FF21CDE9005022
:10255000114802901148039000200890CDE909012C
:1025600030880B9070889DF8421040420C90F068C3
:102570000790002060F300018DF84210306906904A
:1025800068460CF0E5F812B0BDE8F087FEE7000001
:10259000642A0020ED4F0208D5510208315102088B
:1025A00014210148FFF752BE642A00202DE9F84F9C
:1025B00000259046894606462C460427E6E000BFE3
:1025C000F06807EBC401405881017CD480B230EA46
:1025D000090112D05FF0000230EA08000FD000209D
:1025E000824270D0F0686A46102150F8340082466A
:1025F0001BF0DCF8002871D103E00122ECE7012098
:10260000EEE76A46112150461BF0D0F8002865D14C
:102610006A46122150461BF0C9F800285ED16A466E
:10262000132150461BF0C2F8002857D16A461521E5
:1026300050461BF0BBF8002850D16A461421504682
:102640001BF0B4F8F0BB6A460A2150461BF0AEF806
:10265000C0BB6A466B2150461BF0A8F890BB6A4687
:102660006C2150461BF0A2F860BB6A46012150461F
:102670001BF09CF830BB6A46042150461BF096F8CC
:1026800000BB6A46022150461BF090F8D0B96A465A
:10269000032150461BF08AF8A0B96A46052150462E
:1026A0001BF084F870B96A46062150461BF07EF88C
:1026B00040B96A46322150461BF078F810B96A4694
:1026C0006E2101E00AE060E050461BF06FF828B987
:1026D0006A466D2150461BF069F810B10320BDE831
:1026E000F88F6A46692150461BF060F8F0BB6A46D5
:1026F0006A2150461BF05AF8C0BB6A466E2150460C
:102700001BF054F890BB6A466D2150461BF04EF802
:1027100060BB6A46372150461BF048F830BB6A461A
:10272000382150461BF042F800BB6A46352150461E
:102730001BF03CF8D0B96A46402150461BF036F8F1
:10274000A0B96A46452150461BF030F870B96A4678
:10275000412150461BF02AF840B96A4642215046B2
:102760001BF024F810B96A46432100E009E0504606
:102770001BF01CF828B96A46492150461BF016F890
:1027800008B1022501E005B90125641C708CC0F375
:102790000510A0423FF614AF2846A0E70148406864
:1027A000704700003C0000207047C0F30410072869
:1027B00000D9072070470000A0F57F41FF3905D000
:1027C000002804D0712803D208490AE01F2070476E
:1027D0000749713880B2096829B1064A52689042A7
:1027E00001D2085C7047002070470000689702081B
:1027F000A8010020BC01002010B518210348FFF7F4
:1028000025FD03490120087010BD0000102A00209A
:10281000C40100202DE9F04190460C46050015D07A
:10282000FDF7AFFD0A4F06462146BA682846904795
:102830000446BA682819414690470146701A03E0D9
:102840006218AA5C2A55641CA042F9D2BDE8F08146
:10285000D80100202DE9F041094D90460E466A68E6
:102860001C46074619469047306020B120686A68C8
:10287000384400219047C8F80000BDE8F08100000E
:10288000D80100202DE9F04F87B08A46DDE91058C5
:102890001F4693460446002105B129805CB120788B
:1028A000002809D0BAF1000F05D0002618F0060F55
:1028B00015D0002004E0002007B0BDE8F08F401CD8
:1028C000215C0A2904D00D2902D00029F7D100E0AB
:1028D000401C002DF0D04FF0FF312980ECE75FEA7B
:1028E000887001D541F6FF77894608468DF81410A7
:1028F000049127E00498CDF8189068B34FF0000CCD
:1029000005AA06ABCDF80CC0CDF80080CDE90132A8
:1029100020443B465A4651461DF042F806997A1A21
:10292000314417B20EB288B1049901440491207861
:102930000A280BD00D2809D0605C0A280FD00D287A
:102940000DD00846205C08B1002FD3DC049848B1B4
:1029500005B12E800498AFE74FF0010CD0E7481C7A
:102960000490F3E7064A04A9204652689047002DD8
:10297000F0D001460022504612F04EF906B2E8E7C8
:10298000D80100202DE9F0411746884606001ED0E8
:10299000002F1CD0FDF7F5FC04463846FDF7F1FC8E
:1029A000050014D00B4A2C444146926830469047AB
:1029B000411903E0621BB25C3255641EA142F9D991
:1029C00030442A463946BDE8F04115F0EFB8BDE87D
:1029D000F0810000D801002000230278232902D0D2
:1029E000012A0DD00FE02AB10021012A04D0022AC9
:1029F00004D008E0012101E0017004E0017001E071
:102A0000202902D00123184670470221F6E72DE95C
:102A1000F0410E46804602460021334608461DF02E
:102A2000FDF904460027401C14F006FF050008D0FD
:102A30002F5533464246611C1DF0F0F92846BDE88B
:102A4000F081FEE72DE9F0471E4614460D4682460A
:102A5000DDF8209015E000BF4FEA540808FB065748
:102A6000394650464A469047002808DD44F30000A6
:102A7000C0EB540407EB0605A4F1010401E005DAFC
:102A80004446002CE8D12046BDE8F0873846FBE7F5
:102A90002DE9FC5F9B460CAB8A468146DDE911605F
:102AA00093E81210DDE90F575FEA80784FF03003AA
:102AB0001AD45EB15FEAC07808D000F00C0858EA7A
:102AC0000C0803D0761E01E00B55641CBC4204D2F6
:102AD000202CF9D301E00B55641C5FEAC07803D0C9
:102AE000B44201D2202CF6D35FEAC06825D55FEA54
:102AF00040580AD44CB1BC4201D0B44205D1641E46
:102B000003D0102D03D1641E04E0102D02D0022D3D
:102B10000AD00EE0850603D4202C1ED2782506E0CC
:102B2000202C1AD2582502E0202C16D262250D55F1
:102B3000641C202C11D20B55641C202C0DD2BCF12E
:102B4000000F01D02D2306E0430701D52B2302E01F
:102B5000030702D520230B55641CCDE900BAC846F3
:102B6000154681468B46AA46800714D1274607E0C2
:102B70002A46DDE900316D1C2020C446E0477F1C59
:102B8000B742F5D307E02A466D1C641EDDE900312B
:102B90001BF80400C047002CF5D15FEA897006D409
:102BA00009E02A46DDE900316D1C2020C047A5EB75
:102BB0000A00B042F5D32846BDE8FC9F2DE9F04F4E
:102BC0008FB099468B46DDE91818DDE91C63DDE915
:102BD0001A4792468646002209B923F01003580589
:102BE00007AD00D5C9B1B1FBF4F004FB1010C0B2C1
:102BF0000A2801D2303009E05FEA836C02D54FF039
:102C0000410C01E04FF0610C60440A38B1FBF4F173
:102C1000A854521C09B1202AE5D3CDF80880CDE98B
:102C20000563CDE90052CDE903474B46524659466C
:102C30007046FFF72DFF0FB0BDE8F08F2DE9FF4F75
:102C40008FB01CACDDE9239594E8030820AC94E830
:102C5000C004002450EA010201D125F010056A05E4
:102C60000DF11C0802D550EA010217D032463B464E
:102C7000FDF7ECFAD2B20A2A01D2303206E0AB06F6
:102C800001D5412300E061231A440A3A08F80420E0
:102C9000641C50EA010201D0202CE7D3CDE9008466
:102CA000CDF808B0CDE90595CDE9036A0FAF97E8F7
:102CB0000F00FFF7EDFE13B0BDE8F08F9A4200D28F
:102CC00088547047704700002DE9FF4F89B00546D2
:102CD0000A9800249246002800D1FE4D8FE1252855
:102CE00004D02246641C53460A990BE2491C4FF05B
:102CF000000808460C9101782B2919D004DC202902
:102D000019D0232904D119E02D290ED0302909D05A
:102D10000026C8B2FEF7FAFDB0B10CA8FEF7DFFD41
:102D200006461FE048F001010AE048F0020107E012
:102D300048F0040104E048F0080101E048F0100107
:102D4000401C88460C90D6E70C9908782A2809D1AF
:102D5000169840C81690002E02DA48F00208764213
:102D6000491C0C910C984FF0000B01782E2919D1B9
:102D7000401C0C9048F480680078FEF7C7FD20B135
:102D80000CA8FEF7ACFD83460CE00C9A10782A28BC
:102D900008D1169901C91691002800DC0020521CA8
:102DA00083460C920C9801786C290AD004DC6829BF
:102DB0000FD06A2919D128E0742929D07A2914D191
:102DC00026E0401C0C90017848F480786C291CD0D7
:102DD0000BE0401C0C90017848F08008682904D171
:102DE00048F04001401C88460C9001460078692854
:102DF00022D015DC62281FD00DDC252872D0502887
:102E00001AD058287FF46DAF16E048F40071E9E756
:102E100048F48071E6E7632879D06428F2D10BE0AA
:102E2000732875D004DC6F2806D07028EAD103E03F
:102E3000752801D07828E5D178280DD058280BD0F6
:102E400070280BD0502809D06F2816D0622816D0D1
:102E50000A2228F0100016E0102207E0487810221D
:102E600048F48878562804D1491C0C9108785828D1
:102E700007D00878502804D006E0082209E0022292
:102E800007E048F0200080460878692803D06428CD
:102E900001D028F00C085FEA485001D528F001085D
:102EA000087869281FD064281DD0562864D05FEAAE
:102EB000885072D51698CDF818B0C01D0021CDE904
:102EC00004210291CDE9076820F007005346F0E89D
:102ED0000212CDE900121690224628460A99FFF701
:102EE000ADFE88E009E15FEA885022D5169804AF6C
:102EF000C01D20F00703F3E802011693002387E8C2
:102F00000C08CDE90768002903DA012202E07FE01E
:102F1000A6E00022002302921A461B1A8A4103DB14
:102F20000022404262EB010153462246CDE90001F6
:102F3000D3E75FEAC85004D5169901C90FE04042B3
:102F400015E05FEA486003D5169911F8040B06E016
:102F50005FEA0860F0D5169931F8040B00B21691BB
:102F6000CDE9022BCDE90468C10F0028E7DD534607
:102F70002246CDE900013AE01699AAEB040201C904
:102F8000169141680968009103680A98011928465A
:102F9000FFF79AFE04442FE0FFE75FEAC8500CD524
:102FA000CDE9022BCDE9046816980021534604C8E8
:102FB000CDE900211690224619E05FEA486003D56A
:102FC000169810F8041B08E05FEA0860169803D50D
:102FD00030F8041B89B200E002C8169001AF00204F
:102FE000009187E80508CDE9046853462246284643
:102FF0000A99FFF7E3FD04460C98401C0C900C99CD
:10300000087800287FF46BAE54457DD222467DE0DF
:1030100001275FEA887006D509E02246641C534602
:1030200020200A99A84738467F1CB042F5D316984D
:103030002246641C10F804CB1690534660460A9949
:10304000A8475FEA887006D4D6E72246641C534638
:1030500020200A99A84738467F1CB042F5D3CBE719
:10306000169850F8049B16904B46BBF1000001D017
:10307000014601E04FF0FF31484600E0401C027875
:103080000AB1491EFAD2C71A5FEA485003D558461A
:103090005F4500D307465FEA887006D511E02246F7
:1030A000641C534620200A99A84738467F1CB0422A
:1030B000F5D306E0224609F10109641C53460A993A
:1030C000A84799F8000040B15FEA4851F2D5BBF13A
:1030D000010B01E0C52C0008ECD25FEA887006D431
:1030E0008AE72246641C534620200A99A84738469E
:1030F0007F1CB042F5D37FE706E02246641C5346AE
:1031000025200A99A84777E7AAF101025346002033
:103110000A99A8470DB02046BDE8F08F10B502000F
:103120004FF000000CD04B1E194200D0FEE70A44BD
:10313000521E9A43B2F5803F02D20C2A01D91046A2
:1031400010BD0C2010BD08444A1E401E9043114281
:1031500000D0FEE7704700002DE9F0410F46012145
:103160000025044641862E460BE01B49FDF782F9F7
:1031700010B16D1CADB202E0608E401C6086761C02
:10318000B6B257F8260010B101780029EDD1208E93
:10319000A8421ED0A06A002610B114F0D9FBA66286
:1031A000E06A10B114F0D4FBE662E80014F044FBCE
:1031B000A06238B1680014F03FFBE06218B1A16A68
:1031C00011B102E0FEE7FEE70025690014F02CFDD6
:1031D0002586BDE8F08100005CFC00082DE9F84F71
:1031E0008146407A0F4600F00700022819D01046A9
:1031F0008046974200DD3A46164603202A4C2B4A69
:1032000000EB460020F00305A06811681035411A54
:10321000636805EB010C9C4505D2416821F0004133
:1032200024E00846E4E79D4219D892464FF0FF3B60
:1032300048196168884210D9002269461C48CDF8B7
:1032400000B00AF071FE002269461A480AF06CFECE
:10325000A168DAF80000091AEAE7A068DDE7284665
:1032600014F0EAFAC0B1416841F0004188EA67020F
:10327000416089EA02010160416801F04041491C56
:1032800031F0804141608681A0F80E8005D500F1C3
:1032900010018160BDE8F88FFEE7A16801F110021E
:1032A00029448260A160F5E744000020A4010020C9
:1032B000D9C0000889DF000870B586B000224A4CEA
:1032C0008DF808208DF80C208DF81020E2888A42B5
:1032D00001D0FF22A270E18090F83C20142302F07C
:1032E00003024FF4B475012A24D0022A5ED0A578D7
:1032F000AA4211D010F8265F05EB051505EB450530
:10330000B5FBF3F52570407800EB001000EB4000B2
:10331000B0FBF3F06070A27004AA03A8CDE900022C
:1033200001EB41004FF6FF7101EA400002AB627809
:1033300021781BE0A678B24210D0868C06EB4606B8
:103340007602B6FBF5F5A58090F8270000EB00109B
:1033500000EB4000B0FBF3F06070A27004AA03A879
:10336000CDE90002C9B202AB62783AE008F0CCFBCA
:103370009DF810109DF80C00CB08BDF800109DF8CA
:10338000082063F30401ADF800108108BDF80000C7
:1033900061F34A10D10880B261F3CF20ADF800008C
:1033A00080B20090BDF8000006B070BDA678B242B1
:1033B00010D0868C06EB46067602B6FBF5F5A580A6
:1033C00090F8260000EB001000EB4000B0FBF3F09B
:1033D0002070A27004AA03A8CDE90002CAB2217825
:1033E00002ABA088C2E70000F000002010B5084C36
:1033F000012020700748FEF70CFF0028A06803D0CA
:10340000BDE810401CF0EAB8BDE810401CF0DAB886
:103410007C010020402A002010B5044690F84200AC
:10342000A16B820709D4B4F840204AB1A2F57F43CA
:10343000FF3B1BD0521EA4F84020B4F84020AAB98C
:1034400009B1820712D521461448FEF77DFFFFF728
:10345000CDFFE16809B120468847216909B12046BE
:1034600088472046BDE8104014F072BAE26B524221
:103470002263002911D0820702D4626B5242226378
:103480004210521C62F3410084F84200A26A206A92
:103490002262A062E06AE162A06310BD402A0020BF
:1034A00070B5304D68681BF035FF0646687880F0CF
:1034B0000100687047E00020287094F842006978A5
:1034C000C0F380028A4242D061F3820084F8420055
:1034D000216B8A19030719D4002917DC002A15DB90
:1034E000C00709D1616939B120468847216A014482
:1034F0002162A16A0844A062A16809B120468847F8
:1035000094F8420040F0080084F84200206B8019D3
:10351000206316D4E16A884200DD2163E169204618
:1035200088470146606A884204D0616262680AB1D5
:1035300020689047D4E90B01814202DB2046FFF767
:103540006BFF287818B10848FEF763FE03E02146B8
:103550000548FEF770FE0400ADD11BF0E1FE686087
:1035600070BD00007C010020402A002070B5044698
:1035700040680D4608B1FFF7F9FF2268002A04D021
:1035800029462046BDE87040104770BD89B20BF057
:1035900067BD89B20BF0A0BD89B20BF061BD2DE90A
:1035A000FF4F99B09846DDE926B12D9816468A4618
:1035B0004FF00009042811D0052811D0062812D098
:1035C000142873D10127022508FB06F00E901A98E3
:1035D0000024401E0D90701E06904AE10027F2E77D
:1035E00001270325F0E701270225FFF7D7F8006838
:1035F000D0F83890E8E7289860430BEB2022299810
:1036000060430AEB202110124FEA212E7DD41A9B31
:1036100098427ADABEF1000F77DBB645F9DAD3B219
:1036200001F0FF0C802B05DAC3F17F014FF0FF3270
:10363000490003E001225900A1F580710991BCF114
:10364000800F05DACCF17F034FF0FF315B0004E01F
:103650004FEA4C030121A3F580730A930EFB080C7B
:10366000199B0CFB05330793831811937BD4DDF86A
:1036700034C0634577DC1EEB01030F9373D4DDF890
:1036800018C063456FDC079B01FB08F102FB0532A4
:1036900001FB053116929C460C91BFB32D9905296B
:1036A00005D014290AD006294CD059E0E5E00C9841
:1036B0009CF8022081781698807810E0199A0E996B
:1036C00002EB41010B180EFB0811119817930EFB2A
:1036D00008F2085C0F99D25C01FB08F1C95C9142C9
:1036E00007D00A9B5943C3F5807302FB0311C1F352
:1036F0000721904207D0099B5843C3F5807302FB12
:103700000300C0F30720084401E09AE02CE02C9964
:10371000400808555FD09CF800109CF8010001EBB0
:103720000020ADF80C000C980178407801EB0020E7
:10373000ADF8100016980178407801EB0020ADF844
:1037400008001FE0BCF800101FFA89F0814278D011
:103750000C990988814274D016990988814270D0E9
:10376000FF210846CFE737E0BCF80000ADF80C00B9
:1037700016980088ADF808000888ADF810002C985D
:10378000FF210155BDF80C00BDF81010884209D189
:10379000BDF80810884205D12B98BDF80C1000EB3D
:1037A000440017E00A98C2B2DDE903100DF01AFCDC
:1037B00004900998C2B2DDE902010DF013FC7F22EA
:1037C000029004990DF00EFC00902B98BDF80010AB
:1037D00000EB440001804AE0079B93F800C05B784F
:1037E0000CEB0323DDF8ACC09BB22CF81430DDF8F1
:1037F000B4C0BCF1050F06D0BCF1060F06D0BCF179
:10380000140F09D10AE0079B9B780FE01FFA89FC8F
:10381000634501D1002309E0FF2307E0199B0EFB5C
:10382000083C0E9B00EB43031CF8033008B9002A48
:1038300005DBDDF834C0604504D1002A02DD0998BB
:103840000BE011E0BEF1000F01D1002904DB069A64
:10385000964509D1002907DD0A98C0F1FF005843B9
:10386000010A2C98015502E02C9900200855641C8F
:1038700024B22A988442FFF6BEAE1DB0BDE8F08F98
:1038800030B591B005460C4668460AF0EDFE0020C2
:103890000B9060420C9004480390009568460AF033
:1038A00057FF11B030BD0000258F010810B5818F82
:1038B00092B00446A9B168460AF0D6FE0B48012131
:1038C000CDE90040A08F0B9000200890CDE90901C0
:1038D000074807900748039068460AF039FF12B07E
:1038E00010BD12B0BDE810401DF0C4BDED140208BB
:1038F00027E70008EF14020810B504464068820864
:103900000AD0496821F00301091D0844606020467F
:1039100000F042F8204610BDFEE74068103120F06C
:103920000300884201D301207047002070472DE931
:10393000FC47054648680C4620F0030001AA69468A
:103940001CF0DAFDDDE9007005EBC71101EB800921
:103950008046D9F83C0060B164B1C4E9020504F1C5
:103960000806C46030460421FFF7EDFB864202D012
:10397000FEE7FEE7FEE7C9F83C400120296900FAAE
:1039800007F21143296105EB870100FA08F04A6943
:1039900002434A61BDE8FC8710B5044600F087F891
:1039A000046010BD2DE9FC4706464FF000000D00F5
:1039B00000900746019042D00C46E9460DF10408FC
:1039C000802907D3084621F009FB411F01208840C8
:1039D000401E04444246494620461CF08DFD009C92
:1039E0000A2C2CDA06EB8400019A40694FF0FF3173
:1039F00001FA02F210400CD1641C3069A140084069
:103A00001DD021F0E3FA0446009006EB80004069E7
:103A100078B121F0DBFA034606EBC411019001EB0B
:103A20008000C76B5FB1786820F00300A84201D224
:103A3000FEE7FEE739463046009A1EF05DFC384648
:103A4000BDE8FC8710B50446FFF7A6FF416841F0CA
:103A500002014160606840F00100606010BD10B577
:103A6000044600F024F8416821F0020141606068DA
:103A700020F00100606010BD70B506460D46084696
:103A800000F015F8040010D02079C0070BD068684A
:103A900080080BD02146304600F03CF821462846ED
:103AA000FFF72AFF0546284670BDFEE7FEE742689D
:103AB00000F1080122F00300001F0844910800D122
:103AC000FEE7704770B506460C004FF000001ED0B0
:103AD000F2B120791546C0071BD011462046FFF7EA
:103AE0001CFF78B12946204600F025F805462046FF
:103AF000FFF752FF6868294640F0020068603046D0
:103B0000FFF715FF2046FFF7AAFF04F1080070BD7C
:103B1000FEE7FEE77CB5054648680C4620F003004A
:103B200001AA69461CF0E8FCDDE90023214628468D
:103B30001EF0E2FB7CBD2DE9F0410D46044600F18C
:103B40000801281F0E18606806F1080720F003001E
:103B5000401BA0F1040838460421FFF7F4FA87421D
:103B600000D0FEE7606820F0030108EB0500001DAF
:103B7000814200D0FEE7307900F0030040EA0800FF
:103B8000706020F003000C2800D2FEE7207900F0DE
:103B90000300284360603046FFF754FF3046BDE81D
:103BA000F08138B5044612F01FFA054612F051FABA
:103BB0000028204605D0218FE18617F004FA012065
:103BC00038BD10F0D3FC002820461ED010F09AFB20
:103BD000218FE08E81420CD02087E08E00906A46D3
:103BE0001C21204610F004FF0128E9D1204617F0DF
:103BF000EAF9284612F039FA0428E0D1204615F0F7
:103C0000BBFD002111F09EFBD9E710F00BFDD6E7BC
:103C100070B510F0E9FE054615F0F4FD044628469F
:103C20000CF0E4F801462046BDE8704000221AF08E
:103C30006DBE00002DE9F04F0D4687B0044600210F
:103C400015F0CEFC60B32946204600F061FA294603
:103C5000204600F06FF80021204616F0E9FB0590A1
:103C60000021204616F08CFC04900021204616F01E
:103C7000B0FA012800D0002080460021204616F02E
:103C8000D2FD07460021204616F01EFB42F2D179F4
:103C900006464F450BD1608C000508D4012707E08C
:103CA00007B02846BDE8F04F1C2113F0BDBF002728
:103CB000204615F013FDDFF878A08346204600214A
:103CC000BAF8042016F0B6FCD5F810C0AB68296825
:103CD000CDF800C0CDF80C80CDE90131C2B2394633
:103CE0005846059B09F03EFC28834E4504D1608C64
:103CF000400501D4012600E00026204615F0D4FC42
:103D0000074620460021BAF8082016F093FCC2B2FC
:103D1000686900246B68E9688DE81B003146384605
:103D2000049B09F01FFC688307B0BDE8F08F00001A
:103D3000640000202DE9F34F81B00C46019808F093
:103D400095FE0646019815F0C9FC8246304600F003
:103D5000DEFF2061400013F09DFD206020694000DF
:103D600013F098FD002541F69A79A0603AE036F903
:103D70001510DFF82081494533D10027DFF818B14D
:103D80001FE03946019815F02BFC5946009016F0BB
:103D90006BFEA8B9009808F07BFE012810D10098AE
:103DA00008F06CFEA8420BD1009816F00DFE4146BB
:103DB000404501DA084602E0009816F005FE80460C
:103DC0007F1C019815F01EFCB842DAD8B8F1000F3C
:103DD00003DBA16821F8158003E0A168002021F829
:103DE00015006D1C2069A842C1D800252F46284621
:103DF00041F69B784A4615E036F91010414504DB40
:103E00000D44A5F5F8559B3D0BE0914204D1A16806
:103E100031F81010394403E0A36823F81010394436
:103E20000FB2401C21698142E6D80021019816F0AA
:103E3000FFFA2169C1F1010200FB02A0C01B00B220
:103E4000002800DA002000224FF0FF331146C4465C
:103E500011E000BF36F9117067450BDBA7F5F85785
:103E60009B3F3AB200FB02F3B3FBF5F3A76827F8D8
:103E700011300B46491C27698F42EBD8002B07DB1A
:103E8000A91A4143B1FBF5F1401AA16821F81300CA
:103E9000BDE8FE8F01E0FFFF010006002DE9F14FB4
:103EA00000221146009818F02DF80021009816F015
:103EB000C9F904460021009816F06EFB20440FFA61
:103EC00080F90021009816F06BFA20440FFA80F870
:103ED000009816F02BF900EB090101EB0800DFF860
:103EE00098A006B25446009815F08CFB07460025B2
:103EF0002AE0009821498068006850F82500834630
:103F000016F0B2FDF8B9584617F0B6F840BB0021DC
:103F1000584616F02FF918B3012821D002281FD0D7
:103F200003281DD00021584616F095FC58B9BBF85F
:103F30001A10BBF81600081A401C00B24844A042F0
:103F400000DB044624B26D1CBD42D2D3544504D0DC
:103F500004EB080000B2B04200DC3046BDE8F88F48
:103F60000098BBF91A10B0F91600081A411CA142BA
:103F7000E8DB0C46E6E7000001E0FFFF010004007B
:103F80002DE9F84F00228046114617F0A5FF0021C9
:103F9000404616F057F904460021404616F0A8FAAC
:103FA00020440FFA80FA0021404616F059FA2044C6
:103FB0000FFA80F9404616F0C7F800EB090101EB53
:103FC0000A00DFF844B105B25C46404615F01AFB22
:103FD00007460021404616F0EAF801284FF0000697
:103FE00044D078E0D8F808004849006850F8260026
:103FF000009016F039FDC0BB009817F03DF850B1A5
:104000000098B8F91810B0F91400091A481CA04219
:104010002ADB4C1C28E00021009816F0ABF858B1C0
:10402000032809D0062807D0082805D000210098C9
:1040300016F00BFC58B118E00098B8F91810B0F958
:104040001400081A411CA1420EDB0C460CE000983B
:10405000143000900BF019F95044A04204DB009892
:104060000BF013F900EB0A0424B2761CBE42B9D35C
:104070005C453BD004EB090033E000BFD8F80800F2
:104080002249006850F82600009016F0EDFC08BBAD
:10409000009816F0F1FF60BB0021009816F06AF856
:1040A00038B3012825D0042823D0072821D00021A7
:1040B000009816F0D0FB68B90098143000900BF00F
:1040C000E4F84844A04204DB00980BF0DEF800EB73
:1040D000090424B2761CBE42D0D35C4506D004EB62
:1040E0000A0000B2584501D0A84200DC2846BDE8CD
:1040F000F88F0098B0F91810B8F91400091A481C84
:10410000A042E6DB4C1CE4E701E0FFFF01000400F5
:104110002DE9F84F0C46834609F0AEF8064600F04C
:10412000F6FD6061400013F0B5FB6060606940001F
:1041300013F0B0FB002541F69A79E0603AE036F9D9
:104140001500DFF82881484533D10027DFF820A18A
:104150001FE03946584615F043FA5146009016F0D4
:1041600083FCA8B9009809F00FF9012810D1009834
:1041700009F000F9A8420BD1009815F002FB414666
:10418000404501DA084602E0009815F0FAFA804648
:104190007F1C584615F036FAB842DAD8B8F1000F4D
:1041A00003DBE16821F8158003E0E168002021F8D5
:1041B00015006D1C6069A842C1D800252F4628460D
:1041C00041F69B784A4615E036F91010414504DB6C
:1041D0000D44A5F5F8559B3D0BE0914204D1E168F3
:1041E00031F81010394403E0E36823F81010394423
:1041F0000FB2401C61698142E6D80021584616F092
:10420000BFF98146584615F04FFA01466069C0F182
:10421000010209FB0210C01B00B2002800DA0020D6
:1042200000224FF0FF331146C44610E036F91170FA
:1042300067450BDBA7F5F8579B3F3AB200FB02F34B
:10424000B3FBF5F3E76827F811300B46491C6769A3
:104250008F42EBD8002B07DBA91A4143B1FBF5F1E4
:10426000401AE16821F81300BDE8F88F01E0FFFF74
:10427000010006001CB50B8804892344ADF800300A
:104280004B8844892344ADF802308B880489234449
:10429000ADF80430C98843891944ADF80610436964
:1042A000694698471CBD00002DE9FF4F89B0C878CA
:1042B0001A9CC0070D46002801D0F84800E0F848D5
:1042C000069001D0F74800E0F748049001D1F54886
:1042D00000E0F5484FF010034FF00C0E4FF0080BC4
:1042E000CDF814006188A2884FF0000AA1EB02010A
:1042F000504609B25246D4F810C00FE002EB8207D4
:10430000E66803EB870816F808805FEAC87809D0EA
:104310000BEB8707F65B891B09B2521C9445EDD85D
:10432000002254E00EEB8707F65B304400B2F4E75E
:10433000E66802EB820703EB870CB146CDF820C09C
:1043400016F80C60F60741D1002872D091FBF0F806
:104350000EEB8706079639F8066006FB08F60FFA9B
:1043600086FCCDF800C04FF0060C0CEB870C042641
:1043700039F90C8006EB8706DDF800C039F90660D4
:10438000E04500DCC446664504DC009EC446B045FA
:1043900000DC6646DDF800C00196664506D0DDF813
:1043A00020C04FF00108C24649F80C80D4F80C80B8
:1043B000019E0BEB870728F80760D4F80CC0079F15
:1043C0003CF80770C01B891B00B209B2521C266959
:1043D0009642ADD8BAF1000F84D10021099815F0AA
:1043E000F2FE012826D000270020ADF80800ADF825
:1043F0000C0003A902A8CDE900012089B4F902202C
:1044000003B2287818991CF081FFE878384207D069
:10441000099815F063F9BDF808100844ADF80800D4
:104420000B99099815F0DCF806464FF4FA682AE172
:10443000FFE7FEE70127D7E79C49304616F014FB5B
:1044400000286FD10021304615F028FFF0B34FF05F
:104450000009484621690FE0E26800EB800352F84A
:104460002320B24207D1E16800EB80020BEB82000F
:1044700031F9009002E0401C8142EDD8E878C00795
:10448000708C04D020F4806040F4006003E020F4DD
:10449000006040F48060708406F114000499824644
:1044A0008847484528D0304616F08DFDB08AADF8D3
:1044B0000000F08AADF80200308BADF80400708B7C
:1044C000ADF8060049465046069A00E010E09047D5
:1044D0006A462921304610F08BFA304615F092F9E1
:1044E0003246222110F084FA304616F06CFD03E0CB
:1044F000708C20F44060708400200090687801285F
:1045000011D0022817D1059906F114008847B4F993
:104510000010491C21F00101081A00EBD07040F393
:104520004F0007E0A7E0059906F1140088472188AD
:10453000081A00B20090E878384208D0049906F1D1
:1045400014008847BDF80810081AADF80800304676
:1045500000216B2216F06EF80FFA80F93046002128
:104560006C2216F067F80FFA80FA304616F02CFA33
:104570000190304615F005F90146C9F34130012894
:104580000FD129F4C04040450BDCB0F57A7F01DD46
:10459000C0F57A70019A5043642290FBF2F00FFA52
:1045A00080F9CAF3413001280ED12AF4C0404045B9
:1045B0000ADCB0F57A7F01DDC0F57A7048436421EA
:1045C00090FBF1F00FFA80FAB18A1698F28A411A3C
:1045D00001EB0900179900B28A1A02EB0A01EA7886
:1045E00009B2D207002A02D0BDF9082000E0009AE3
:1045F00010440FFA80FA01D0009801E0BDF90800DC
:1046000008440FFA80F95AEA09011BD0304616F027
:10461000DAFCB18A01EB0A00B082318B01EB0A00AF
:104620003083F18A01EB0900F082718B01EB090004
:104630007083304616F0C7FC00234A465146304688
:1046400016F068FDE87838420CD1049906F11400A0
:10465000884719990844BDF80C100844BDF80810A3
:10466000084406E0BDF80C1019980844BDF808107D
:10467000081AADF80800E8780BAAC0F38001099881
:1046800008F0C0FC0646002E04D0DDE90B0188428C
:104690007FF4D2AE0DB0BDE8F08F000013F3000838
:1046A00009F30008AFF2000857F200080100060005
:1046B0002DE9F04F91B00E0005463FD02E832868BB
:1046C00008B113F045F906EB4600062101EB400066
:1046D00013F0B2F8286040B3022101EB4601014417
:1046E000E960042101EB86010144C5E901010121D2
:1046F0000024012E1AD0F000083013F0CBF88146C8
:1047000000EB860000F10408B00000B2A346ADF84B
:104710001000C0F101028010ADF812B00FFA82FA59
:104720005C46CDF828B00690ABE0FEE7B4220270FC
:10473000E8680480E8684180A868048011B0BDE89A
:10474000F08F0027BDF81220BAF1000F07DC03211B
:1047500001EB42010AEB01000FFA80FA0CE0BDF810
:1047600010100523521A03EB420202EB0A00491E05
:104770000FFA80FAADF81010BDF81200401CADF829
:10478000120004A800F0E7F868B1BDF9100006AA0D
:10479000811042F827100AA900F0030041F8270011
:1047A0007F1C042FCEDB042F71D109990698884213
:1047B00012D129F8140028F814B0DDE90A010144E7
:1047C000DDE90C2010440844696808556968000157
:1047D0000855641C24B252E00799884219D029F880
:1047E000140028F814B06A680A9810556A68000125
:1047F0001055641C069A20B2521E29F8102028F881
:1048000010B0DDE90B120A440D99091D11446A68C4
:104810002FE0089929F81400884228F814B0DDE93F
:104820000A025946104412D06A6810556A6800019D
:104830001055641C069A20B2521E29F8102028F840
:104840001010DDE90C12114408316A6811E00C9A6D
:1048500010446A6810556A6800011055641C069A75
:1048600020B2521E29F8102028F810100D996A68FD
:104870000C3111546A6809011154401C04B20BF147
:10488000010B04A800F067F800287FF45AAF09EB89
:10489000440140F2D320464331F9021CB012814258
:1048A00005D108EB440131F9021C81421AD0A6EB74
:1048B0008021B1F5007F03DC494341F3CF3106E0AD
:1048C000C1F58061494341F3CF31C1F10F0129F8AE
:1048D000140028F81400686801556868090101553A
:1048E000641C24B2A01E0DE038F8102029F8142012
:1048F00039F8102028F8142069680A5C0A55641CED
:1049000024B2401E0028EFDAEB6800210846198027
:104910001BE0EA6822F81100AB6839F8102023F890
:1049200011200AE0AE6839F9102036F811309342B0
:1049300000DA1A4626F81120401C38F910208A4265
:1049400001D1A042EEDB491C09B2A042E1DB48469E
:1049500012F0ECFFF2E6B0F90210B0F9000081426B
:1049600001DC012070470020704717B581B0022A92
:1049700003D8BDF8080004B010BDBDF80830BDF87C
:104980000400D90A01EBD0211F2900D31F2161F3B4
:10499000CF20C3F34511C0F345142144ADF8040002
:1049A0003F2900D33F2161F34A1003F01F0100F0BB
:1049B0001F031944ADF804001F2900D31F2161F320
:1049C0000400ADF80400FF2A07D0DDE901010CF076
:1049D000EFFA0090BDF80000CDE780B2CBE717B545
:1049E00081B0022A03D8BDF8080004B010BDBDF89C
:1049F0000400BDF80810C30ACC0A63435B0963F3E3
:104A0000CF2001F01F0400F01F0363435B0963F331
:104A10000400C0F34513C1F345114B43990961F3F9
:104A20004A10ADF80400FF2A07D0DDE901010CF0BF
:104A3000BFFA0090BDF80000D7E780B2D5E717B500
:104A400081B0022A03D8BDF8080004B010BDBDF83B
:104A50000830BDF80400D90AA1EBD021002900DC00
:104A6000002161F3CF20C3F34511C0F34514091BA6
:104A7000ADF80400002900DC002161F34A1003F0C6
:104A80001F0100F01F03C91AADF80400002900DC63
:104A9000002161F30400ADF80400FF2A07D0DDE92E
:104AA00001010CF085FA0090BDF80000CDE780B25E
:104AB000CBE7F8B504460FF097FF064620460FF007
:104AC00055FF0546304614F09DFE04462B2D34D08C
:104AD0000A2D31D111F088FA10B1007901282BD0BC
:104AE0006946304614F0F4FE94F82C0010F00C0FD8
:104AF00030462BD014F0F2FD05460021204615F07B
:104B00006EFB0128BDF9000005EBD5711BD000EB51
:104B1000610090FBF5F001B2002900DA0021608D00
:104B20004FF00102884220461BD019F0EFFE002210
:104B30001C2120460FF05CFFF8BD618DBDE8F840F8
:104B4000002219F0E3BEC0EB6100E2E714F0ACFD17
:104B5000BDF9021000EBD07201EB620191FBF0F0A5
:104B6000D9E719F0D3FEF8BD2DE9FF4F89B004460F
:104B7000169EDDE919577000DDF86090DDF828A079
:104B80000FFA80FBB9F1040F22D0B9F1060F1FD044
:104B9000B9F1050F5CD0B9F1140F56D1B4F900008A
:104BA000B4F90210CDF80CB006FB01030AEB430286
:104BB0000092E2884FF00008511A491C0FFA81F95F
:104BC000A188081A401C0FFA80FA4FEA4A0B81E0CC
:104BD00020460AF04CFB01460390384613F052F889
:104BE000B4F90000B4F90280A18806FB0802081A93
:104BF000401C00B2069040000AEB420A2E4602908A
:104C00000CE051463046029A12F030FF069808F147
:104C10000108DA4406EB40060FFA88F8B4F90600FA
:104C20004045EEDAB9F1060F0FD100224FF4FC60D7
:104C3000ADF80000114605E035F81130834200D18F
:104C40007A54491C039B9942F6D30DB0BDE8F08F0E
:104C5000B4F90010B4F9023006FB031000EB400277
:104C600002EB0A00A288511A491C0AB2B11A01EBE0
:104C700041010EB2E188C91A491C0CB2002317E0A9
:104C800000210DE090F802C007F801C010F801CB38
:104C900010F8028B0CEB082C25F811C0491C09B246
:104CA0009142EFDB5B1C05EB4205174430441BB21D
:104CB000A342E5DBC9E75A462846009912F0D6FE22
:104CC0000099039805EB4A050844009008F101009B
:104CD0000FFA80F8C845EEDBDDE90A014A000C99BD
:104CE00002FB0100B4F90010B4F9022006FB021126
:104CF0000D18002408E052462946384612F0B6FE48
:104D0000641C5744354424B24C45F4DB9DE701460E
:104D1000002041F6FF7200E0401C31F91030934250
:104D2000FAD170471CB5044690F8540000F0010019
:104D300088422DD094F8540011B140F0010001E0F8
:104D400020F0010084F8540004F1480168460AF09C
:104D500073FA606ABDF80010828A1144ADF8001041
:104D6000BDF80210C08A0844ADF80200606ABDF8C0
:104D70000410808A0844ADF80400606ABDF806108B
:104D8000C08A0844ADF806006946204616F03EF990
:104D90001CBD08B5084611460BF0DFFF0090BDF8BA
:104DA000000008BD2DE9F04F0746C87A89B01546C6
:104DB0000E46022803D8012009B0BDE8F08F18463E
:104DC0003269B168FDF764F9041EF5D0207D00F06A
:104DD0001F0010F003FB4FF4807808B1062011E0AB
:104DE000207D00F01F000E2806D014280AD010F0F5
:104DF000E5FA30B1052005E030884FF00E0930B9F2
:104E000002E00420814606E07088404503D000207F
:104E10004FF00509A061226A22B1294638461DF0EB
:104E20008CFEB7E0A069E0B3294602A80AF0BCF9FD
:104E3000B6F9003013B97088404529D0A888298870
:104E40006A88401A401C01B2E88806F1040C801AF6
:104E5000401C02B27088CDE9000C02A8FDF762F890
:104E6000BDF8080029880844ADF80800BDF80A100C
:104E700068880844ADF80A00BDF80C002988084489
:104E8000ADF80C00BDF80E1068880844ADF80E00AF
:104E900002AA04A8B968FCF7F7FD00287AD004A894
:104EA00000E00DE0D7F80880B860CDF800902A4601
:104EB00031463846A3690CF06FFFC7F8088069E0F7
:104EC0002A4604A8B968FCF7DFFDE0B3BDF814007A
:104ED000BDF81010401A401C0FFA80FB0BEB4B0082
:104EE00012F0D8FC039004A901A8D7F808A00AF092
:104EF0005BF9012101A80AF007FABDF91000B5F924
:104F00000010BDF91280401A0690B5F90200A8EB16
:104F1000000536E001AA514607A8FCF7B5FD70B3BD
:104F20000398009006985B4601B22AB2204610F022
:104F30005FFE01280ED0204610F0AFFD039812F05E
:104F4000F5FC204600E025E010F0A7FD0020C7F8A2
:104F500008A031E707A8B860CDF8009001AA314653
:104F60003846039B0CF018FFBDF80600401CADF856
:104F70000600BDF80A00401CADF80A006D1C08F1DF
:104F80000108BDF916004045C4DAC7F808A0039827
:104F900012F0CCFC204610F080FD0CE7704738B5CD
:104FA000054600924C88CB888A8808882146FCF701
:104FB000D7FA2846BDE838400CF046BC70B5054627
:104FC00011F012F80646286B1AF0A4F93168898BA3
:104FD000884223D295F83C006C6A10F0030105D09A
:104FE0006420012906D0022909D106E0002060F3DF
:104FF0000F0404E060F3174401E060F31F643046DF
:1050000011F0B6F8214628460CF0DAFA30B1002249
:105010001C2128460FF0ECFC012803D11AF080F97E
:105020002863012070BD00002DE9F04F99B00746BC
:1050300014468A4614A80CF09FFC4FF4A021384671
:1050400015F0A1F89DF85D1060F382018DF85D10F8
:10505000A1882088091A491C09B201EBD1714E10B0
:105060003044ADF86000608800213044ADF8620043
:10507000384615F059F98146514602A814F0EEF869
:1050800014A80A904FF400300F902F48039000208E
:10509000049007F130008346FDF7D4F84EE0207904
:1050A000032847D1208BADF85000208AADF852007C
:1050B0006079FD2801D9484602E000FB09F0000AAA
:1050C0008DF85C002568B5F92030E88B1844009015
:1050D000D5E90512A06812F091FB8046B5F92030A1
:1050E000E88B18440090D5E90512E06812F086FBC1
:1050F0001FFA88F5ADF854501FFA80F8ADF85680C5
:10510000608B02AA3044ADF8440018A80B901A2115
:10511000139438460FF06CFCCDE90058BDF84430CC
:1051200018AA14A950460CF017FC02AA1B213846F5
:105130000FF05EFC21465846FDF781F80400AED121
:1051400019B0BDE8F08F0000D45E02082DE9F74FDA
:10515000C878A0B00C4602287DD9114601A80AF0F3
:105160003EF8B4F92000012829DD94F82200FD283A
:1051700025D3208818B394F82300BDF80410400804
:10518000C0F380021144ADF80410BDF80610C0F35E
:1051900040000844ADF8060094F82310BDF808005C
:1051A0004908C1F3C001401AADF8080094F8231073
:1051B000BDF80A00C1F34001401AADF80A0020987A
:1051C00001A9826805A8FCF75FFC002843D0E07BBA
:1051D00010F0070619D0E088ADF80000BDF8000017
:1051E0006189884200D1002601A80DF027FB0746FF
:1051F0001C210EA8FBF716F9A0788DF85100BDF818
:105200000000ADF840001FB105E060680090E5E7E0
:10521000208800B9EEB3E078FD2800D3FF20834654
:10522000BDF80800BDF80410401A401C0FFA80FABF
:10523000BDF80A00BDF80610401A401C01B28946AC
:105240005046CA4500DB0846B4F90050B5EB600F84
:1052500000DB451000E043E0BDF81810BDF8140075
:10526000081A401C0FFA80F84FF0FF301D90002004
:105270000790002D00DC87B1404612F00BFB079031
:1052800000232A4601A916A80DF044FD002116A806
:1052900000E01CE00DF0F2F81D90BDF81400ADF830
:1052A0000C00BDF81800ADF810000798119003A885
:1052B0000E901390FF208DF850004A465146A01DD5
:1052C0000FF0CAFE040018D0022E0CD015E001A881
:1052D0000E90E0788DF850000EA920980DF0E0FFB8
:1052E00023B0BDE8F08FBDF91410A06800EB4100B9
:1052F000BDF90410A0EB41000F90002F7DD0BDF947
:10530000165027E02FB2ADF80E70ADF8127042467D
:105310005946079812F056FCBDF9141043463A4618
:1053200007980DF04DFA8DF84800012802D10220AF
:105330008DF84800012E08D1BDF90610A068691A41
:1053400000EB41000088ADF840000EA920980DF058
:10535000A7FF6D1CBDF91A00A842D3DAB7E000BF61
:10536000BDF80600BDF9161038440FFA80F9BDF8F3
:105370000A00C01B0FFA80FA494503DDBDF91A1077
:10538000514544DB42465946079812F01BFCBDF9D3
:105390000C1043464A4607980DF012FA8DF8480063
:1053A000012802D102208DF84800BDF916104945A8
:1053B00013DCADF80E90ADF81290012E09D1BDF9B5
:1053C0000620A168A9EB020001EB40000088ADF8BF
:1053D00040000EA920980DF063FFBDF91A10514549
:1053E00015DBADF80EA0ADF812A0012E0BD1BDF962
:1053F0000600A268AAEB000000E009E002EB400012
:105400000088ADF840000EA920980DF049FF7F1CE0
:10541000AF42A5DBBDF80400ADF87800BDF8080088
:10542000ADF87C00BDF806002844ADF87A00BDF860
:105430000A00401BADF87E001EA80DF0FFF90746DC
:1054400030430CD001208DF84800BDF90A008DF8DA
:1054500050B0A0EB0509BDF90600054435E0BDF8E4
:1054600006008DF850B02844ADF80E00BDF80A00D3
:105470000EA9401BADF812000020119020980DF0ED
:105480000FFF24E06FB142465946079812F09AFB8D
:10549000BDF9141043462AB207980DF091F98DF822
:1054A0004800ADF80E50ADF81250012E08D1BDF9EC
:1054B0000600A168281A01EB40000088ADF8400002
:1054C0000EA920980DF0ECFE6D1C4D45DADD079815
:1054D00008B112F02BFA1D98401C05D01D980DF054
:1054E000C5FC16A80DF08EF9002C3FF4F9AE20464D
:1054F0000FF0ACFDF4E62DE9F0410646086992B0E4
:1055000015460C4600287DD0A07E02287AD929466F
:105510000EA8B268FCF7B8FA002873D00EA8D6F827
:105520000880B060206910F04DFD022806D0694661
:10553000206910F0D3FA012849D0C9E0002741F6CC
:10554000FF70CDE900700297D4E904123B4610A821
:105550001AF0C0FA284609F0A4FE01462A88BDF9CF
:10556000400001EBD17102EB610100EBD072A1EBC5
:1055700062010844401EADF81000ADF80C1028463A
:1055800009F063FE01466A88BDF9420001EBD17162
:1055900002EB610100EBD072A1EB62010844401EF6
:1055A000ADF81200ADF80E1005A80CF0B7FE60695A
:1055B0000590208BADF82000A07E8DF82E0000977E
:1055C00003AA05A9304623690CF008FC80E005A871
:1055D0000CF0EAFBA0788DF82000208BADF81C00C1
:1055E000E07E8DF81E00A07E8DF81F00207F4FF01A
:1055F000FF3740B100996888ADF8060007EB5151BC
:1056000008445DE066E0284609F04BFE298800EB7F
:10561000D07001EB60000099C1F38A21A0EB51002A
:10562000ADF80400284609F010FE698800EBD07040
:1056300001EB60010098A1EB9051C0F38A22ADF814
:105640000610BDF80430521E1A4407EB5050ADF856
:1056500008200844ADF80A0001AA05A930462369CC
:105660000CF06EFB34E000992888C1F38A21ADF874
:105670000400491E084410E001AA05A93046236928
:105680000CF05EFB0098BDF80410C0F38A200144C2
:10569000ADF80410BDF808100844ADF80800BDF9D5
:1056A0000400B5F904108842E6DDBDF80610009844
:1056B00001EB5051ADF80610BDF80A1001EB505047
:1056C000ADF80A00BDF90600B5F906108842CADD3A
:1056D000C6F8088012B0BDE8F081F0B5074691F831
:1056E000220087B016460C4602286BD9208C002871
:1056F00068D094F8230010F03E0F63D0C00761D14A
:10570000B08831887288401A401C01B2F088B4F920
:105710000050801A401C00B2814200DA0846B5EB06
:10572000600F00DD4510314604A809F058FD94F8DB
:105730002300BDF91020C0F344014807B4F920004C
:1057400001D4284440421044ADF810000807BDF9C8
:105750001420B4F9200001D428444042101AADF8B6
:10576000140094F82300BDF9121040088007B4F922
:10577000200001D4284440420844ADF8120094F8B7
:105780002300BDF916104008C007B4F9200001D16C
:1057900028444042081AADF81600208C281A00B29E
:1057A000002800DA0020A27894F82210CDE9021235
:1057B000E18BADF8041000902B4604AA3146384620
:1057C00000F002F807B0F0BD2DE9FF4FA9B01D466B
:1057D000DDE93879DDF8D88016460C46FF2F00D376
:1057E000FF2708460DF02AF82690284350EA0800C3
:1057F00074D029982146826808A8FCF745F900284A
:1058000073D0BDF82400BDF82010401A401C00B22F
:1058100004901C210AA812F007FA049812F03AF832
:105820000D904FF0FF302490002D0ADD00232A4612
:10583000214615A80DF06EFA002115A80CF01EFEE9
:1058400024900123424631461BA80DF063FA002143
:105850001BA80CF013FE259001A80A900F90BDF82C
:10586000DC008DF84070ADF830008DF84190B4F94F
:1058700000002290B6F900304119994200DC194627
:10588000B4F904000FFA81F92190B6F90410421B13
:105890008A4200DB0A460FFA82F8B4F902E0B6F950
:1058A00002200EEB05009246504500DC1046B4F98C
:1058B00006B007B2B6F90620ABEB0500904200DB5C
:1058C000104600B20590A8EB0900401C00B22790DA
:1058D000D6450DDC01200CE000E006E000973246E2
:1058E0002146379B299800F0B8F92DB0BDE8F08F1C
:1058F00000208246934501DB012000E00020834622
:105900002698D8B3BDF82000ADF80400BDF82400F7
:10591000ADF80800BDF9224022E000BFBAF1000F47
:1059200001D1A7421BDCBBF1000F02D10598A042B8
:105930001ADB25B2ADF80650ADF80A5004990D985F
:1059400012F0A0F9BDF920102A46049B0D980CF026
:1059500037FF8DF838000AA929980DF0A1FC641CC6
:10596000BDF92600A042D9DA1BA80CF04BFF259800
:105970000DF07CFA2498401C07D000E009E015A83F
:105980000CF040FF24980DF071FA0D9811F0CEFF45
:10599000ABE72298984201DC012000E00020139040
:1059A0002198884201DB012100E0002101200090C4
:1059B00013981291084000EA0A0010EA0B0F04D075
:1059C0002798322801DA00200090012000998DF8F4
:1059D00038001AEA010F0ED0ADF80490ADF8088037
:1059E0006088ADF8060070880AA9401EADF80A006C
:1059F00029980DF055FC00991BEA010F0ED0ADF867
:105A00000490ADF80880F0880AA9401CADF80600A3
:105A1000E088ADF80A0029980DF042FC139878B19F
:105A20002088ADF804003088ADF80670401EADF84F
:105A300008000598ADF80A000AA929980DF030FC75
:105A4000129878B1B0880AA9401CADF80400A0886B
:105A5000ADF808000598ADF80670ADF80A00299871
:105A60000DF01EFC0098C0B1BDF92400BDF9201056
:105A7000A9F10102ADF80410904200DB1046ADF828
:105A80000800401A401C05B2002D70DD139850EA42
:105A90000A0066D0BDF9224061E0BDF82000ADF8F3
:105AA0000400BDF82400ADF80800B6F90200B4F90E
:105AB0000210401AA84200DB05460FFA85F80025BF
:105AC00033E06088284406B2E088401B07B2BDF985
:105AD0002200B04203DDBDF92600B84224DB049960
