:020000040800F2
:1000000000070020CD0100088316000843100008F7
:1000100081160008F3020008A11F0008000000007C
:10002000000000000000000000000000751700083C
:10003000F502000800000000851600087717000888
:10004000E7010008E7010008E7010008E7010008F0
:10005000E7010008E7010008E7010008E7010008E0
:10006000E7010008E7010008E7010008E7010008D0
:10007000E7010008E7010008E7010008E7010008C0
:10008000E7010008E7010008E7010008E7010008B0
:10009000E7010008E7010008E7010008E7010008A0
:1000A000E7010008E7010008E7010008E701000890
:1000B000E7010008E7010008E7010008E701000880
:1000C000E7010008E7010008E7010008E701000870
:1000D000E7010008E7010008E7010008E701000860
:1000E000E7010008E7010008E7010008E701000850
:1000F000E7010008E7010008E7010008E701000840
:10010000E7010008E7010008E7010008E70100082F
:10011000E7010008E7010008E7010008E70100081F
:10012000E7010008E7010008E7010008E70100080F
:1001300000F002F800F03AF80AA090E8000C8244BF
:100140008344AAF10107DA4501D100F02FF8AFF29C
:10015000090EBAE80F0013F0010F18BFFB1A43F0A5
:10016000010318476C4D00008C4D0000103A24BF6D
:1001700078C878C1FAD8520724BF30C830C144BF0C
:1001800004680C607047000000230024002500264E
:10019000103A28BF78C1FBD8520728BF30C148BFEA
:1001A0000B6070471FB51FBD10B510BD00F06CF897
:1001B0001146FFF7F7FF01F005FF00F08AF803B4DE
:1001C000FFF7F2FF03BC00F08DF8000009488047FC
:1001D00009480047FEE7FEE7FEE7FEE7FEE7FEE729
:1001E000FEE7FEE7FEE7FEE704480549054A064B41
:1001F00070470000D91700083101000800010020F5
:100200000007002000030020000300204FF0000240
:1002100000B5134694469646203922BFA0E80C50FC
:10022000A0E80C50B1F12001BFF4F7AF090728BFD7
:10023000A0E80C5048BF0CC05DF804EB890028BF53
:1002400040F8042B08BF704748BF20F8022B11F07C
:10025000804F18BF00F8012B7047704770477047F8
:1002600010B500F009F8006810BD10B5044600F0A4
:1002700003F8046010BD0000004870479C00002097
:10028000004870479C0000207546FFF7F9FFAE4616
:1002900005006946534620F00700854618B020B592
:1002A000FFF7A2FFBDE820404FF000064FF0000727
:1002B0004FF000084FF0000B21F00701AC46ACE80E
:1002C000C009ACE8C009ACE8C009ACE8C0098D467B
:1002D000704710B50446AFF300802046BDE81040DB
:1002E000FFF76DBF01491820ABBEFEE726000200F4
:1002F0007047FEE7704700002DE9FF4F83B090463E
:100300000E460746002514464FE000BF381BA6EBFB
:10031000050902901FFA89F180B2069A00F0FDFEED
:10032000381901901FFA89F180B2069A00F0F5FEA3
:10033000301981B2A7EB050900901FFA89F0069ADF
:1003400000F0EBFEA6EB040B1FFA8BF11FFA89F00D
:10035000069A00F0E2FE019806EB050A1FFA8AF100
:1003600080B2069A00F0D9FE07EB05091FFA8BF15F
:100370001FFA89F0069A00F0D0FE0098069A81B222
:100380001FFA89F000F0C9FE02981FFA8AF180B2C4
:10039000069A00F0C2FE6D1C05FB05F004FB04018B
:1003A00008FB08F0814200DD641EA542AEDD07B007
:1003B000BDE8F08F72B6FEE770B5044600F014F9A0
:1003C0000546601C02D004480078044400F00CF993
:1003D000401BA042FAD370BD000000202DE9F84F69
:1003E000DFF8C8910024A9F1040B23460F2709F177
:1003F000040AABF1040ED1E00125A54006EA05028E
:10040000AA4276D1DFF8A8C14E68A6EB0C08664573
:100410002BD00DDC032E34D005DC36B3012E19D0E1
:10042000022E2FD11BE0112E16D0122E2AD119E048
:10043000B8F5881F19D006DCB8F5803F15D0B8F59F
:10044000801F1FD111E0B8F5001F0ED0B8F5041FB2
:1004500018D10AE0CB6815E0CB681B1D12E0CB6811
:1004600008330FE0CB680C330CE08B682BB1012B09
:100470004FF0080303D0456104E0042302E0056166
:1004800000E00023FF2A01D8064601E000F104063F
:100490004FEA840501D9A5F12005D6F8008007FAB6
:1004A00005FC28EA0C0803FA05F548EA0508C6F831
:1004B00000804D68ED0070D53E4DAE6946F00106F6
:1004C000AE61AD6924F0030605F0010500953A4DD3
:1004D00006EB050CDCF80850A607360F07FA06F8FD
:1004E00025EA0805DFF8D480404503D14FF0000825
:1004F00025E052E0DFF8C880404502D14FF0010806
:100500001DE0DFF8C080404502D14FF0020816E040
:10051000DFF8B480404502D14FF003080FE0DFF868
:10052000AC80404502D14FF0040808E0DFF8A0801D
:10053000404502D14FF0050801E04FF0060808FAE7
:1005400006F848EA0508CCF808804D68D9F800603C
:10055000ED024D4601D5164300E096432E604D68EE
:10056000DAF80060AD02554601D5164300E0964327
:100570002E604D68DBF80060AD035D4601D5164383
:1005800000E096432E604D68DEF80060ED0375468E
:1005900001D5164300E096432E60641C0A68164697
:1005A000E2407FF429AFBDE8F88F00000804014065
:1005B000000011100010024000000140000801403E
:1005C000000C0140001001400014014000180140DF
:1005D000001C01408068084000D0012070470AB12B
:1005E000016170470904FBE701488068704700001B
:1005F0000000002002488168027811448160704741
:1006000000000020074810B5016841F010010160AA
:10061000032000F067F80F2000F006F800F024F83F
:10062000002010BD0020024070B50D4D04464FF46F
:100630007A712878B1FBF0F00A490968B1FBF0F053
:1006400000F0EBFC48B9102C07D200222146501EC6
:1006500000F028F800206C6070BD012070BD000023
:10066000000000200C0000200C4808B5816941F012
:1006700001018161816901F001010091C16941F0CD
:100680008051C161C06900F0805000900448416809
:1006900021F0E06141F00071416008BD00100240AE
:1006A00000000140F0B40E4B1B680C46C3F302235C
:1006B000C3F10705042D00D90425191D072901D20E
:1006C000002300E0DB1E012606FA05F1491E214049
:1006D00099409E40761E16403143F0BC01F061BC4B
:1006E0000CED00E0064900F0070208684FF6FF0332
:1006F000184040EA0220034A104308607047000097
:100700000CED00E00000FA052DE9F0470F4605006A
:1007100061D0434E306800F00700B84209D230681B
:1007200020F0070038433060306800F00700B8421E
:1007300051D128683B4C810712D5400703D560682A
:1007400040F4E06060602878000703D5606840F4FA
:10075000605060606068A96820F0F0000843606045
:100760002878C00728D06868012810D0216802289E
:1007700010D0890700292EDA616821F003010143B6
:100780006160FFF731FF804641F288390DE0216852
:100790008903EFE78901EDE7FFF726FFA0EB0801EA
:1007A000494502D90320BDE8F0876068696800F018
:1007B0000C00B0EB810FEFD1306800F00700B842B9
:1007C0000BD9306820F0070038433060306800F003
:1007D0000700B84201D00120E5E72878400705D599
:1007E0006068E96820F4E0600843606028780007EA
:1007F00006D56068296920F4605040EAC100606055
:1008000000F018F86168084AC1F30311515CC84050
:100810000649086006480068FFF706FF0020C2E7A7
:100820000020024000100240682C00080C0000204C
:10083000040000200E4A51680E4801F00C03042BFE
:1008400011D0082B0FD10C48C1F38343C903C05CFE
:100850000AD55168084AC1F34041921E515C054ACD
:100860005043B0FBF1F07047044948437047000023
:100870000010024000127A00582C000800093D00C8
:100880002DE9F84F040070D02078C04DC00749D042
:100890006868C0F38100012807D06868C0F3810050
:1008A000022809D16868C00306D52868800339D5B5
:1008B00060680028E7D035E06068B0F5803F0BD075
:1008C00010B1B0F5A02F11D0286820F48030286036
:1008D000286820F4802002E0286840F480302860F6
:1008E000606890B1FFF780FE06460AE0286840F491
:1008F00080202860F0E700BFFFF776FE801B6428A9
:1009000073D828688003F7D50CE0FFF76DFE064624
:1009100005E000BFFFF768FE801B6428F0D8286858
:100920008003F7D420789A4E80074FF001094FF0EA
:10093000000839D5686810F00C0F07D06868C0F35C
:100940008100022809D16868C00306D4286880079E
:1009500014D52069012808D110E02069B0B1C6F88B
:100960000090FFF741FE074605E00AE1FFF73CFE75
:10097000C01B0228C4D828688007F7D52868616999
:1009800020F0F80040EAC10028600DE0C6F80080C1
:10099000FFF72AFE074604E0FFF726FEC01B0228E9
:1009A00023D828688007F7D4207800072CD5794809
:1009B000A169D9B1C0F80090FFF716FE074604E020
:1009C000FFF712FEC01B02280FD8686A8007F7D510
:1009D00071484FF4FA510068B0FBF1F0009000BF8D
:1009E0000098411E0091FAD20EE080E0C0F800802D
:1009F000FFF7FAFD074604E0FFF7F6FDC01B0228EB
:100A000075D8686A8007F7D42078400760D5E86910
:100A10000027C00008D4E86940F08050E861E86928
:100A2000012700F0805000905C480168C90513D48C
:100A30000168834641F480710160FFF7D5FD82466D
:100A400006E000BFFFF7D0FDA0EB0A0064284ED8F7
:100A5000DBF80000C005F5D5E06801280AD008B130
:100A6000052813D0286A20F001002862286A20F0A7
:100A7000040002E0286A40F001002862E06841F2C8
:100A8000883B98B1FFF7B0FD82460BE0286A40F042
:100A900004002862EEE700BFFFF7A6FDA0EB0A0105
:100AA00059455AD8286A8007F6D50CE0FFF79CFD17
:100AB000824605E0FFF798FDA0EB0A0159454CD8A6
:100AC000286A8007F6D41FB1E86920F08050E861F9
:100AD000E06988B36968C1F38101022944D0022822
:100AE000C6F8608004D0FFF77FFD044638E034E0AC
:100AF000FFF77AFD074604E0FFF776FDC01B0228EA
:100B00002BD828688001F7D4206AB0F5803F05D142
:100B10006868A16820F4003008436860D4E90801DF
:100B20000843696821F4741108436860C6F860904E
:100B3000FFF75AFD044606E025E000BFFFF754FD2D
:100B4000001B022809D828688001F7D51BE000BFE8
:100B5000FFF74AFD001B022802D90320BDE8F88FE9
:100B600028688001F4D40EE00128F7D06868226A72
:100B700000F48031914204D1616A00F4701088421F
:100B800001D00120EAE70020E8E700000010024061
:100B900000004242800442420C00002000700040ED
:100BA00070B5040009D0606A002540B12561656117
:100BB000A56294F8510040B10CE0012070BD60685E
:100BC000B0F5827FF4D0E561F2E784F8505020461A
:100BD00000F040F8022084F851002068016821F0FC
:100BE00040010160A088218900F4827001F4044171
:100BF0000843A18901F400610843217C01F002014E
:100C00000843217D01F001010843218B01F40071AB
:100C10000843217F01F03801084394F8201001F0C7
:100C200080010843218D01F40051084321680860C8
:100C3000A069042101EA1040216848602068C16968
:100C400021F40061C1616565012084F85100002034
:100C500070BD000030B585B000240094019402946A
:100C6000039400681449884223D11448816941F4EF
:100C700080518161816901F480510491816941F061
:100C80000401816180690E4D00F004000490A020F1
:100C90000090022001900320039069462846FFF748
:100CA0009DFB4020CDE90004694628460294FFF7E9
:100CB00095FB05B030BD000000300140001002403F
:100CC000000801402DE9F84F984616468A4604462A
:100CD000FFF78AFC814694F8510001281ED1BAF131
:100CE000000F73D0002E71D094F85000012815D059
:100CF000012784F85070032084F8510000256565B1
:100D0000C4F830A0A686E686A563A587E587656456
:100D10002564A068B0F5004F03D00CE00220BDE8C8
:100D2000F88F2068016821F04001016020680168A7
:100D300041F48041016020680168490603D40168DC
:100D400041F040010160E068B0F5006F606803D0D9
:100D500048B3012E27D047E008B1012E1FD1206BE8
:100D600021680088C86006E020688168890709D585
:100D7000216B0988C160206B801C2063E08E401EBF
:100D8000E0860CE0FFF730FCA0EB0901414503D3FE
:100D9000B8F1FF3F03D035E0B8F1000F32D0E08E5C
:100DA0000028E1D123E0206B21680078087306E079
:100DB0002068816889070AD5216B09780173206B47
:100DC000401C2063E08E401EE0860DE02BE0FFF724
:100DD0000BFCA0EB0901414503D3B8F1FF3F03D061
:100DE00010E0B8F1000F0DD0E08E0028E0D14A46A7
:100DF0004146204600F047FC08B120206065A0680D
:100E000030B109E084F8517084F85050032086E72F
:100E10002068C1688068009084F8517004F8505FC1
:100E200060680028F3D0012079E72DE9FF4F81B0F9
:100E30001D46934604464FF001090E9EFFF7D4FB72
:100E4000074694F851006168012806D0B1F5827F09
:100E50003CD1A168C9BB042838D10298002871D0C0
:100E6000BBF1000FFBD0002DF9D094F85000012801
:100E70002CD04FF0010A84F850A094F851000428B7
:100E800002D0052084F851004FF00008C4F85480C7
:100E9000C4F838B0E587A58702992163E586A58661
:100EA000C4F84080C4F8448020680168490603D42F
:100EB000016841F040010160E068B0F5006F6068D2
:100EC00008D0F0B3012D49D081E0FFE7022005B042
:100ED000BDE8F08F08B1012D39D1206B2168008861
:100EE000C860206B801C2063E08E401EE0862EE0F0
:100EF0002068816889070FD5E18E69B1B9F1010FCA
:100F00000AD1216B0988C160206B801C2063E08EB0
:100F1000401EE0864FF0000920688168C9070CD0A8
:100F2000E18F51B1C068A16B0880A06B801CA063E9
:100F3000E08F401EE0874FF00109FFF755FBC01B13
:100F400001E00BE067E0B04201D3701C50D1E08EAD
:100F50000028CDD1E08F0028CAD13EE0206B216867
:100F600000780873206B401C2063E08E401EE086F2
:100F70002DE02068816889070FD5E18E69B1B9F14C
:100F8000010F0AD1216B09780173206B401C20638B
:100F9000E08E401EE0864FF0000920688168C90796
:100FA0000CD0E18F51B1C068A16B0870A06B401CE0
:100FB000A063E08F401EE0874FF00109FFF714FBAC
:100FC000C01BB04202D3701C01D011E086B1E08E8C
:100FD0000028CED1E08F0028CBD13A4631462046BA
:100FE00000F051FB50B12020606584F8508012E081
:100FF00084F851A084F85080032068E7A06818B9ED
:101000002068C1688068009084F851A084F85080FE
:10101000606D0028F1D0012059E710B5401EB0F1F5
:10102000807F01D3012010BD4FF0E02460610F21CB
:10103000601700F0B6FF0020A061072020610020AB
:1010400010BDFEE72DE9F04104461D4616460F4649
:101050002A2000F085FA204600F078FA304600F0A9
:1010600075FA2B2000F07CFA384600F06FFA28461B
:1010700000F06CFABDE8F0412C2000F071BA2DE9C7
:10108000FE4F151ACDE900104FF000085E1A4746D2
:101090004FF0FF30002D02DD4FF0010102E003D1DF
:1010A0004FF000018B4602E08346C5F10005002E9B
:1010B00002DD4FF0010002E003D14FF00000824654
:1010C00002E08246C5F10006B54201DD2C4600E093
:1010D0003446601C4FF00009029019E000980C9A09
:1010E00081B2019880B200F018F8A8443744A045B6
:1010F00004DD0198A8EB040858440190A74203DDE1
:1011000000983F1B5044009009F101001FFA80F93C
:1011100002998945E2DBBDE8FE8F10B514460B4607
:101120000246FFF78FFF2046BDE8104000F00EBAE0
:101130002DE9FE4F161ACDE900104FF000085D1A98
:1011400047464FF0FF30002E02DD4FF0010102E074
:1011500003D14FF000018B4602E08346C6F1000642
:10116000002D02DD4FF0010002E003D14FF000003E
:10117000824602E08246C5F10005AE4201DD3446FA
:1011800000E02C46601C4FF00009029019E0009826
:101190000C9A81B2019880B200F072FDB0442F44E5
:1011A000A04504DD0198A8EB040858440190A7422B
:1011B00003DD00983F1B5044009009F101001FFA25
:1011C00080F902998945E2DBBDE8FE8F2DE9F04701
:1011D000141A5D1A5B1E521E01266C439BB292B21A
:1011E000FFF730FFDFF84C90002208214846FFF758
:1011F000F6F94FF6FE784546AC4204D90027A4F52F
:101200007F44FE3C03E000262546374606E0642383
:10121000022208A90848FFF755FD7F1CAF42F6D30C
:10122000002EE8D14846BDE8F04701220821FFF72B
:10123000D6B90000000801404400002010B5644CFD
:10124000002201212046FFF7CAF96420FFF7B4F815
:10125000012211462046FFF7C2F96420FFF7ACF8DF
:10126000012204212046FFF7BAF96420FFF7A4F811
:10127000112000F075F97820FFF79EF8F02000F0BB
:101280006FF9C32000F080F9F02000F069F9962092
:1012900000F07AF9362000F063F9482000F074F984
:1012A0003A2000F05DF9052000F06EF9E82000F02A
:1012B00057F9402000F068F9822000F065F9072016
:1012C00000F062F9182000F05FF9272000F05CF9C7
:1012D0000A2000F059F9B62000F056F9332000F04A
:1012E00053F9C52000F03CF9272000F04DF9C22049
:1012F00000F036F9A72000F047F9E02000F030F9BF
:10130000F02000F041F9012000F03EF9062000F045
:101310003BF90F2000F038F9122000F035F91D20BC
:1013200000F032F9362000F02FF9542000F02CF9AB
:10133000442000F029F90C2000F026F9182000F0D4
:1013400023F9162000F020F9132000F01DF91520D4
:1013500000F01AF9E12000F003F9F02000F014F990
:10136000012000F011F9052000F00EF90A2000F02C
:101370000BF90B2000F008F9072000F005F93220E6
:1013800000F002F9442000F0FFF8442000F0FCF8DF
:101390000C2000F0F9F8182000F0F6F8172000F003
:1013A000F3F8132000F0F0F8162000F0EDF8F0202C
:1013B00000F0D6F83C2000F0E7F8F02000F0D0F87C
:1013C000692000F0E1F8BDE81040292000F0C8B81D
:1013D000000801402DE9FF4F81B00446DDE90F7B95
:1013E0004FEA570800904FEAD80000FB07FA203A6E
:1013F000D0B20390029802993844401E83B204EBA5
:101400000800401E82B22046FFF71CFE002637E08F
:10141000102F24D0202F35D11C49039801EB8010C8
:101420005FF0000510F80690BBF1000F4FF00100CF
:1014300000FA05F000EA090016D020B12046049A0F
:101440000299FFF76AFE641C0098A4B2211A414574
:1014500010D10298009C401C80B202900EE00C4912
:10146000039801EB0010DBE708B1049800E00E9848
:1014700000F06CF86D1CEDB2082DD5D3761CB6B219
:101480005645C5D305B0BDE8F08F000068320008AE
:10149000782C00082DE9FF4F83B00026DDE911B854
:1014A0001D4682464FEA58073446B1462CE0281BB9
:1014B000401EC1B20A2000F02FFE0599B1FBF0F0EA
:1014C0000A21B0FBF1F201FB120026B9691E8C4221
:1014D00001DA58B101263030C2B204FB07A0CDF8C2
:1014E00000B0CDE9018980B2109B08E0CDF800B0D2
:1014F00004FB07A0CDE90189109B80B2202204994A
:10150000FFF768FF641CE4B2AC42D0D307B0BDE87B
:10151000F08F2DE9FE4F9946DDE90D6714468A46A6
:101520000546DDF830800CE0CDF800804B46514692
:101530002846CDE90167FFF74DFF05EB560085B260
:10154000641C2278002AEFD1BDE8FE8F10B5044656
:10155000000A00F019F8E0B2BDE8104000F014B83D
:1015600070B5084C0546002202212046FFF737F8E7
:10157000284600F009F82046BDE87040012202210B
:10158000FFF72DB80008014031B5094C00220821B1
:101590002046FFF724F86423012269460548FFF737
:1015A00091FB012208212046FFF719F838BD000001
:1015B0000008014044000020F0B585B000251B481C
:1015C0000095019502950395816941F004018161BF
:1015D000816901F004010491816941F00801816190
:1015E0008069134F00F00800049001221F21384643
:1015F000FEF7F5FF012401AA0226009482E870009C
:1016000069463846FEF7EAFE1E20CDE90004CDE922
:10161000024669463846FEF7E1FECDE900456946D7
:1016200004480295FEF7DAFE05B0F0BD0010024056
:1016300000080140000C0140104810B50E4901603F
:101640004FF48271416000218160C1604FF40072EB
:101650000161C0E905120822C0E9072141628162E7
:101660000A21C162FFF79CFA002803D0BDE81040B0
:10167000FEF7A0BE10BD0000003001404400002075
:10168000FEE7FEE77047F8B515460E460B4600929A
:1016900004460122022100F011F840B9334600222D
:1016A00080212046009500F009F8002804D0606DE4
:1016B00040F0200060650320F8BD00002DE9F843EC
:1016C0001E46914688460446089DFEF78DFF401B46
:1016D000351AFEF789FF074625480068C0F3CB306E
:1016E000684338E0701C37D0FEF77EFFC01BA8426D
:1016F00003D215B1009860B32CE02068416821F056
:10170000E00141606068B0F5827F0BD1A068B0F560
:10171000004F02D0B0F5806F04D12068016821F03D
:1017200040010160A06AB0F5005F09D1206801683E
:1017300021F4005101602068016841F4005101600A
:10174000012084F85100002084F850000320BDE8F7
:10175000F8830025401E00902068816838EA010067
:1017600004D000214945BDD10020F0E70121F9E76F
:101770000C0000207047FEF73DBF30B58FB0282128
:101780006846FEF743FD14210AA8FEF73FFD01213C
:101790000804CDE900100024029402250491CDE94B
:1017A00007504FF4E01009906846FFF769F808B158
:1017B00072B6FEE70F20CDE90A054FF48060CDE94F
:1017C0000C4002210AA80E94FEF79EFF002801D0CB
:1017D00072B6FEE70FB030BD704700002DE9F04F44
:1017E00089B000254FF6FF7844464FF4F0734FF46C
:1017F000A07229462846CDF80080FFF7E7FC4FF09D
:10180000100ACDE9004AA9464FF4784B4E46CDF870
:1018100008905C465B46E4A228210520FFF779FE8C
:1018200014212246084600F045FAE74C012784F8C7
:10183000206066624FF0663661680120884794F840
:101840002000B7EB901FF7D120F0400084F8200073
:1018500003A8A18920F8251000EB85006D1CE18A02
:10186000EDB24180012D7DD0022D7CD0032D7BD0A7
:10187000042DE1D1BDF80C00BDF81010401A00D5C0
:101880004042BDF80E10BDF81220891A00D5494219
:10189000404301FB010000F0A6FC00F045FC00F015
:1018A00075FC80B20290BDF81400BDF81810401A03
:1018B00000D54042BDF81610BDF81A20891A00D58F
:1018C0004942404301FB010000F08DFC00F02CFC7C
:1018D00000F05CFC80B2079000F0EEFF0546029835
:1018E00000F0EAFF294600F0D1FE00F03BFE05467D
:1018F0003246B64B019100F089FC76D3B44AB54B21
:101900002846019900F012FD6FD3029800286CD090
:101910000798002869D0BDF80C00BDF81410411AD2
:1019200000D54942BDF80E00BDF81620801A00D53A
:10193000404249434043084400F055FC00F0F4FBAA
:1019400000F024FC80B20290BDF81000BDF8181021
:10195000401A00D54042BDF81210BDF81A20891A6D
:1019600004D502E01FE026E033E04942404301FB9A
:10197000010000F038FC00F0D7FB00F007FC80B25B
:1019800000F09AFF0546029800F096FF294600F005
:101990007DFE00F0E7FD054632468C4B019100F0DC
:1019A00035FC48D221E014214246084600F082F975
:1019B0005A46142116E0424614214FF4967000F066
:1019C00079F95A464FF4E6715FF0140000F072F9AD
:1019D00032E742464FF4E671142000F06BF95A46A4
:1019E0004FF4E6714FF49670F0E7002542464FF44D
:1019F000E6714FF4967000F05DF914215A460846DE
:101A000000F058F9CDE9008A5B4673A22821052031
:101A1000CDF80890FFF77DFDCDE9008A5B4676A200
:101A20003C210520CDF80890FFF773FD4FF47A7044
:101A3000FEF7C2FC00E7664A664B2846019900F0B3
:101A400075FCD2D3BDF81000BDF81410401A00D5B3
:101A50004042BDF81210BDF81620891A00D549423F
:101A6000404301FB010000F0BEFB00F05DFB00F015
:101A70008DFB80B20290BDF80C00BDF81810411A21
:101A800000D54942BDF80E00BDF81A20801A00D5D5
:101A9000404249434043084400F0A5FB00F044FBAA
:101AA00000F074FB80B200F007FF0546029800F0DA
:101AB00003FF294600F0EAFD00F054FD05463246DA
:101AC000424B019100F0A2FB8FD3414A414B284683
:101AD000019900F02BFC88D3BDF81070BDF80C60A4
:101AE000B81B00F0D1FE01464B4800F0CFFD054683
:101AF0006062B81900F0E0FE294600F0F1FE4749A7
:101B000000F0BAFF4FF0FF3101F067F800F080FEFF
:101B1000A085BDF81670BDF80E60B81B00F0B4FECD
:101B200001463F4800F0B2FD0546A062B81900F03A
:101B3000C3FE294600F0D4FE3A4900F09DFF4FF065
:101B4000FF3101F04AF800F063FEE0854546424669
:101B50004FF4E6714FF4967000F0ACF80095CDE9C3
:101B600001A94C4656465F465B462FA22821052018
:101B7000FFF7CFFC0095CDE901643B4632A23C2142
:101B80000520FFF7C6FC4FF47A70FEF715FC0095B0
:101B9000CDE901643B4634A228210520FFF7B9FCBA
:101BA00009B0BDE8F08F0000506C6561736520617D
:101BB000646A7573746D656E7420746865207363F0
:101BC0007265656E2E000000140000206666EE3F10
:101BD000CDCCCCCCCCCCF03F546F75636820416445
:101BE0006A7573742046696C65642120202020206A
:101BF0002020202020000000506C6561736520418A
:101C0000646A75737420416761696E212020202009
:101C1000202020202000000000008C430000A04372
:101C20000000DC430000F043546F75636820536389
:101C30007265656E2041646A757374204F4B212074
:101C400020202020200000002020202020202020F4
:101C50002020202020202020202020202020202084
:101C600020202020200000002020202020202020D4
:101C70002020202020202020202020202020200084
:101C80002DE9F04117460C460646FFF746FA751C4B
:101C9000A8B23A462146FFF740FA641CA1B23A4680
:101CA0003046FFF73AFAA1B2A8B23A46BDE8F04191
:101CB000FFF733BA2DE9F843054616460D3000927A
:101CC00082B2A5F10C000C4680B20B46FFF7D7F9A3
:101CD00004F10D0083B2193881B22A4610460096ED
:101CE000FFF7CDF9671C05F10109B9B21FFA89F0B8
:101CF0003246FFF712FAA5F10108B9B21FFA88F0CF
:101D00003246FFF70AFA671EB9B21FFA89F0324667
:101D1000FFF703FAB9B21FFA88F03246FFF7FDF970
:101D200001B0334621462846BDE8F0430622FEF7BF
:101D3000E3BA000006480549064A41626FF009010E
:101D400081858262C185002070470000E50A2F3E30
:101D500014000020AC19813E3EB50F4C0546002210
:101D600010212046FEF73BFC284600F00FF900202A
:101D7000019064200090022302AA01A90748FFF7FE
:101D800054F8BDF80800012241BA0D09102120467F
:101D9000FEF725FC28463EBD000801404400002017
:101DA000FEB5064600256C463046FFF7D5FF24F801
:101DB00015006D1CADB2052DF6D30020431C99B261
:101DC0000CE000BF34F8102034F81150AA4203D9B7
:101DD00024F8105024F81120491C89B20529F1D3A8
:101DE00098B20428EAD300215FF0010034F81020F3
:101DF000401C114480B289B20428F7D30320B1FB00
:101E0000F0F0FEBD2DE9F041074C06460D46207866
:101E1000FFF7C6FF07466078FFF7C2FF37802880CC
:101E20000120BDE8F0810000100000202DE9FF41F5
:101E3000284C06460D46206801684FF6C7773940A2
:101E400001602068016841F020010160694602A834
:101E5000FFF7D8FF002838D001A903A8FFF7D2FF69
:101E6000002832D02068016839400160206801688C
:101E700041F008010160BDF80C00BDF80820904257
:101E800003D800F132018A4205D3824220D802F100
:101E9000320188421CD2BDF80430BDF800108B42DC
:101EA00003D803F13204A14204D3994210D832314D
:101EB0008B420DD2104440083080BDF80000BDF8C0
:101EC0000410084440082880012004B0BDE8F081D7
:101ED0000020FAE74400002070B50546012129489A
:101EE000FEF778FB284C40B194F8200001063DD560
:101EF00020F0800084F820003FE0234800F1160124
:101F00000C3015B1FFF792FF24E0FFF78FFF08B305
:101F1000B4F92C0000F0B8FC0546A08900F0CCFC18
:101F2000616A00F0DDFC294600F048FB00F08CFC03
:101F3000A081B4F92E0000F0A7FC0546E08A00F06D
:101F4000BBFCA16A00F0CCFC294600F037FB00F096
:101F50007BFCE08294F8200000060ED4C02084F8B8
:101F60002000A089A082E08AE08306E00020A08211
:101F7000E0834FF6FF70A081E08294F8200000F02B
:101F8000800070BD000C01401400002001B56423E6
:101F9000012269460148FEF795FE08BD4400002075
:101FA000FEE70907090E002804DB00F1E02080F8B5
:101FB0000014704700F00F0000F1E02080F8141DBD
:101FC000704700000EB5FEF71DFBFFF7D6FBFFF7CD
:101FD000F3FAFFF731FBFFF731F94FF6FF754FF4D6
:101FE000F0764FF4A077002133463A460846009534
:101FF000FFF7ECF8002165F30F0433463A46084634
:102000000095FFF7E3F8FFF795FE4FF0000B102760
:102010004FF478488DE8A0084FF4DC7A46464346F2
:102020003AA251460A20FFF774FA10200096CDE933
:1020300001500323002251461A20FFF72BFA1021EA
:10204000CDE900514FF4E679334631A2CDF808B01E
:1020500049460A20FFF75DFA10200096CDE90150AD
:102060000323002249461A20FFF714FA294E0020C4
:102070007168884796F820000006F8D50120FEF721
:102080009BF9B289501EB0F59F7FF0D2F38A581E9B
:10209000B0F5EF7FEBD2A0B2A84203D162F30F04F8
:1020A00063F31F441F200090210CA0B2FFF740F8FB
:1020B000B089D94660F30F04F08A8DE8A00260F37E
:1020C0001F44434611A251460A20FFF722FACDF8D9
:1020D0000080CDE90157B289032351461A20FFF74A
:1020E000D9F98DE8A0024FF4E679434608A24946A3
:1020F0000A20FFF70EFACDF80080CDE90157F28AE9
:10210000032349461A20FFF7C5F9B0E7583A000003
:10211000593A0000140000200246012000E050431C
:10212000491EC9B2FBD270472DE9F04106460F4661
:1021300000F032F9041E0D4618BF0120284320F09C
:102140000040C0F17F6000F1E040C00F0ED0301CB5
:1021500018BF0120384320F00040C0F17F6000F13B
:10216000E040C00F04BF0120FEF77FF8204629465B
:10217000BDE8F081491058BFC1F140415B1058BF24
:10218000C3F140438B42EFF3008070474FEA115395
:10219000A3F58063D3F11E03A8BFD3F1200C08DBA5
:1021A0004FF0004242EAC12252EA505232FA03F0A2
:1021B000704709420BD4102BC4BF0020704703F5B1
:1021C000787CBCF1FF3F05D04FF0FF3070474FF0F7
:1021D0000000704770B500F055F800BF49922480A8
:1021E00000207047F0E7B0FA80F310FA03F10AD04C
:1021F000C3F11D0303F580634FEA41504FEA0352D8
:1022000002EBD12170474FF00000704751EA030CF8
:1022100017D41CF5801F58BFBCF5801F00F1068045
:10222000994218BF704708BF9042704707D711F511
:10223000801F58BF13F5801F19D4994270478942F7
:1022400070471CF5801F08D5BCF5801FF7D58B4261
:1022500018BF704708BF824270474FF4001C1CEB48
:10226000410F38BF1CEB430F01D28B42704770B552
:1022700000F008F8922449004FF000514FF08053CD
:10228000FFF778BF0EF1020E2EF0030E5EF8046B1E
:10229000364205D4012A43EB030515F5001F12D879
:1022A000012841EB010C1CF5001F0CD80ED14FEAA0
:1022B000D17C15F5001F0CEB4C0C0CF1020C08BF87
:1022C0004CEBD37C04E04FF0080C01E04FEAD37CE8
:1022D0000CEB4C0526FA05F606F00706B6F1040CE1
:1022E00006D20EEB860CBDE870404CF0010C604746
:1022F000DFE80CF0090B02024FF000414FF0000044
:10230000A1F5002170BD19461046012851EB0104CA
:1023100018BFD4F5001484BF002001F0004170BD47
:102320000808A0F500114FEA3101704753EA010C8B
:1023300017D41CF5801F58BFBCF5801F00F1068024
:102340008B4218BF704708BF8242704707D713F50A
:10235000801F58BF11F5801F19D48B4270479B42D4
:1023600070471CF5801F08D5BCF5801FF7D5994232
:1023700018BF704708BF904270474FF4001C1CEB19
:10238000430F38BF1CEB410F01D2994270470FB485
:102390000CBC03BCFFF76BBF2DE9F04101F5801CBD
:1023A000BCF5001FC0F2C3804FEA115C21EA0C515A
:1023B0000CF1FD0C41F480115FEA5C0C0CF5C07C63
:1023C00001D3400049413DA4890241EA905187026E
:1023D0008E0E0A0CA45D04FB04F602FB06F6C6F1A1
:1023E0004046A4FB0662F60D46EA422606FB06F4CA
:1023F000A4FB01235242C3F1404338BF5B1EA6FB3E
:1024000002420024E6FB0324D20B42EA4446A6FB28
:102410000623A1FB02E2A3FB07E4A4184FF000028D
:1024200052F10002E3FB01426442C2F1404E38BF68
:10243000AEF1010EA6FB04234FF00002E6FB0E32C4
:10244000A2FB03464FF00004B61954F10004E2FB6E
:102450000264A1FB06E6A4FB07E816EB08064FF0B2
:10246000000858F10008E4FB01687642C8F14058C2
:1024700038BFA8F10108A2FB06E4A3FB08E52D196B
:102480004FF0000454F10004E2FB0854A1FB05E600
:10249000A7FB04E818EB06084FF0000656F100060B
:1024A000E1FB048618F1200556F10006A809A8F101
:1024B0001B08B10908F03F08B8F10A0F40EA86602E
:1024C0001CD901EB0C51BDE8F08100BFFCF5EEE832
:1024D000E2DDD8D3CFCBC7C3C0BDB9B6B4B1AEACC3
:1024E000A9A7A5A3A19F9D9B9A9896959392908F3B
:1024F0008D8C8B898887868584838281A0FB006888
:1025000000FB01F208EB4208B8EB872807D5341826
:1025100058EB0104D5D5401C51F10001D1E7341A24
:1025200078EB0104CDD4401E71F10001C9E75FEAE8
:102530004C0C5FEA9C5C0DD105D34FF0000001F01C
:102540000041BDE8F081BDE8F04170B5FFF79AFEAB
:102550006DDBFFBEBDE8F0414FF000000049704761
:102560000000F87F43004FEAD30C4FEA3C0C434095
:102570001FBF40070CF1605113F0FE4F70471CF075
:10258000006F03D100200CF0004170470CF00043B5
:1025900043EA507010B540EACC0000F022FA00BFC8
:1025A000000000924FEA0001FFF7BABE4FF0004171
:1025B0004FF00000A1F500217047000090EA010FE4
:1025C00048BF81F0004100F16882421A3CBF801A86
:1025D00089184FEAD0524FF07F4C1CEA410FA2EB12
:1025E000D15318BF9CEA026F00F03B804FF0004CC3
:1025F0004CEA00204CEA012121FA03FC10EB0C0C00
:102600001ED202F1FF325FEA1C2040EBC25038BFFD
:1026100070471CF07F0F4FEA400C18BFBCF17F4F92
:1026200038BF7047C3F12003994008BF20F0010074
:10263000BCF17F4F38BF7047A0F1C04000F017BA1F
:102640004FEA3C00000A40EBC25028BF1CF0FF0FCD
:102650004FEA400CE6D018BFBCF17F4F38BF70473F
:10266000EAE79CEA026F05D010EA5C0F08BF00F0B1
:102670000040704710B500F0B4F900BF64FBBE3EE7
:10268000014800F078BA00BF0000C07F4FF47F0C13
:102690001CEAD0121EBF1CEAD11392EA0C0F93EA77
:1026A0000C0F00F0858090EA010F48BF42F4807261
:1026B00040F4000C41F400002CF07F4120F07F40FA
:1026C00000B58142A2EB03020FF2081CACEB504EA6
:1026D000C0F100009EF800E04FEA4E0E00FB0EFC39
:1026E00038BF49004FEA2C1C02F5FA020CFB0EF32E
:1026F0004FEACE1E4FEA112C4FEAC1210EEB635E6A
:1027000042EB22420EFB0CFC4FEA1C5300FB031170
:102710004FEA112C4FEA01310EFB0CFC4FEADC4C66
:1027200000FB0C11C14228BF09184CEB03335DF8C4
:1027300004EB10EB410143EBC250B2F57C0F38BF04
:10274000704729D512F0F00F1CBF00F1C04000F017
:1027500000407047008182838485868788898B8CBE
:102760008D8E8F919293959697999A9C9D9FA0A2FA
:10277000A3A5A7A8AAACAEB0B2B3B5B7B9BCBEC04A
:10278000C2C5C7C9CCCED1D4D7D9DCDFE2E6E9ECEB
:10279000F0F3F7FAFE0000004FEA400C0CF1807CE9
:1027A000BCF17E4F28BF7047B0F1C04000F05FB968
:1027B00090EA010F0CEAD11348BF42F480726245DF
:1027C00038BF634507D213F47F0F16D080EA0100AB
:1027D00000F00040704710B500F003F9097EFC3EA0
:1027E00000F005B880EA010000F00040704780EA80
:1027F000010000F0004000F03AB912F47F0F04BF6E
:102800000248704780EA010000F031B90000C07F43
:1028100041000B0ED3F19E0208D950F400034FEA99
:10282000032323FA02F048BF4042704710B500F07E
:10283000D8F800BF49922480002070476FF0004212
:1028400082EA200070470000C10DD1F19E0206DB34
:102850004FEA002343F0004323FA02F0704700429E
:1028600007D54FEA4001B1F1FE4F02D24FF0000010
:10287000704710B500F0B5F84992248000207047E9
:102880006FEA20007047000010F0004148BF40424E
:10289000B0FA80F310FA03F2C3F19D030BD051EAB2
:1028A000C35101EB1220530638BF704700F10100FD
:1028B00008BF20F001007047B0FA80F310FA03F26D
:1028C000C3F19D030AD0D90501EB1220530638BF8E
:1028D000704700F1010008BF20F0010070470000C0
:1028E0004FF47F0C1CEAD0121EBF1CEAD11392EAEF
:1028F0000C0F93EA0C0F00F0478090EA010F48BFDD
:1029000042F480724FF0004C4CEA00204CEA012166
:1029100002EB0302A0FB0113A2F50002002918BF7D
:1029200043F001035B0028BF4FEA330342EB22422E
:102930005FEA132C4CEBC2502EBFBCEB436FB2F5D9
:102940007C0F70474FEA036CBCF1004F08BF20F0CA
:102950000100B2F57C0F38BF70470BD582F0FF0243
:1029600012F5803FC8BF704700F1C040D8BF00F0EB
:102970000040704700F5000C5FEA4C0C48BF704700
:10298000B0F1C04000F073B890EA010F0CEAD11327
:1029900048BF42F48072624538BF634504D280EA82
:1029A000010000F00040704710B500F01AF800BFB9
:1029B0008900013E00F007B800F009B85FEA410C59
:1029C0005FEA1C6C08D080EA010000F050B85FEAB2
:1029D000400C5FEA1C6CF6D14FF00040A0F580007F
:1029E00070470EF1020E2EF0030E5EF8044B2442E7
:1029F00004D44FEA4102B2F17F4F11D84FEA4003AD
:102A0000B3F17F4F0CD80ED14FEAD07CB2F17F4F9B
:102A10000CEB4C0C0CF1020C08BF4CEBD17C04E02D
:102A20004FF0080C01E04FEAD17C0CEB4C0324FA88
:102A300003F404F00704B4F1040C06D20EEB840C8A
:102A4000BDE810404CF0010C6047DFE80CF00708CF
:102A500002024FF00040A0F5800010BD0846420081
:102A600018BFD2F1807288BF00F0004010BDFF2176
:102A700041EAD050C005704780F0004090EA010F55
:102A80007FF5A3AD81F0004100F007B890EA010F97
:102A900048BF81F000413FF598AD421A04D882F05A
:102AA0000042A0EB020011444FEAD0524FF07F4C9D
:102AB0001CEA410FA2EBD15318BF9CEA026F4AD027
:102AC0004FF0004C4CEA00204CEA012121FA03FCB3
:102AD000B0EB0C0C0FD412F0FE0F36D05FEA4C00B6
:102AE0001DD5001240EBC25038BF70471CF03F0F9D
:102AF00018BF70470BE0A2F101025FEA1C2040EB17
:102B0000C25038BF70471CF07F0F18BF7047C3F129
:102B10002003994014BF401E20F001007047800838
:102B20004FEA122308BF7047B0FA80FCA2EB0C02F8
:102B3000CCF1280C60FA0CF093EA122F04BF00EBE2
:102B4000C25070474FEAC3707047130A5FEADC1047
:102B500008BF7047F6E79CEA026F04D010EA5C0FEA
:102B600008BF0020704710B5FFF73BFF40DFF63E7F
:102B700081F0004070470CF00F03092B08BF0820BC
:102B800000F051800A2B0BD0082B18BF704708BFEC
:102B90001CF0400F0AD04FF000004FF000017047CA
:102BA0001CF0400F18BF4FF0004070471CF0100F92
:102BB00008D020F0704300F07F4242EAD3014FEA90
:102BC0004370704700F0604021F07F4242EA00020B
:102BD00001F07F4040EA727070474FF0FF0212EA46
:102BE000D0521CBF92F0FF038B42C2BFD14200EB18
:102BF000C1507047002A0AD0002B0BD0002900F0EA
:102C00000040A4BF40F0FE4040F40000704700F0D8
:102C10000040704743024FF00B0C18BF4CF0806C23
:102C20007FF42EAD70471CF4801F11D01CF4E02FF0
:102C300003D06FEACC31490070474FF04050EFF3BA
:102C4000008222F0704242EA000282F3008870475C
:102C50004FF000007047010202030405060708094F
:102C60000A0B0C0D0E0F10100000000000000000F9
:102C7000010203040607080900000000000000002C
:102C8000000000000000000000000008080808081C
:102C9000080800001818000000486C24120000000A
:102CA00000000000000000000000002424247F1227
:102CB00012127F12121200000000081C2A2A0A0CAD
:102CC0001828282A2A1C0808000000222515151596
:102CD0002A585454542200000000000C1212120A08
:102CE00076252911916E00000006060403000000FD
:102CF000000000000000000000402010100808083C
:102D000008080810102040000002040808101010E5
:102D100010101008080402000000000008086B1CD6
:102D20001C6B0808000000000000000008080808EC
:102D30007F080808080000000000000000000000F4
:102D40000000000006060403000000000000000070
:102D5000FE00000000000000000000000000000075
:102D60000000000006060000000080404020201007
:102D70001008080404020200000000182442424225
:102D80004242424224180000000000080E080808D1
:102D900008080808083E00000000003C42424220AB
:102DA00020100804427E00000000003C424220182F
:102DB00020404042221C0000000000203028242433
:102DC00022227E20207800000000007E0202021AEB
:102DD00026404042221C0000000000382402021A53
:102DE00026424242241800000000007E22221010D9
:102DF00008080808080800000000003C424242247D
:102E000018244242423C0000000000182442424282
:102E100064584040241C0000000000000000181806
:102E2000000000001818000000000000000000086A
:102E30000000000000080804000000402010080402
:102E400002040810204000000000000000007F0085
:102E500000007F00000000000000000204081020B5
:102E600040201008040200000000003C424246409E
:102E700020101000181800000000001C225A5555A0
:102E800055552D42221C000000000008081814149B
:102E9000243C224242E700000000001F2222221EA2
:102EA00022424242221F00000000007C42420101F7
:102EB00001010142221C00000000001F2242424288
:102EC00042424242221F00000000003F4212121EF6
:102ED00012120242423F00000000003F4212121E46
:102EE00012120202020700000000003C222201012F
:102EF00001712122221C0000000000E742424242F0
:102F00007E42424242E700000000003E08080808F6
:102F100008080808083E00000000007C101010108F
:102F2000101010101010110F0000007722120A0E5E
:102F30000A12122222770000000000070202020299
:102F400002020202427F0000000000773636363669
:102F50002A2A2A2A2A6B0000000000E346464A4A31
:102F600052525262624700000000001C224141415F
:102F700041414141221C00000000003F42424242C8
:102F80003E020202020700000000001C22414141F3
:102F900041414D53321C60000000003F4242423E1E
:102FA0001212222242C700000000007C42420204AA
:102FB00018204042423E00000000007F49080808F7
:102FC00008080808081C0000000000E742424242CE
:102FD00042424242423C0000000000E742422224BA
:102FE00024141418080800000000006B49494949DE
:102FF0005555362222220000000000E74224241802
:103000001818242442E7000000000077222214143C
:1030100008080808081C00000000007E212010108D
:1030200008040442423F0000007808080808080825
:1030300008080808080878000000020204040808CC
:103040000810102020204040001E101010101010FA
:103050001010101010101E00003844000000000076
:103060000000000000000000000000000000000060
:1030700000000000000000FF000608000000000043
:103080000000000000000000000000000000003C04
:103090004278444242FC0000000000030202021A8F
:1030A00026424242261A00000000000000000038BC
:1030B00044020202443800000000006040404078B2
:1030C0004442424264D80000000000000000003C7E
:1030D000427E0202423C0000000000F08808087EA8
:1030E00008080808083E0000000000000000007CFE
:1030F00022221C023C42423C000000030202023A2F
:103100004642424242E700000000000C0C00000E64
:1031100008080808083E00000000003030000038B1
:10312000202020202020221E000000030202027224
:10313000120A1612227700000000000E0808080884
:1031400008080808083E0000000000000000007F9A
:103150009292929292B70000000000000000003BA3
:103160004642424242E70000000000000000003CEE
:1031700042424242423C0000000000000000001BAE
:1031800026424242221E0207000000000000007892
:1031900044424242447840E00000000000000077D2
:1031A0004C040404041F0000000000000000007C28
:1031B00042023C40423E0000000000000008083E81
:1031C0000808080808300000000000000000006344
:1031D0004242424262DC000000000000000000E7C2
:1031E000422424140808000000000000000000EB46
:1031F00049495555222200000000000000000076D9
:1032000024181818246E000000000000000000E7D9
:103210004224241418080807000000000000007E63
:1032200022100808447E000000C02020202020102A
:10323000202020202020C00010101010101010108E
:1032400010101010101010100006080808080810C0
:1032500008080808080806000C32C2000000000038
:10326000000000000000000000000000000000005E
:10327000000000000000000000000000000000004E
:10328000000000000000000000000000000000003E
:10329000000000000000000000000000000000002E
:1032A000000000000000000000000000000000001E
:1032B0000000C001C001C001C001C001C001C001C7
:1032C000800080008000800080008000800000007E
:1032D0000000000000008001C003C0038001000066
:1032E0000000000000000000000000000000E01CE2
:1032F000E01CF01E700E380718030801840000005F
:1033000000000000000000000000000000000000BD
:1033100000000000000000000000000000000000AD
:10332000000000000000000000000000000000009D
:103330000000000020102010201020102010FE7F20
:10334000FE7F100810081008100810081008100858
:10335000FE7FFE7F08040804080408040804000037
:10336000000000000000000000000000000000005D
:1033700000010001C00760191031183118391839DF
:1033800038017001E001C0038007000F001D003903
:1033900000311C311C310C310C11180DE0070001FB
:1033A000000100010000000000000000000000001B
:1033B000000000001C1036186308630C63046304EB
:1033C000630263026301361D9C3780228063406381
:1033D000406320632063306310221836081C00000D
:1033E00000000000000000000000000000000000DD
:1033F00000000000F00098018C018C018C018C0110
:103400008C00CC007800183E1C0836083208630493
:103410006304C304C303834306438E26781C000061
:1034200000000000000000000000000000001C0080
:103430003C003C003000300010000C000600000092
:10344000000000000000000000000000000000007C
:10345000000000000000000000000000000000006C
:10346000000000000000000000000000000000401C
:10347000002000100008000C0004000600030003F8
:1034800000038001800180018001800180018001B2
:10349000800100030003000300060006000C000882
:1034A00000100020004000000000000000000200AA
:1034B000040008001000300020006000C000C000C0
:1034C000C0008001800180018001800180018001B5
:1034D0008001C000C000C00060006000300010002B
:1034E00008000400020000000000000000000000CE
:1034F00000000000000000000001800380030001C4
:103500001C713C79783DC0070001C007783D3C79CB
:103510001C71000180038003800100000000000096
:10352000000000000000000000000000000000009B
:103530000000000000000000000000010001000188
:103540000001000100010001FC7F000100010001F9
:103550000001000100010001000000000000000067
:10356000000000000000000000000000000000005B
:10357000000000000000000000000000000000004B
:10358000000000000000000000000000000000003B
:1035900000000000000000001C003C003C00300067
:1035A000300010000C0006000000000000000000C9
:1035B000000000000000000000000000000000000B
:1035C0000000000000000000FE7F0000000000007E
:1035D00000000000000000000000000000000000EB
:1035E00000000000000000000000000000000000DB
:1035F00000000000000000000000000000000000CB
:1036000000000000000000000000000000000000BA
:1036100000000000000018003C003C001800000002
:10362000000000000000000000000000000000405A
:10363000006000200030001000180008000C00049A
:10364000000600020003000180018000C00040006D
:103650006000200030001000180008000C0004007A
:103660000600020000000000000000000000000052
:1036700000000000C007600C301818301830182007
:103680000C600C600C600C600C600C600C600C60DA
:103690000C601820183018303018600CC00700007B
:1036A000000000000000000000000000000000001A
:1036B0000000000000018001F8018001800180010C
:1036C00080018001800180018001800180018001F2
:1036D00080018001800180018001C003F81F00008B
:1036E00000000000000000000000000000000000DA
:1036F00000000000E007101C0818043004300C30F3
:103700000C300030001800080004000200018000A6
:1037100040002020102008200430FC1FFC1F000067
:103720000000000000000000000000000000000099
:1037300000000000E003180E0C0C0C180C180C18FC
:103740000018000C0006C003000E00180010003026
:1037500000300C300C300C100C18180CE00300007A
:103760000000000000000000000000000000000059
:1037700000000000000C000E000E000F800E800EF6
:10378000400E600E200E100E100E080E040E040ED9
:10379000FE7F000E000E000E000E000E000EC07F19
:1037A0000000000000000000000000000000000019
:1037B00000000000F03FF03F100010001000080073
:1037C0000800C807280C1818081000300030003016
:1037D00000300C300C3004180418080CF003000002
:1037E00000000000000000000000000000000000D9
:1037F00000000000800FC0102030103018001800AA
:1038000008000C008C0F6C183C301C600C600C60C5
:103810000C600C601860182030306018C007000081
:103820000000000000000000000000000000000098
:1038300000000000F83FF83F1C100C0804080404C6
:10384000000400020002000100010001800080006D
:103850008000C000C000C000C000C000C000000068
:103860000000000000000000000000000000000058
:1038700000000000E007300C18180C300C300C3041
:103880001C3038187008E007B007180E0C1C0638FA
:1038900006300630063006300C18180CE003000025
:1038A0000000000000000000000000000000000018
:1038B00000000000E00318040C080C180610063085
:1038C00006300630063006380C3C1836F031003031
:1038D0000018001800180C0C0C060C03F001000076
:1038E00000000000000000000000000000000000D8
:1038F00000000000000000000000000000000000C8
:1039000000008001C003C00380010000000000002F
:103910000000000000008001C003C003800100001F
:103920000000000000000000000000000000000097
:103930000000000000000000000000000000000087
:103940000000C000C00000000000000000000000F7
:1039500000000000000000000000C000C000800067
:103960008000400040000000000000000000000057
:103970000000002000100008000400060003800181
:10398000C0006000300018000C001800300060001B
:10399000C0008001000300060004000800100020A1
:1039A0000000000000000000000000000000000017
:1039B0000000000000000000000000000000000007
:1039C0000000FE7F00000000000000000000FE7FFD
:1039D00000000000000000000000000000000000E7
:1039E00000000000000000000000000000000000D7
:1039F000000004000800100020006000C0008001EA
:103A000000030006000C001800300018000C00062F
:103A100000038001C00060002000100008000400C6
:103A20000000000000000000000000000000000096
:103A30000000C0073018083008600C601C601C6073
:103A40001C600030001C0006000180008000800027
:103A50008000000000008001C003C003800100005E
:103A60000000000000000000000000000000000056
:103A700000000000C0076018103018200C2F8C4D7B
:103A8000864CC64CC64C664C664466446626662622
:103A90006615CC1C0C40082018303018C0070000F8
:103AA0000000000000000000000000000000000016
:103AB00000000001C001C001C001400160032003FB
:103AC000200320033006100610061006F80F080C1D
:103AD000080C080C0C0C0418041806181F7C0000B5
:103AE00000000000000000000000000000000000D6
:103AF00000000000FE07181C183818301830183065
:103B000018301818180CF8071818183018201860F2
:103B1000186018601860186018301818FE0F000040
:103B20000000000000000000000000000000000095
:103B300000000000C0276038103018200C400C40F6
:103B40000400060006000600060006000600060047
:103B500006000C400C400C2018303018C007000044
:103B60000000000000000000000000000000000055
:103B700000000000FE03180E181818301830183016
:103B80001860186018601860186018601860186075
:103B900018601830183018101818180EFE0300009E
:103BA0000000000000000000000000000000000015
:103BB00000000000FE3F1830182018601840180060
:103BC00018081808180CF80F180C1808180818000E
:103BD000180018001840184018201830FE3F000048
:103BE00000000000000000000000000000000000D5
:103BF00000000000FE7F1870184018C018801800E0
:103C0000181018101818F81F181818101810180085
:103C10001800180018001800180018007E00000096
:103C20000000000000000000000000000000000094
:103C300000000000C013701C101018100C200C2085
:103C400004000600060006000600060006FC06301A
:103C500006300C300C30183018303008C007000027
:103C60000000000000000000000000000000000054
:103C7000000000003F7E0C180C180C180C180C18D3
:103C80000C180C180C180C18FC1F0C180C180C181D
:103C90000C180C180C180C180C180C183F7E00008F
:103CA0000000000000000000000000000000000014
:103CB00000000000F81F8001800180018001800168
:103CC00080018001800180018001800180018001EC
:103CD000800180018001800180018001F81F0000C7
:103CE00000000000000000000000000000000000D4
:103CF00000000000E07F0006000600060006000647
:103D00000006000600060006000600060006000683
:103D10000006000600060006000600060006000673
:103D20000E060E038E01FC000000000000000000E3
:103D3000000000007E7C18181808180418061802E5
:103D4000180198019801D801B8033803180718061C
:103D5000180E180C181C1818183018307EFC0000AB
:103D60000000000000000000000000000000000053
:103D7000000000007E00180018001800180018004D
:103D80001800180018001800180018001800180073
:103D9000180018001840184018201830FE3F000086
:103DA0000000000000000000000000000000000013
:103DB000000000001FF81C381C381C381C3C343430
:103DC00034343434343674326432643264326431BC
:103DD000C431C431C431C430C43084309FFC0000CD
:103DE00000000000000000000000000000000000D3
:103DF000000000001F7C1C103C10341034107410A4
:103E00006410E410C410C411841184130413041743
:103E10000416041E041C041C041C04181F180000B3
:103E20000000000000000000000000000000000092
:103E300000000000C003300C181808100C300C30C3
:103E40000660066006600660066006600660066042
:103E500006600C200C3008101818300CC00300004D
:103E60000000000000000000000000000000000052
:103E700000000000FE0F1818183018601860186055
:103E80001860186018301818F80F1800180018007B
:103E90001800180018001800180018007E00000014
:103EA0000000000000000000000000000000000012
:103EB00000000000C003300C18180C100C300C204F
:103EC00006600660066006600660066006600660C2
:103ED0000660E4612C331C321816300EC007004C0B
:103EE000007C00380000000000000000000000001E
:103EF00000000000FE07181C183818301830183061
:103F000018301818180CF807980318031807180623
:103F10001806180E180C180C181C18187E780000BB
:103F20000000000000000000000000000000000091
:103F300000000000E027303818300C200C200C0066
:103F40000C0018007800E003800F001E003800709D
:103F5000006004600460086018303818C80F000062
:103F60000000000000000000000000000000000051
:103F700000000000FC3F8C2184618241824180016D
:103F80008001800180018001800180018001800129
:103F9000800180018001800180018001E007000034
:103FA0000000000000000000000000000000000011
:103FB000000000003F7C0C100C100C100C100C10BA
:103FC0000C100C100C100C100C100C100C100C1011
:103FD0000C100C100C100C1008083804E003000042
:103FE00000000000000000000000000000000000D1
:103FF000000000003EF81820182018203010301063
:1040000030103010600860086008E00CC004C00484
:10401000C0048003800380038003000100010000CE
:104020000000000000000000000000000000000090
:1040300000000000DFF38661862186218C210C219F
:104040008C238C138C138C134C1358125816580E47
:10405000380E380E380E300C100410041004000016
:104060000000000000000000000000000000000050
:10407000000000007E3E180838083004300470024A
:104080006002E001C001C0018001800340034007DD
:1040900020062006100C100C081808183E7C0000A2
:1040A0000000000000000000000000000000000010
:1040B000000000007E7C1C10181018083008300C1E
:1040C000700460046002C002C002C001800180016F
:1040D000800180018001800180018001E0070000F3
:1040E00000000000000000000000000000000000D0
:1040F00000000000F83F18180818040C040E000611
:104100000007000380038001C001C000E0006000E0
:1041100070003000382018201C100C18FE1F000002
:104120000000000000000000000000000000C03F90
:10413000400040004000400040004000400040007F
:10414000400040004000400040004000400040006F
:10415000400040004000400040004000400040005F
:104160004000C03F00000000000000000000000010
:104170000000080018001800100030002000600047
:1041800060004000C0008000800180010001000349
:104190000002000600060004000C000800180018C9
:1041A0000010003000200000000000000000FC03B0
:1041B00000020002000200020002000200020002EF
:1041C00000020002000200020002000200020002DF
:1041D00000020002000200020002000200020002CF
:1041E0000002FC0300000000000000000000800747
:1041F000C0062008101000000000000000000000B1
:1042000000000000000000000000000000000000AE
:10421000000000000000000000000000000000009E
:10422000000000000000000000000000000000008E
:10423000000000000000000000000000000000007E
:10424000000000000000000000000000000000006E
:10425000000000000000000000000000000000005E
:10426000000000000000FFFF0000000000007800D8
:10427000C00000010000000000000000000000007D
:10428000000000000000000000000000000000002E
:10429000000000000000000000000000000000001E
:1042A000000000000000000000000000000000000E
:1042B00000000000000000000000000000000000FE
:1042C0000000F00318060C0C0C0C000C800F700C96
:1042D0001C0C0C0C060C060C064C0C4FF83800009D
:1042E00000000000000000000000000000000000CE
:1042F000000010001E001800180018001800180018
:104300001800180FD8183830386018601860186016
:10431000186018601860182038307818C807000036
:10432000000000000000000000000000000000008D
:10433000000000000000000000000000000000007D
:104340000000C007700C181818180C180C000C008E
:104350000C000C000C20182018103008C0070000BA
:10436000000000000000000000000000000000004D
:1043700000000010001E0018001800180018001897
:104380000018E01B301C181818180C180C180C1802
:104390000C180C180C180818181C307AE0090000CA
:1043A000000000000000000000000000000000000D
:1043B00000000000000000000000000000000000FD
:1043C0000000C007300C181808100C300C30FC3FEF
:1043D0000C000C000C00182018107018C00700000A
:1043E00000000000000000000000000000000000CD
:1043F00000000000003E80C380C0C0C0C000C000FC
:10440000C000FC1FC000C000C000C000C000C00051
:10441000C000C000C000C000C000C000F80F000015
:10442000000000000000000000000000000000008C
:10443000000000000000000000000000000000007C
:104440000000C077306C10181818181818181018B9
:10445000300CF00718001800F00FF03F08700C60E7
:104460000C600C603838E00F000000000000000015
:10447000000010001E001800180018001800180096
:104480001800980FD81838301830183018301830F5
:104490001830183018301830183018307EFC0000F2
:1044A000000000000000000000000000000000000C
:1044B0000000000080038003800300000000000073
:1044C0000001F801800180018001800180018001EC
:1044D000800180018001800180018001F81F0000BF
:1044E00000000000000000000000000000000000CC
:1044F0000000000000380038003800000000000014
:104500000010801F0018001800180018001800186C
:1045100000180018001800180018001800180018DB
:104520000018180C1806F00300000000000000003E
:10453000000010001E0018001800180018001800D5
:104540001800183E180C1806180318019801D80115
:10455000380318071806180C181C18187E7C000061
:10456000000000000000000000000000000000004B
:1045700000000001F80180018001800180018001BC
:104580008001800180018001800180018001800123
:10459000800180018001800180018001F81F0000FE
:1045A000000000000000000000000000000000000B
:1045B00000000000000000000000000000000000FB
:1045C0000800EE1C9C338C318C318C318C318C3159
:1045D0008C318C318C318C318C318C31DE7B000014
:1045E00000000000000000000000000000000000CB
:1045F00000000000000000000000000000000000BB
:1046000010001E0FD81838301830183018301830F5
:104610001830183018301830183018307EFC000070
:10462000000000000000000000000000000000008A
:10463000000000000000000000000000000000007A
:104640000000C007701C103018300C600C600C604B
:104650000C600C600C60183018303018C007000077
:10466000000000000000000000000000000000004A
:10467000000000000000000000000000000000003A
:1046800010009E0F581838301820186018601860F5
:1046900018601860186018303830781898071800BB
:1046A0001800180018007E00000000000000000044
:1046B00000000000000000000000000000000000FA
:1046C0000000C023303C183818300C300C300C304F
:1046D0000C300C300C3008301838303CE0330030EF
:1046E00000300030003000FC00000000000000003E
:1046F00000000000000000000000000000000000BA
:1047000060007E3C60666061E000E0006000600088
:10471000600060006000600060006000FE07000054
:104720000000000000000000000000000000000089
:104730000000000000000000000000000000000079
:104740000000E02730381830182018007000E0030F
:10475000800F001C043004300C301C18EC0F0000DB
:104760000000000000000000000000000000000049
:104770000000000000000000800080008000C000F9
:10478000E000FC1FC000C000C000C000C000C000AE
:10479000C000C000C000C020C0208011000F000079
:1047A0000000000000000000000000000000000009
:1047B00000000000000000000000000000000000F9
:1047C00010201E3C183018301830183018301830AF
:1047D0001830183018301830183830F4E013000052
:1047E00000000000000000000000000000000000C9
:1047F00000000000000000000000000000000000B9
:1048000000007E3C18181808380830043004700284
:1048100060026002E001C001C001C0008000000031
:104820000000000000000000000000000000000088
:104830000000000000000000000000000000000078
:104840000000DFF78E630C238C238C2398139813BE
:1048500058165816700E700E700E200420040000BA
:104860000000000000000000000000000000000048
:104870000000000000000000000000000000000038
:104880000000FC3E70087004E004C002C001800318
:10489000800340076006200C100C18183E7E0000B4
:1048A0000000000000000000000000000000000008
:1048B00000000000000000000000000000000000F8
:1048C00000007E7C18181808300830083004600496
:1048D0006004C002C002C00280018001800180002B
:1048E000800080004C003C00000000000000000040
:1048F00000000000000000000000000000000000B8
:104900000000FC1F0C0C040E040600038003800151
:10491000C000E0007020302038301C18FC1F000060
:104920000000000000000000000000000000003057
:104930000008000400040004000400040004000453
:1049400000040004000400028001000200040004CE
:104950000004000400040004000400040004000437
:104960000004000800300000000100010001000107
:10497000000100010001000100010001000100012F
:10498000000100010001000100010001000100011F
:10499000000100010001000100010001000100010F
:1049A00000010001000100010000000000000C00F7
:1049B0001000200020002000200020002000200007
:1049C0002000200020004000800140002000200046
:1049D00020002000200020002000200020002000D7
:1049E000200010000C00000000003800C4008640C9
:1049F00002610022001C0000000000000000000016
:104A000000000000000000000000000000000000A6
:104A10000000000000000000000000000000000096
:104A20000000000000000000D6D080008000800060
:104A30008000FC1F84108410841084108410FC1FDC
:104A400084108000800080008000BEB0F80F08084D
:104A5000F80F0808F80F8000FF7F0000F80F080823
:104A60000808F80F80008410A2204000D4B0000095
:104A7000FE3F0220F22702200220FA2F22212221CB
:104A80002221122912290A2E0220FE3F0220B5E718
:104A9000800080008000FC1F841084108410FC1FA4
:104AA000841084108410FC1F845080408040007F5C
:104AB000D7D30000FE1F0008000400028001800020
:104AC000FF7F800080008000800080008000A000C8
:104AD0004000D6D0000000000000001800000800D0
:104AE000000800000800080818F8FF1F1808181828
:104AF0000818180818180818180818180818F8FFBF
:104B00001F0808080008000008000008000008004E
:104B1000001800001800001800000000BEB00000DF
:104B200000000000400006C0FF07400006C0FF076D
:104B3000400006C0FF07400802003000FEFF3F00B3
:104B40000000C0FF07C00002C00002C00002C0FF9A
:104B50000380100080110160100E3010180C1E3000
:104B6000001C00000000D4B000000000000008009D
:104B700030F8FF1F08001008C010083F1008001090
:104B8000080010080013C8FF10082210082210089F
:104B9000221008221008211208211488601648C02B
:104BA00013280010080010F8FF1F08001000000074
:104BB000B5E7000000000000001800000800000831
:104BC00000000800F0FF0F1008041008041008048B
:104BD000100804F0FF07100804100804100804105F
:104BE0000804F0FF07100800000810000810000873
:104BF0002000183000F01F000000D7D30000000094
:104C00000000000004F0FF0F00000600000100C0DB
:104C100000002800001800001800001830FEFF7F78
:104C2000001800001800001800001800001800000C
:104C30001800001800001800001800001F00000CE9
:104C400000000000D6D0000000000000000000803E
:104C50000000008001000080010000800100008051
:104C60000100008001001080010CF0FFFF0F308078
:104C70000104308001043080010430800104308060
:104C80000104308001043080010430800104F0FF11
:104C9000FF073080010430800104008001000080A3
:104CA0000100008001000080010000800100008000
:104CB00001000080010000800100008001000080F0
:104CC000000000000000BEB0000000000000000076
:104CD000000000000001800100FFFF0100038001CF
:104CE0000003800100FFFF01000380010003800139
:104CF00000FFFF0100818100000003000000031C91
:104D0000FCFFFF3F000040000003C00100FFFF0167
:104D10000003C0000003C0000003C00000FFFF004C
:104D20000001410000040100000E71000007810134
:104D3000800101076000010E1898011C04E00118B1
:104D400000C0000000000000D4B00000000000001F
:104D5000000000000008F0FFFF1F3000000C3000D2
:104D6000000C3000100C30FE3F0C3004000C300002
:104D7000000C3000000C3000000C3000C00CF0FFC4
:104D8000FF0D3030060E3030060C3010060C30109F
:104D9000060C3010060C3018860C3018860C3008C3
:104DA000060D300C860D3006EE0F3002FC0D300182
:104DB000000CF000000C3000000CF0FFFF0F300082
:104DC000000C1000000400000000B5E70000000027
:104DD0000000000000C0000000C0010000C0000092
:104DE00000C0000000C0000000C00000E0FFFF03A2
:104DF00060C0000360C0000360C0000360C0000327
:104E000060C0000360C00003E0FFFF0360C0000358
:104E100060C0000360C0000360C0000360C0000306
:104E2000E0FFFF0360C0000160C0000000C0000898
:104E300000C0001000C0001000C0001800C0013801
:104E40000080FF1F0000000000000000D7D300001A
:104E50000000000000000000000000000003C0FF90
:104E6000FF07000080070000C00000006000000095
:104E7000180000000C000080030000800300008088
:104E80000100008001080080011CFCFFFF3F008042
:104E9000010000800100008001000080010000800E
:104EA00001000080010000800100008001000080FE
:104EB000010000800100008001000080010000FC72
:104EC000010000E0000000400000000000000000C1
:104ED000F04E000800000020440000006C010008B3
:104EE000344F000844000020BC0600008801000880
:104EF00001000000100000000000000000127A0015
:104F0000D0900000351D0008D91E0008DD170008EC
:104F10000000000000000000000000000000000091
:104F20000000000000000000000000000000000081
:044F3000000000007D
:0400000508000131BD
:00000001FF
