:020000040800F2
:10000000D0D200200D0200084F1C0008DB150008AC
:100010004D1C00088B050008E525000800000000C5
:10002000000000000000000000000000411D00086A
:100030008D05000800000000511C0008431D000849
:1000400027020008270200082702000827020008EC
:1000500027020008270200082702000827020008DC
:1000600027020008270200082702000827020008CC
:1000700027020008270200082702000827020008BC
:1000800027020008270200082702000827020008AC
:10009000270200082702000827020008270200089C
:1000A000270200082702000827020008270200088C
:1000B000270200082702000827020008270200087C
:1000C000270200082702000827020008270200086C
:1000D000270200082702000827020008270200085C
:1000E000270200082702000827020008270200084C
:1000F000270200082702000827020008270200083C
:10010000270200082702000827020008270200082B
:100110002702000827020008A91D0008270200087E
:10012000270200082702000827020008270200080B
:1001300000F002F800F05AF80AA090E8000C82449F
:100140008344AAF10107DA4501D100F04FF8AFF27C
:10015000090EBAE80F0013F0010F18BFFB1A43F0A5
:100160000103184738E0020058E002000A444FF04B
:10017000000C10F8013B13F0070408BF10F8014B06
:100180001D1108BF10F8015B641E05D010F8016B4B
:10019000641E01F8016BF9D113F0080F1EBF10F8AF
:1001A000014BAD1C0C1B09D16D1E58BF01F801CBD2
:1001B000FAD505E014F8016B01F8016B6D1EF9D555
:1001C0009142D6D37047000000230024002500266A
:1001D000103A28BF78C1FBD8520728BF30C148BFAA
:1001E0000B6070471FB51FBD10B510BD00F098F92A
:1001F0001146FFF7F7FF21F0B7FD00F0B6F903B4A1
:10020000FFF7F2FF03BC00F0B9F90000094880478E
:1002100009480047FEE7FEE7FEE7FEE7FEE7FEE7E8
:10022000FEE7FEE7FEE7FEE704480549054A064B00
:1002300070470000A51D000831010008D0CC002047
:10024000D0D20020D0CE0020D0CE002053EA020C25
:1002500000F069802DE9F04B4FF00006002B1FBF26
:10026000B3FA83F503FA05F424FA05F65E4012BFEB
:100270001643B2FA82F502FA05F4C5F120051EBF55
:1002800022FA05FC44EA0C04203556EA044C4FEAF5
:10029000144418BF641C4FF000084FF0000990424E
:1002A00071EB030C39D3002919BFB1FA81F701FAB8
:1002B00007F6B0FA80F700FA07F6C7F120071EBF6D
:1002C00020FA07FC46EA0C062037B6FBF4FCA7EB45
:1002D0000507103F07F01F0BCBF120060CFA0BFBB4
:1002E0002CFA06F644BFB3460026202FA4BF5E4674
:1002F0004FF0000B5BEA060C08BF4FF0010B19EB47
:100300000B09ABFB027C48EB0608C01B06FB02CCCA
:100310000BFB03CC71EB0C01C1E70B4602464146D7
:100320004846BDE8F08B13B54FF000004FF00001D8
:10033000AFF30080BDE81C40704740EA010302466D
:1003400030B59B0710D14FF0013400E008C208C956
:100350001D1B9D4315EAC41FF8D013F0FF0102F8DE
:10036000011B0DD01B0AF8E711F8013B002B02F826
:10037000013B05D011F8013B002B02F8013BF3D102
:1003800030BD10B5431C02E010F8011B71B18107AC
:10039000FAD14FF0013202C88C1A8C4314EAC21110
:1003A000F9D0C01A0A0603D0C01E10BDC01A10BD75
:1003B0000A0401D0801E10BD0902FCD0401E10BDF1
:1003C00010B5203AC0F00B80B1E81850203AA0E8F0
:1003D0001850B1E81850A0E81850BFF4F5AF5FEA24
:1003E000027C24BFB1E81850A0E8185044BF18C9D7
:1003F00018C0BDE810405FEA827C24BF51F8043B7E
:1004000040F8043B08BF7047D20728BF31F8023BD1
:1004100048BF11F8012B28BF20F8023B48BF00F865
:10042000012B70474FF0000200B5134694469646E4
:10043000203922BFA0E80C50A0E80C50B1F12001F7
:10044000BFF4F7AF090728BFA0E80C5048BF0CC0A5
:100450005DF804EB890028BF40F8042B08BF704703
:1004600048BF20F8022B11F0804F18BF00F8012B75
:10047000704700004FF0013C50F8042B51F8043B4A
:100480009A4221D1A2EB0C03934313EACC1317D168
:1004900050F8042B51F8043B9A4215D1A2EB0C03FF
:1004A000934313EACC130BD150F8042B51F8043BBF
:1004B0009A4209D1A2EB0C03934313EACC13DBD08D
:1004C0004FF00000704700BFD01A01BAB1FA81F1B5
:1004D00001F0180122FA01F0CB40C1F12001DBB29A
:1004E000C0B2C01A2CFA01F3D11A914311EAC31118
:1004F000E6D1704770477047704710B500F008F8B4
:10050000006810BD10B5044600F002F8046010BD8C
:100510000048704770CC00200048704770CC002025
:100520007546FFF7F9FFAE4605006946534620F0D1
:100530000700854618B020B5FFF776FEBDE82040DD
:100540004FF000064FF000074FF000084FF0000B8F
:1005500021F00701AC46ACE8C009ACE8C009ACE842
:10056000C009ACE8C0098D46704710B50446AFF32A
:1005700000802046BDE81040FFF741BE0149182029
:10058000ABBEFEE7260002007047FEE770470000A2
:100590002DE9FF4F83B090460E46074600251446CE
:1005A0004FE000BF381BA6EB050902901FFA89F146
:1005B00080B2069A01F07EF8381901901FFA89F18D
:1005C00080B2069A01F076F8301981B2A7EB0509DE
:1005D00000901FFA89F0069A01F06CF8A6EB040B64
:1005E0001FFA8BF11FFA89F0069A01F063F801985F
:1005F00006EB050A1FFA8AF180B2069A01F05AF852
:1006000007EB05091FFA8BF11FFA89F0069A01F032
:1006100051F80098069A81B21FFA89F001F04AF861
:1006200002981FFA8AF180B2069A01F043F86D1C15
:1006300005FB05F004FB040108FB08F0814200DD26
:10064000641EA542AEDD07B0BDE8F08F72B6FEE7CE
:1006500070B5044600F01CF90546601C02D0044841
:100660000078044400F014F9401BA042FAD370BD96
:10067000000000202DE9F84FDFF8C8910024A9F10F
:10068000040B23460F2709F1040AABF1040ED1E055
:100690000125A54006EA0502AA4276D1DFF8A8C1E5
:1006A0004E68A6EB0C0866452BD00DDC032E34D02B
:1006B00005DC36B3012E19D0022E2FD11BE0112EEE
:1006C00016D0122E2AD119E0B8F5881F19D006DCF1
:1006D000B8F5803F15D0B8F5801F1FD111E0B8F5EF
:1006E000001F0ED0B8F5041F18D10AE0CB6815E042
:1006F000CB681B1D12E0CB6808330FE0CB680C33CE
:100700000CE08B682BB1012B4FF0080303D045613F
:1007100004E0042302E0056100E00023FF2A01D881
:10072000064601E000F104064FEA840501D9A5F16F
:100730002005D6F8008007FA05FC28EA0C0803FA21
:1007400005F548EA0508C6F800804D68ED0070D54B
:100750003E4DAE6946F00106AE61AD6924F0030678
:1007600005F0010500953A4D06EB050CDCF8085044
:10077000A607360F07FA06F825EA0805DFF8D48041
:10078000404503D14FF0000825E052E0DFF8C88073
:10079000404502D14FF001081DE0DFF8C080404520
:1007A00002D14FF0020816E0DFF8B480404502D1D4
:1007B0004FF003080FE0DFF8AC80404502D14FF066
:1007C000040808E0DFF8A080404502D14FF005089A
:1007D00001E04FF0060808FA06F848EA0508CCF8E8
:1007E00008804D68D9F80060ED024D4601D51643EA
:1007F00000E096432E604D68DAF80060AD02554681
:1008000001D5164300E096432E604D68DBF800608A
:10081000AD035D4601D5164300E096432E604D685A
:10082000DEF80060ED03754601D5164300E09643FF
:100830002E60641C0A681646E2407FF429AFBDE8CA
:10084000F88F000008040140000011100010024061
:100850000000014000080140000C01400010014070
:100860000014014000180140001C0140806808404D
:1008700000D001207047C26821EA02030A4043EA1F
:100880000241016170470AB1016170470904FBE749
:10089000014880687047000000000020024881681D
:1008A000027811448160704700000020074810B5AD
:1008B000016841F010010160032000F075F80F207D
:1008C00000F006F800F024F8002010BD00200240DF
:1008D00070B50D4D04464FF47A712878B1FBF0F0F5
:1008E0000A490968B1FBF0F000F0F9FC48B9102C96
:1008F00007D200222146501E00F036F800206C601E
:1009000070BD012070BD0000000000200C00002020
:100910000C4808B5816941F001018161816901F0EC
:1009200001010091C16941F08051C161C06900F0CD
:10093000805000900448416821F0E06141F000716E
:10094000416008BD0010024000000140002809DBA2
:1009500000F01F02012191404009800000F1E020D9
:10096000C0F8001170470000F0B40E4B1B680C4635
:10097000C3F30223C3F10705042D00D90425191D73
:10098000072901D2002300E0DB1E012606FA05F14B
:10099000491E214099409E40761E16403143F0BCCE
:1009A00001F021BE0CED00E0064900F007020868E6
:1009B0004FF6FF03184040EA0220034A1043086044
:1009C000704700000CED00E00000FA052DE9F0474B
:1009D0000F46050061D0434E306800F00700B84272
:1009E00009D2306820F0070038433060306800F0EA
:1009F0000700B84251D128683B4C810712D5400707
:100A000003D5606840F4E06060602878000703D593
:100A1000606840F4605060606068A96820F0F00091
:100A2000084360602878C00728D06868012810D083
:100A30002168022810D0890700292EDA616821F088
:100A4000030101436160FFF723FF804641F28839CB
:100A50000DE021688903EFE78901EDE7FFF718FF53
:100A6000A0EB0801494502D90320BDE8F087606882
:100A7000696800F00C00B0EB810FEFD1306800F036
:100A80000700B8420BD9306820F0070038433060C7
:100A9000306800F00700B84201D00120E5E728786F
:100AA000400705D56068E96820F4E06008436060AD
:100AB0002878000706D56068296920F4605040EA6C
:100AC000C100606000F018F86168084AC1F30311C2
:100AD000515CC8400649086006480068FFF7F8FE08
:100AE0000020C2E700200240001002409478020873
:100AF0000C000020040000200E4A51680E4801F04E
:100B00000C03042B11D0082B0FD10C48C1F38343E5
:100B1000C903C05C0AD55168084AC1F34041921E1E
:100B2000515C054A5043B0FBF1F07047044948431B
:100B3000704700000010024000127A00847802081A
:100B400000093D002DE9F84F040070D02078C04D19
:100B5000C00749D06868C0F38100012807D06868E1
:100B6000C0F38100022809D16868C00306D528684F
:100B7000800339D560680028E7D035E06068B0F5BB
:100B8000803F0BD010B1B0F5A02F11D0286820F411
:100B900080302860286820F4802002E0286840F433
:100BA00080302860606890B1FFF772FE06460AE068
:100BB000286840F480202860F0E700BFFFF768FE57
:100BC000801B642873D828688003F7D50CE0FFF7F2
:100BD0005FFE064605E000BFFFF75AFE801B642853
:100BE000F0D828688003F7D420789A4E80074FF019
:100BF00001094FF0000839D5686810F00C0F07D0D4
:100C00006868C0F38100022809D16868C00306D46F
:100C10002868800714D52069012808D110E02069D0
:100C2000B0B1C6F80090FFF733FE074605E00AE1D1
:100C3000FFF72EFEC01B0228C4D828688007F7D50E
:100C40002868616920F0F80040EAC10028600DE0E2
:100C5000C6F80080FFF71CFE074604E0FFF718FE09
:100C6000C01B022823D828688007F7D42078000703
:100C70002CD57948A169D9B1C0F80090FFF708FEDA
:100C8000074604E0FFF704FEC01B02280FD8686A7D
:100C90008007F7D571484FF4FA510068B0FBF1F0C6
:100CA000009000BF0098411E0091FAD20EE080E053
:100CB000C0F80080FFF7ECFD074604E0FFF7E8FD11
:100CC000C01B022875D8686A8007F7D420784007CF
:100CD00060D5E8690027C00008D4E86940F080507A
:100CE000E861E869012700F0805000905C480168E5
:100CF000C90513D40168834641F480710160FFF790
:100D0000C7FD824606E000BFFFF7C2FDA0EB0A0068
:100D100064284ED8DBF80000C005F5D5E06801284E
:100D20000AD008B1052813D0286A20F001002862F3
:100D3000286A20F0040002E0286A40F001002862DE
:100D4000E06841F2883B98B1FFF7A2FD82460BE0D4
:100D5000286A40F004002862EEE700BFFFF798FD24
:100D6000A0EB0A0159455AD8286A8007F6D50CE04D
:100D7000FFF78EFD824605E0FFF78AFDA0EB0A0132
:100D800059454CD8286A8007F6D41FB1E86920F08D
:100D90008050E861E06988B36968C1F38101022984
:100DA00044D00228C6F8608004D0FFF771FD0446E5
:100DB00038E034E0FFF76CFD074604E0FFF768FD1C
:100DC000C01B02282BD828688001F7D4206AB0F510
:100DD000803F05D16868A16820F40030084368604E
:100DE000D4E908010843696821F474110843686074
:100DF000C6F86090FFF74CFD044606E025E000BF12
:100E0000FFF746FD001B022809D828688001F7D5A6
:100E10001BE000BFFFF73CFD001B022802D90320A6
:100E2000BDE8F88F28688001F4D40EE00128F7D0DF
:100E30006868226A00F48031914204D1616A00F44A
:100E40007010884201D00120EAE70020E8E70000A6
:100E50000010024000004242800442420C00002088
:100E60000070004070B5040009D0606A002540B1F0
:100E700025616561A56294F8510040B10CE0012044
:100E800070BD6068B0F5827FF4D0E561F2E784F868
:100E90005050204600F040F8022084F851002068AD
:100EA000016821F040010160A088218900F482706E
:100EB00001F404410843A18901F400610843217C45
:100EC00001F002010843217D01F001010843218B5B
:100ED00001F400710843217F01F03801084394F8C0
:100EE000201001F080010843218D01F400510843D6
:100EF00021680860A069042101EA10402168486067
:100F00002068C16921F40061C1616565012084F830
:100F10005100002070BD000030B585B00024009461
:100F200001940294039400681449884223D1144820
:100F3000816941F480518161816901F4805104919A
:100F4000816941F00401816180690E4D00F0040067
:100F50000490A02000900220019003200390694695
:100F60002846FFF787FB4020CDE900046946284664
:100F70000294FFF77FFB05B030BD00000030014058
:100F800000100240000801402DE9F84F984616462F
:100F90008A460446FFF77CFC814694F851000128FC
:100FA0001ED1BAF1000F73D0002E71D094F850000A
:100FB000012815D0012784F85070032084F85100CF
:100FC00000256565C4F830A0A686E686A563A587DA
:100FD000E58765642564A068B0F5004F03D00CE098
:100FE0000220BDE8F88F2068016821F0400101600F
:100FF0002068016841F48041016020680168490669
:1010000003D4016841F040010160E068B0F5006F71
:10101000606803D048B3012E27D047E008B1012E05
:101020001FD1206B21680088C86006E020688168B5
:10103000890709D5216B0988C160206B801C20635A
:10104000E08E401EE0860CE0FFF722FCA0EB0901D9
:10105000414503D3B8F1FF3F03D035E0B8F1000FAD
:1010600032D0E08E0028E1D123E0206B21680078A7
:10107000087306E02068816889070AD5216B097822
:101080000173206B401C2063E08E401EE0860DE063
:101090002BE0FFF7FDFBA0EB0901414503D3B8F1BD
:1010A000FF3F03D010E0B8F1000F0DD0E08E002814
:1010B000E0D14A464146204600F0CBFD08B1202051
:1010C0006065A06830B109E084F8517084F8505030
:1010D000032086E72068C1688068009084F851701A
:1010E00004F8505F60680028F3D0012079E72DE90B
:1010F000FF4F81B01D46934604464FF001090E9EF6
:10110000FFF7C6FB074694F851006168012806D036
:10111000B1F5827F3CD1A168C9BB042838D10298BF
:10112000002871D0BBF1000FFBD0002DF9D094F84E
:10113000500001282CD04FF0010A84F850A094F8F8
:101140005100042802D0052084F851004FF0000817
:10115000C4F85480C4F838B0E587A58702992163A4
:10116000E586A586C4F84080C4F8448020680168FC
:10117000490603D4016841F040010160E068B0F520
:10118000006F606808D0F0B3012D49D081E0FFE71F
:10119000022005B0BDE8F08F08B1012D39D1206BD8
:1011A00021680088C860206B801C2063E08E401E90
:1011B000E0862EE02068816889070FD5E18E69B14D
:1011C000B9F1010F0AD1216B0988C160206B801C25
:1011D0002063E08E401EE0864FF0000920688168A1
:1011E000C9070CD0E18F51B1C068A16B0880A06B1A
:1011F000801CA063E08F401EE0874FF00109FFF7DD
:1012000047FBC01B01E00BE067E0B04201D3701C5C
:1012100050D1E08E0028CDD1E08F0028CAD13EE029
:10122000206B216800780873206B401C2063E08EDF
:10123000401EE0862DE02068816889070FD5E18E89
:1012400069B1B9F1010F0AD1216B09780173206BE3
:10125000401C2063E08E401EE0864FF000092068AD
:101260008168C9070CD0E18F51B1C068A16B0870CB
:10127000A06B401CA063E08F401EE0874FF0010987
:10128000FFF706FBC01BB04202D3701C01D011E077
:1012900086B1E08E0028CED1E08F0028CBD13A462F
:1012A0003146204600F0D5FC50B12020606584F81E
:1012B000508012E084F851A084F85080032068E741
:1012C000A06818B92068C1688068009084F851A0AF
:1012D00084F85080606D0028F1D0012059E710B5E6
:1012E000401EB0F1807F01D3012010BD4FF0E024FB
:1012F00060610F21601701F076F90020A0610720DE
:101300002061002010BD70477047000070B590F854
:101310003C20012A2CD0012480F83C40022280F895
:101320003D2003685A689D6822F070060A683243BF
:101330005A60104B02689A420ED00F4B9A420BD063
:10134000B2F1804F08D00D4B9A4205D00C4B9A4217
:1013500002D00C4B9A4204D1496825F0800319430E
:10136000916080F83D40002180F83C10084670BD37
:10137000022070BD002C01400034014000040040F8
:1013800000080040000C004010B5040003D094F8A1
:101390003D0010B107E0012010BD002084F83C00A2
:1013A000204600F01FF8022084F83D00211D20682F
:1013B00000F000FD012084F8460084F83E0084F827
:1013C0003F0084F8400084F8410084F8420084F82B
:1013D000430084F8440084F8450084F83D00002070
:1013E00010BD000008B500680B49884212D10B48B7
:1013F000C16941F01001C161C069002200F0100014
:10140000009011463620FFF7AFFABDE808403620BD
:10141000FFF79CBA08BD0000001000400010024019
:1014200090F83D10012901D001207047022180F879
:101430003D100168CA6842F00102CA6000680E49A6
:1014400088420ED00D4988420BD0B0F1804F08D0B1
:101450000B49884205D00B49884202D00A4988428C
:1014600004D1816801F00701062903D0016841F029
:101470000101016000207047002C01400034014050
:101480000004004000080040000C004070472DE9B7
:10149000F04104460068C66805694FF00007A907D7
:1014A00013D5B10711D5F91E0161012020772068FD
:1014B00080698007204602D0FFF7E8FF04E000F0D3
:1014C0007EF8204600F07CF82777680716D570076D
:1014D00014D521686FF0040008610220207720688D
:1014E000806910F4407F204602D0FFF7CFFF04E070
:1014F00000F065F8204600F063F82777280715D537
:10150000300713D521686FF00800086104202077A8
:101510002068C0698007204602D0FFF7B7FF04E0CB
:1015200000F04DF8204600F04BF82777E80616D576
:10153000F00614D521686FF01000086108202077AC
:101540002068C06910F4407F204602D0FFF79EFF5C
:1015500004E000F034F8204600F032F82777E8077E
:1015600008D0F00706D021686FF00100086120461E
:1015700000F028F8280608D5300606D521686FF057
:10158000800008612046FFF7BEFE680608D5700699
:1015900006D521686FF040000861204600F01CF875
:1015A000A8060AD5B00608D521686FF020000861AA
:1015B0002046BDE8F041FFF7A7BEBDE8F0817047C7
:1015C000704700000349884202D101201FF0A8BEE5
:1015D00070470000BC0200207047FEE72DE9F04193
:1015E00004461D4616460F462A2000F037FA2046CC
:1015F00000F018FA304600F015FA2B2000F02EFA11
:10160000384600F00FFA284600F00CFABDE8F04129
:101610002C2000F023BA2DE9FE4F151ACDE9001059
:101620004FF000085E1A47464FF0FF30002D02DDF4
:101630004FF0010102E003D14FF000018B4602E0C0
:101640008346C5F10005002E02DD4FF0010002E0E7
:1016500003D14FF00000824602E08246C5F1000649
:10166000B54201DD2C4600E03446601C4FF0000915
:10167000029019E000980C9A81B2019880B200F0B3
:1016800019F8A8443744A04504DD0198A8EB0408E4
:1016900058440190A74203DD00983F1B504400903E
:1016A00009F101001FFA80F902998945E2DBBDE8E2
:1016B000FE8F00002DE9F0410C4E17460C46054602
:1016C000002208213046FFF7DEF823462A46194655
:1016D0001046FFF783FF384600F0A4F93046BDE816
:1016E000F04101220821FFF7CEB8000000080140B8
:1016F0002DE9F04781468846A2EB0904A3EB0800D8
:10170000DFF864A0174644431D4601260022082145
:101710005046FFF7B8F86D1E7F1EABB2BAB2414615
:101720004846FFF75BFF4FF6FE784546AC4204D9CA
:101730000027A4F57F44FE3C03E0002625463746FB
:1017400006E06423022208A90848FFF71DFC7F1C5D
:10175000AF42F6D3002EE8D15046BDE8F047012253
:101760000821FFF790B80000000801406402002043
:1017700010B5644C002201212046FFF784F8642054
:10178000FEF766FF012211462046FFF77CF8642031
:10179000FEF75EFF012204212046FFF774F8642063
:1017A000FEF756FF112000F059F97820FEF750FFA0
:1017B000F02000F053F9C32000F064F9F02000F0AD
:1017C0004DF9962000F05EF9362000F047F9282008
:1017D00000F058F93A2000F041F9052000F052F9E4
:1017E000E82000F03BF9402000F04CF9822000F0A6
:1017F00049F9072000F046F9182000F043F92720A6
:1018000000F040F90A2000F03DF9B62000F03AF966
:10181000332000F037F9C52000F020F9272000F030
:1018200031F9C22000F01AF9A72000F02BF9E020CE
:1018300000F014F9F02000F025F9012000F022F961
:10184000062000F01FF90F2000F01CF9122000F014
:1018500019F91D2000F016F9362000F013F9542074
:1018600000F010F9442000F00DF90C2000F00AF906
:10187000182000F007F9162000F004F9132000F0FA
:1018800001F9152000F0FEF8E12000F0E7F8F02063
:1018900000F0F8F8012000F0F5F8052000F0F2F86B
:1018A0000A2000F0EFF80B2000F0ECF8072000F021
:1018B000E9F8322000F0E6F8442000F0E3F8442094
:1018C00000F0E0F80C2000F0DDF8182000F0DAF865
:1018D000172000F0D7F8132000F0D4F8162000F0FD
:1018E000D1F8F02000F0BAF83C2000F0CBF8F0205E
:1018F00000F0B4F8692000F0C5F8BDE810402920D8
:1019000000F0ACB8000801402DE9FF4F81B004465B
:10191000DDE90F7B4FEA570800904FEAD80000FB43
:1019200007FA203AD0B20390002208212B48FEF794
:10193000AAFF029802993844401E83B204EB0800C3
:10194000401E82B22046FFF749FE002638E0102FE5
:1019500025D0202F3ED12249039801EB801000BFF3
:1019600010F806905FF00005BBF1000F4FF001008A
:1019700000FA05F000EA090016D020B12046049ACA
:101980000299FFF797FE641C0098A4B2211A414502
:1019900010D10298009C401C80B202900EE01149C8
:1019A000039801EB0010DBE708B1049800E00E9803
:1019B00000F038F86D1CEDB2082DD5D3761CB6B208
:1019C0005645C4D305B00122BDE8F04F08210348B5
:1019D000FEF759BF05B0BDE8F08F000000080140D8
:1019E000947E0208A47802082DE9FE4F9946DDE9AD
:1019F0000D6714468A460546DDF830800CE0CDF8C8
:101A000000804B4651462846CDE90167FFF77CFF31
:101A100005EB560085B2641C2278002AEFD1BDE8A0
:101A2000FE8F000038B5010A8DF80010094C8DF8C2
:101A30000100002208212046FEF725FF6423022230
:101A400069460548FFF7A0FA012208212046FEF763
:101A50001AFF38BD000801406402002070B5084C30
:101A60000546002202212046FEF70DFF284600F021
:101A700009F82046BDE8704001220221FEF703BFAD
:101A80000008014031B5094C002208212046FEF72C
:101A9000FAFE6423012269460548FFF775FA012220
:101AA00008212046FEF7EFFE38BD00000008014087
:101AB0006402002070B5141A5E1A641C761C74430C
:101AC000049DFFF78BFD0B4E002208213046FEF7E8
:101AD000DAFE4FF6FF7000EA440264232946064806
:101AE000FFF752FA3046BDE8704001220821FEF7A8
:101AF000CABE000000080140640200202021014805
:101B0000FEF7B9BE001801402DE9F04186B000256E
:101B100026480095019502950395816941F04001A1
:101B20008161816901F040010491816941F0040102
:101B30008161816901F004010491816941F008012A
:101B4000816180691A4F00F0080004900122202171
:101B50003846FEF798FEDFF85C8001221F214046E0
:101B6000FEF791FE2020012402268DE871006946CF
:101B70003846FEF77FFD01AA009482E870006946AE
:101B80004046FEF777FD1E20CDE90004CDE9024670
:101B900069464046FEF76EFDCDE9004569460648B8
:101BA0000295FEF767FD06B0BDE8F0810010024027
:101BB0000018014000080140000C0140104810B519
:101BC0000E4901604FF48271416000218160C16063
:101BD0004FF400720161C0E905120822C0E9072133
:101BE000416281620A21C162FFF73CF9002803D0FB
:101BF000BDE81040FEF72ABD10BD000000300140D6
:101C0000640200201CB500240F4800940D49019483
:101C100001604721C0E9011440F2E731C160802131
:101C20008161FFF7B1FB08B1FEF710FD0094694632
:101C300005480194FFF76AFB002801D0FEF706FD76
:101C40001CBD000000100040BC020020FEE7FEE7C3
:101C50007047F8B515460E460B4600920446012221
:101C6000022100F011F840B93346002280212046BD
:101C7000009500F009F8002804D0606D40F02000C5
:101C800060650320F8BD00002DE9F8431E4691462B
:101C900088460446089DFEF7FBFD401B351AFEF7FB
:101CA000F7FD074625480068C0F3CB30684338E0AD
:101CB000701C37D0FEF7ECFDC01BA84203D215B153
:101CC000009860B32CE02068416821F0E001416099
:101CD0006068B0F5827F0BD1A068B0F5004F02D0EC
:101CE000B0F5806F04D12068016821F040010160E7
:101CF000A06AB0F5005F09D12068016821F40051A5
:101D000001602068016841F400510160012084F8FD
:101D10005100002084F850000320BDE8F88300251E
:101D2000401E00902068816838EA010004D000213C
:101D30004945BDD10020F0E70121F9E70C00002062
:101D40007047FEF7ABBD30B58FB028216846FEF76F
:101D500069FB14210AA8FEF765FB01210804CDE9FF
:101D600000100024029402250491CDE907504FF49D
:101D7000E01009906846FEF7E5FE08B172B6FEE78E
:101D80000F20CDE90A054FF48060CDE90C40022117
:101D90000AA80E94FEF71AFE002801D072B6FEE7DC
:101DA0000FB030BD704700000148FFF770BB000066
:101DB000BC020020F0B50268204C214D214E224F7C
:101DC000224B4FF0804CA04209D0984207D060458A
:101DD00005D0A84203D0B04201D0B84204D122F0CD
:101DE000700E4A6842EA0E02A04209D0984207D01B
:101DF000604505D0A84203D0B04201D0B84203D11B
:101E000022F44075CA682A434D6922F080022A43B1
:101E100002608A68C2620A688262A04201D0984267
:101E200001D109690163012141610169C90703D039
:101E3000016921F001010161F0BD0000002C0140A9
:101E40000004004000080040000C00400034014045
:101E50002DE9F04F89B000254FF6FF7844464FF446
:101E6000A0734FF4F07229462846CDF80080FFF7A2
:101E70003FFC4FF0100ACDE9004AA9464FF4784BD9
:101E80004E46CDF808905C465B46E4A2282105202A
:101E9000FFF7AAFD14212246084600F02BFAE74C72
:101EA000012784F8206066624FF066366168012081
:101EB000884794F82000B7EB901FF7D120F040003E
:101EC00084F8200003A8A18920F8251000EB8500E4
:101ED0006D1CE18AEDB24180012D7DD0022D7CD0B8
:101EE000032D7BD0042DE1D1BDF80C00BDF81010FE
:101EF000401A00D54042BDF80E10BDF81220891AD4
:101F000000D54942404301FB010024F082FF22F04A
:101F10006DF824F051FF80B20290BDF81400BDF8B6
:101F20001810401A00D54042BDF81610BDF81A200E
:101F3000891A00D54942404301FB010024F069FFA2
:101F400022F054F824F038FF80B2079025F0CAFA46
:101F50000546029825F0C6FA294625F0ADF925F088
:101F600017F905463246B64B019124F065FF76D34A
:101F7000B44AB54B2846019924F0EEFF6FD302987E
:101F800000286CD00798002869D0BDF80C00BDF877
:101F90001410411A00D54942BDF80E00BDF81620B4
:101FA000801A00D5404249434043084424F031FFA1
:101FB00022F01CF824F000FF80B20290BDF810005F
:101FC000BDF81810401A00D54042BDF81210BDF8F7
:101FD0001A20891A04D502E01FE026E033E04942C6
:101FE000404301FB010024F014FF21F0FFFF24F027
:101FF000E3FE80B225F076FA0546029825F072FAE3
:10200000294625F059F925F0C3F8054632468C4B90
:10201000019124F011FF48D221E0142142460846E4
:1020200000F068F95A46142116E0424614214FF494
:10203000E67000F05FF95A464FF496715FF01400B5
:1020400000F058F932E742464FF49671142000F040
:1020500051F95A464FF496714FF4E670F0E70025B7
:1020600042464FF496714FF4E67000F043F91421A4
:102070005A46084600F03EF9CDE9008A5B4673A255
:1020800028210520CDF80890FFF7AEFCCDE9008AA5
:102090005B4676A23C210520CDF80890FFF7A4FC12
:1020A0004FF47A70FEF7D4FA00E7664A664B28468A
:1020B000019924F051FFD2D3BDF81000BDF81410DF
:1020C000401A00D54042BDF81210BDF81620891AFA
:1020D00000D54942404301FB010024F09AFE21F063
:1020E00085FF24F069FE80B20290BDF80C00BDF8B7
:1020F0001810411A00D54942BDF80E00BDF81A204B
:10210000801A00D5404249434043084424F081FEF0
:1021100021F06CFF24F050FE80B225F0E3F9054673
:10212000029825F0DFF9294625F0C6F825F030F8A9
:1021300005463246424B019124F07EFE8FD3414A40
:10214000414B2846019924F007FF88D3BDF8107051
:10215000BDF80C60B81B25F0ADF901464B4825F0E1
:10216000ABF805466062B81925F0BCF9294625F0A0
:10217000CDF9474925F096FA4FF0FF3125F043FBA2
:1021800025F05CF9A085BDF81670BDF80E60B81B8F
:1021900025F090F901463F4825F08EF80546A062EB
:1021A000B81925F09FF9294625F0B0F93A4925F0EC
:1021B00079FA4FF0FF3125F026FB25F03FF9E08555
:1021C000454642464FF496714FF4E67000F092F89F
:1021D0000095CDE901A94C4656465F465B462FA2C5
:1021E00028210520FFF700FC0095CDE901643B465E
:1021F00032A23C210520FFF7F7FB4FF47A70FEF77F
:1022000027FA0095CDE901643B4634A22821052038
:10221000FFF7EAFB09B0BDE8F08F0000506C656184
:1022200073652061646A7573746D656E742074687B
:10223000652073637265656E2E0000001400002037
:102240006666EE3FCDCCCCCCCCCCF03F546F756302
:10225000682041646A7573742046696C6564212046
:10226000202020202020202020000000506C6561CC
:1022700073652041646A75737420416761696E21DA
:102280002020202020202020200000000000DC430F
:102290000000F04300008C430000A043546F7563BE
:1022A000682053637265656E2041646A757374209B
:1022B0004F4B212020202020200000002020202023
:1022C000202020202020202020202020202020200E
:1022D000202020202020202020000000202020205E
:1022E00020202020202020202020202020202020EE
:1022F000202020002DE9F843054616460D300092B7
:1023000082B2A5F10C000C4680B20B46FFF783F9B0
:1023100004F10D0083B2193881B22A4610460096A6
:10232000FFF779F9671C05F10109B9B21FFA89F0C5
:102330003246FFF7BFF9A5F10108B9B21FFA88F0DC
:102340003246FFF7B7F9671EB9B21FFA89F0324675
:10235000FFF7B0F9B9B21FFA88F03246FFF7AAF9D1
:1023600001B0334621462846BDE8F0430622FEF779
:102370000FB900000748064941626FF00C018185E2
:102380000549816240F24B11C18500207047000071
:102390001FD8813E140000200DFB2DBE3EB50F4C12
:1023A0000546002210212046FEF76DFA284600F06F
:1023B0000FF90020019064200090022302AA01A9D5
:1023C0000748FEF794FEBDF80800012241BA0D0946
:1023D00010212046FEF757FA28463EBD000801406E
:1023E00064020020FEB5064600256C463046FFF725
:1023F000D5FF24F815006D1CADB2052DF6D30020D5
:10240000431C99B20CE000BF34F8102034F811508E
:10241000AA4203D924F8105024F81120491C89B28B
:102420000529F1D398B20428EAD300215FF0010016
:1024300034F81020401C114480B289B20428F7D32C
:102440000320B1FBF0F0FEBD2DE9F041074C06463C
:102450000D462078FFF7C6FF07466078FFF7C2FFFA
:10246000378028800120BDE8F081000010000020A6
:102470002DE9FF41284C06460D46206801684FF6BD
:10248000C777394001602068016841F02001016090
:10249000694602A8FFF7D8FF002838D001A903A891
:1024A000FFF7D2FF002832D0206801683940016070
:1024B0002068016841F008010160BDF80C00BDF81A
:1024C0000820904203D800F132018A4205D38242AB
:1024D00020D802F1320188421CD2BDF80430BDF888
:1024E00000108B4203D803F13204A14204D3994275
:1024F00010D832318B420DD2104440083080BDF8E4
:102500000000BDF80410084440082880012004B0F1
:10251000BDE8F0810020FAE76402002070B50546AE
:1025200001212948FEF7A2F9284C40B194F8200077
:1025300001063DD520F0800084F820003FE02348CC
:1025400000F116010C3015B1FFF792FF24E0FFF700
:102550008FFF08B3B4F92C0024F0ACFF0546A08926
:1025600024F0C0FF616A24F0D1FF294624F03CFE2C
:1025700024F080FFA081B4F92E0024F09BFF0546D3
:10258000E08A24F0AFFFA16A24F0C0FF294624F0BE
:102590002BFE24F06FFFE08294F8200000060ED49A
:1025A000C02084F82000A089A082E08AE08306E0B1
:1025B0000020A082E0834FF6FF70A081E08294F8B3
:1025C000200000F0800070BD000C014014000020CD
:1025D00001B56423012269460148FEF7D5FC08BD18
:1025E00064020020FEE70907090E002804DB00F161
:1025F000E02080F80014704700F00F0000F1E020A8
:1026000080F8141D704770B5044600256FF02F0642
:1026100008E02068411C2160007805EB850106EB8D
:10262000410145182068007800F004F80028F0D136
:10263000284670BD3038092801D801207047002095
:102640007047000010B54421074800F07AFF0022CF
:102650001E2106481EF0BEFE054CA06002F05AF88E
:102660000020207010BD0000A42A0020C9470008E7
:10267000C00100202DE9F0470E468146174611465D
:10268000304600F011F900287ED00022394630464D
:1026900000F0B6F800284FF0000076D1B6F904C07B
:1026A000B6F90030F288ACEB03010FFA81FAB6F903
:1026B0000210B7F80280521AA8EB01080FFA88F846
:1026C00012B2B8F1000F0EDD63F30F046CF30F05C7
:1026D00001EB080061F31F4460F31F45C9F8004097
:1026E0000120C9F80450B7F906107388CB1AD21A22
:1026F00012B2002A13DDB6F9063099420FDA338898
:1027000063F30F04B38861F31F4463F30F051144AF
:1027100061F31F4509EBC001401C0C604D60B7F927
:102720000220B6F902108A4200DD1146B7F90630E0
:10273000B6F90620934200DA1A463B88B6F900C083
:10274000521AA3EB0C031BB212B2002B10DD002AAD
:102750000EDD634463F30F058B1863F31F456CF3C1
:102760000F0409EBC00361F31F441C605D60401C53
:10277000B7F904703388FE1AAAEB06031BB2002BCC
:1027800011DD67F30F0401E00FE00CE061F31F447B
:102790003B4463F30F05114461F31F4509EBC0018E
:1027A000401C0C604D60BDE8F0874FF0FF30FAE749
:1027B00070B5B1F90030B2F90040A34200DC234605
:1027C0000380B1F90250B2F90240A54200DD2C4667
:1027D0004480B1F90460B2F90450AE4200DA3546E3
:1027E0008580B1F90610B2F90620914200DB11464E
:1027F000C1800120AB4201DC8C4200DD002070BDB5
:10280000F8B50D460446B0F90000B1F900101646BF
:10281000884247DBB4F90210B5F90220914241DB4E
:10282000B4F90410B5F9042091423BDCB4F9061068
:10283000B5F90620914235DC96B3ADF8000060880A
:10284000ADF8020032466946284600F099F80028A3
:1028500027D0A088ADF800006088ADF802003246AD
:102860006946284600F08CF800281AD02088ADF878
:102870000000E088ADF8020032466946284600F0C4
:102880007FF800280DD0A088ADF80000E088ADF8F2
:10289000020032466946284600F072F8002800D04F
:1028A0000120F8BD0020F8BDB0F90020B1F90430D6
:1028B0009A4213DCB0F90420B1F900309A420DDBE2
:1028C000B0F90220B1F906309A4207DCB0F90600EF
:1028D000B1F90210884201DB0120704700207047E7
:1028E000F8B50D460446B0F90400B1F900101646DB
:1028F000884243DBB4F90600B5F9021088423DDB9B
:10290000B4F90000B5F90410884237DCB4F90210BC
:10291000B5F90620914231DC76B3ADF8000060884D
:10292000ADF8020032466946284600F029F818BB87
:10293000A088ADF800006088ADF802003246694614
:10294000284600F01DF8B8B92088ADF80000E088EE
:10295000ADF8020032466946284600F011F858B931
:10296000A088ADF80000E088ADF802003246694664
:10297000284600F005F808B10020F8BD0120F8BD98
:102980002DE9FC4114460E46B1F90020B0F90010C3
:1029900005468A423ADBB5F90400824236DCB6F9D4
:1029A0000270B5F90220974230DBB5F906309F423C
:1029B0002CDC002C75DD401A9A1A401C521C00B207
:1029C00012B200EBD07002EBD27240105210904263
:1029D00000DB1046844200DD0446ADF80010288874
:1029E00000222044ADF804006888ADF80200688831
:1029F00031462044ADF806006846FFF7C1FF40B1FC
:102A0000BDF804002044ADF804003FE00020BDE81C
:102A1000FC81E8880022001BADF80200E888ADF8D0
:102A2000060031466846FFF7ABFF28B1BDF8040049
:102A30002044ADF8040011E0A8880022001BADF886
:102A40000000A888ADF8040031466846FFF798FFFB
:102A500050B1BDF80000001BADF80000BDF8020049
:102A6000001BADF8020016E06888ADF80200688827
:102A700000222044ADF8060031466846FFF780FF8B
:102A800070B1BDF80000001BADF80000BDF80600F5
:102A90002044ADF80600314668461CF02BF8B6E736
:102AA000FFE70120B3E710B5B1F90040B2F90030FB
:102AB0009C4200DA23460380B1F90240B2F90230A9
:102AC0009C4200DA23464380B1F90440B2F9043055
:102AD0009C4200DD23468380B1F90610B2F906203E
:102AE000914200DC1146C18010BD00002DE9F0418B
:102AF0008AB007461EF00AFC0026A34C0546009645
:102B00000FB1F86801E011F0B7F8606000691BF0E0
:102B1000EDFE6068406908B11BF0E8FE6068C069BE
:102B20001BF0E4FE6068006A1BF0E0FE606801696B
:102B300091B11CF08DF820F02BFC20F055F9606865
:102B4000B0F85011E9B30068017CC9071FD0C06814
:102B50004068E0B1002715E0A0F850610AB0BDE878
:102B6000F081C11991F8301151B900F5AC7000F045
:102B70003FFD616801EBC7010A6B0260496B416070
:102B80007F1CBFB26068B0F85011B942E9D86068E4
:102B90004FF48071303017F045FB6068202100F55C
:102BA000987017F03FFB6068A0F8506128461EF04F
:102BB000A7FB009060680068436A13B1226800991F
:102BC000984717F073F900F02BF900F0FDF86F4DFE
:102BD0006F69D7BB16F01DFF16F016F807460022E6
:102BE0007F211BF098FD10F007FA014600223846BD
:102BF0001BF080FD10F09EFC0146002238461BF0C1
:102C0000E4FD0022032138461BF0D5FD00220321FC
:102C100038461BF0C1FD0022032138461BF0C1FDE0
:102C20000022032138461BF0C1FD00220321384653
:102C30001BF0C6FD56A1384616F06CFE00231A465E
:102C40000621384617F0DAFE6F6128681EF058FB3F
:102C50004FF4967840450CD2206841F28831884282
:102C600034D96968009808446860A868401CA86066
:102C70002CE01EF04BFB28606068406828B10068BB
:102C80004FF47A71B1FBF0F000E02120696809B9D6
:102C900001216960A968F1B14FF47A7251436A6801
:102CA000B1FBF2F46E60AE60844200D9044628693C
:102CB00020442861E868401CE8601EF0BDFBC0F1BC
:102CC0006403224633A1384616F05BFE2E4D0835CC
:102CD0006C6814B137E00446E4E716F09AFE15F08C
:102CE00093FF044600227F211BF015FD10F084F9AC
:102CF0000146002220461BF0FDFC10F01BFC0146A3
:102D0000002220461BF061FD0022032120461BF01B
:102D100052FD0022032120461BF03EFD002203212C
:102D200020461BF03EFD0022032120461BF03EFD05
:102D300017A1204616F0EEFD00231A460421204676
:102D400017F05CFE6C6028681EF0DAFA40457FF6EA
:102D500005AF1EF0DBFA286002A817F03FF90499CE
:102D60000298401A820A514200EB81206621B0FB92
:102D7000F1F39DF821109DF82000CDE9000109A193
:102D8000204616F0FEFDE9E678000020102900201C
:102D90003F0000002575204650530A257525252043
:102DA0004350550025752E2575206B42207573659F
:102DB0006420282564202525290A256425252066E8
:102DC0007261672E0000000070B50A4D002400BF3C
:102DD000C4EBC40655F8260008B117F0DBF805EB84
:102DE00086001C2117F01EFA641CE4B2042CEFD3F9
:102DF00070BD0000802B0020084949680AE04A683D
:102E0000824202D00A68824203D10A7E42F0010265
:102E10000A7649690029F2D1704700004C00002071
:102E2000704700000421014800F08BBB982A002065
:102E30002021014800F085BBB02A00202DE9FF4188
:102E40000446DDE90A671D004FF0000002D1B6F527
:102E5000807F2BD0039001900290ADF80C10009071
:102E6000ADF80410ADF80A20ADF80E203B4632460E
:102E7000294668461BF09EFD3B463246294601A87E
:102E80001BF098FD3B463246294602A81BF092FDF6
:102E90003B463246294603A81BF08CFDBDF90000D5
:102EA000BDF90430984209DA054608E02080491E41
:102EB0006080A180521EE280BDE8FF811D46BDF901
:102EC0000820BDF90C108A4201DA164600E00E46D1
:102ED000B54203DA984206DB184604E08A4201DA7A
:102EE000104600E00846801E2080BDF90030BDF984
:102EF0000420934201DD1D4600E01546BDF908009F
:102F0000BDF90C10884201DD064600E00E46B542D0
:102F100005DD934201DD194604E0114602E08842D6
:102F200000DD0146891CA180BDF90230BDF90620F3
:102F3000934201DA1D4600E01546BDF90A00BDF9CD
:102F40000E10884201DA064600E00E46B54205DA68
:102F5000934201DA194604E0114602E0884200DAA1
:102F60000146891E6180BDF90230BDF906209342F9
:102F700001DD1D4600E01546BDF90A00BDF90E1041
:102F8000884201DD064600E00E46B54205DD93426B
:102F900001DD194604E0114602E0884200DD0146E9
:102FA000891CE18088E700002DE9F04115460E46B6
:102FB0000746114C1EF0AAF980462B463246394688
:102FC000204615F063F820B10020A062E06950B1FE
:102FD00010E02C21204617F025F94FF00040A062A8
:102FE0000020BDE8F08140461EF08AF9E06108B992
:102FF0000120E0612046F4E7D42A002010B5142116
:10300000074800F09EFA15F007F840B10549016045
:1030100005494160054981600549C16010BDFEE771
:10302000BC2A0020F17901086D7D0108397F010873
:10303000BD79010870B50D4604461021284617F0E9
:10304000F1F820680078012804D0022807D004286D
:1030500007D008E0A08A2880E08A688003E0E06862
:1030600000E00A20686020684268002A03D02946F0
:10307000BDE87040104770BD2DE9FE430446808ACC
:1030800010B9E08A002873D0D4F82C805FEA0800D9
:1030900010D120460AF0A7FA5FEA000868D020465F
:1030A0000CF02CFE00220921404613F0F1FE60785E
:1030B00080075DD44FF4807900274E4645460021B5
:1030C000284619F00DFD384407B20021284619F0B2
:1030D00025FDC11700EB11600012704306B22846AF
:1030E00018F0FCFC0500EAD10FB94E450CD078422F
:1030F00001B24FF4803090FBF6F002B26B4604F15F
:10310000140000951BF056FCADF80450ADF80850C3
:1031100094F8400000F00F000328404616D018F045
:103120002FFE0646404618F0E5FC03460C200090B2
:10313000B4F916103246404609F000FEADF808001A
:10314000404618F029FDC10713D018E018F0ACFD77
:103150000646404618F048FD024603200090B4F9A8
:1031600014103346404609F0E9FDADF80400E7E7E6
:1031700036E0BDF90410002901DDADF804508107E7
:1031800005D4BDF90410002901DAADF80450410757
:1031900005D4BDF90810002901DDADF8085000077D
:1031A00005D4BDF90800002801DAADF8085002AADC
:1031B00001A9204620F088FCBDF90820BDF90410C3
:1031C000404600F08AFA6078800709D4208BBDF869
:1031D000041008442083608BBDF808100844608305
:1031E000BDE8FE832DE9FC5F0446C06A5FEA000B80
:1031F00071D094F8400000076DD015F0D9F9019016
:1032000000684021457E584619F0B4FD4FF0000893
:1032100018B9A4F81E80A4F81C80584618F0A2FD26
:103220008246584618F0A5FD064694F840004FF037
:10323000640900F00F000C2802D003284CD09AE05B
:10324000A4F81C8056B1B4F91E50002715F0B0F94F
:103250000068407EC0F16401484622E0B4F91E00D7
:10326000C5F16401484390FBF9F0E083584618F03B
:1032700041FC0546584618F083FD02460C2000909C
:10328000B4F91E102B46584609F058FDE08302465B
:1032900000231EE07A1917B201FB05F292FBF0F24F
:1032A00015B2002DF6D1ADF80070A4F81E806A4664
:1032B0000021204620F008FC41F6FF72BDF90030E5
:1032C000514258460AF026FBBDF80010012308447D
:1032D00002B200214CE09AE0A4F81E80BAF1000F7F
:1032E0000AD0B4F91C50002715F062F9006849466D
:1032F000407EC0F1640022E0B4F91C00C5F1640115
:10330000484390FBF9F0A083584618F06DFC054641
:10331000584618F0C9FC034603200090B4F91C106D
:103320002A46584609F00AFDA083014600231EE004
:103330007A1917B200FB05F292FBF1F215B2002DDB
:10334000F6D1ADF80070A4F81C8000226946204632
:1033500020F0BAFB41F6FF72BDF9003051425846E9
:103360000AF050FABDF800100123084401B200220F
:1033700058461AF033FEA08B002848D1E08B002875
:1033800045D1C6B9584618F0FBFC0546584618F01A
:10339000B1FB002D06DC00280DDD002D02DA012333
:1033A0002A4604E0002806DA0123404202B2002146
:1033B00058461AF013FEBAF1000F19D1584618F00A
:1033C00013FC0546584618F06FFC002D07DC00285A
:1033D0000EDD002D03DA01230022294605E0002836
:1033E00006DA01230022404201B258461AF0F6FDE7
:1033F0000A215846019A13F04BFD6078800706D4E5
:1034000014F8400F20F00F00207044F8148CBDE831
:10341000FC9F7FB50E46040003D110F02DFC040084
:103420002CD010F09DFC002828D094F828004007EC
:1034300024D4002506B3ADF80050ADF80250204664
:1034400010F032FC401EADF80400204610F072FC73
:10345000401EADF806006A46314602A8FFF7A8F9FB
:1034600000280BD02068017C890708D5DDE9000120
:10347000C4E90C01012029E0A4F850517FBD826904
:103480000AB102A9904700260AE004EBC601002217
:1034900002A83031FFF7B4F90028EFD1761CB6B29C
:1034A000B4F85001B042F0D880B2202804D204EB26
:1034B000C00002A9303004E0A4F8505104F13000FB
:1034C00069460EF020F9B4F85001401CA4F85001F0
:1034D00060680028D2D01EF05DF87FBD70B505464B
:1034E00000F012F804460CE02146284600F01EF8D1
:1034F00006462146284600F0A2F8204616F04AFD6E
:103500003446002CF0D170BD002800D040687047D0
:1035100000B503460022FFF7F7FF03E01846521CF0
:1035200000F004F80100F9D1104600BD0068091D43
:1035300040587047006840587047002800D08068A5
:10354000704700224260C91C21F0030182600160C3
:10355000704770B504460068083016F08FFC05000F
:1035600013D00146002220461FF03CF82946204691
:1035700062681FF031F8616819B12A4620461FF0D1
:1035800031F86560A06800B9A560284670BD2DE9D6
:10359000F0410C4606000AD04CB1FFF7B5FFA0423F
:1035A00008D13046FFF7D5FF051E01D01EE00020F0
:1035B000BDE8F0813068083016F060FC051EF7D0D9
:1035C00030682A460759304639461FF005F83A4612
:1035D000294630461FF006F82A46214630461FF09D
:1035E00001F82246294630461EF0F6FF2846DFE75E
:1035F00070B504460068083016F040FC050013D092
:103600000146002220461EF0E7FF29462046A26818
:103610001EF0E8FFA16819B12A4620461EF0DCFF23
:10362000A560606800B96560284670BD28B1416832
:1036300009B9806808B1002070470120704770B553
:1036400004000DD0FFF760FF00228842204608D119
:10365000FFF76CFF6060011E01D000221EE0A26037
:1036600070BDFFF76AFF8842206808440AD10168EC
:10367000A16029B12046BDE8704000221EF0ACBF19
:10368000626070BD05682046FFF750FF064602469F
:10369000294620461EF0A0FF2A4631462046BDE8B6
:1036A00070401EF09FBF10B50446006882680AB1E2
:1036B0002146904720680068002801D02060F5E787
:1036C00010BD8068002801D0B0F9160070478068EE
:1036D000002801D0807E8009704770B516460546E7
:1036E0000C4651EA06001AD0284617F001FBA868DC
:1036F00001233246018A21440182A868418A31446B
:1037000041822146284619F0C1FE00220B2128469D
:1037100013F0BEFB012803D1284619F010FE01204A
:1037200070BD77B581B00E46050017D0622219F042
:1037300005F9040012D0206880B128463146632282
:1037400019F0FCF810F0FF0208D023682046039916
:1037500098470090BDF80000ADF80C00039804B045
:1037600070BD00002DE9F047074692B0408C1A9ECC
:1037700040F00800788490463A8499468A46328917
:10378000384619F0DBF80546A7F8209032895146F3
:10379000384619F0D3F80446788CA54220F008008A
:1037A000788403D12904B1EB044F68D0A7F82080B6
:1037B00032895146384619F0C1F805468046A7F8C7
:1037C0002090514638460BF0F7FA318900682A46B6
:1037D0001CF0E8FC30890B2823D147F6FF794D45D2
:1037E00001D04C451DD1384619F07BFA00EBD07062
:1037F0004510384618F031F900EBD0704010C8453C
:1038000006D1691C431C994200DA00E0194688463B
:103810004C4506D1691C421C914201DA6C1C00E047
:1038200014461948FFF795FE05002BD02F60C5E917
:1038300003843089A8806846C5F808A00DF0D8F93F
:103840001248FF21CDE90050114802901148039021
:1038500000200890CDE9090130880B9070889DF810
:10386000421040420C90F0680790002060F3000185
:103870008DF842103069069068460DF02DFA12B0AE
:10388000BDE8F087FEE70000C82A0020D9640208DE
:10389000D56602083166020814210148FFF751BEBF
:1038A000C82A00202DE9F84F002590468946064693
:1038B0002C460427E6E000BFF06807EBC40140583F
:1038C00081017CD480B230EA090112D05FF000029D
:1038D00030EA08000FD00020824270D0F0686A46BB
:1038E000102150F8340082461CF0BEF9002871D136
:1038F00003E00122ECE70120EEE76A461121504681
:103900001CF0B2F9002865D16A46122150461CF01D
:10391000ABF900285ED16A46132150461CF0A4F989
:10392000002857D16A46152150461CF09DF9002801
:1039300050D16A46142150461CF096F9F0BB6A46F5
:103940000A2150461CF090F9C0BB6A466B215046D4
:103950001CF08AF990BB6A466C2150461CF084F931
:1039600060BB6A46012150461CF07EF930BB6A46B6
:10397000042150461CF078F900BB6A4602215046EB
:103980001CF072F9D0B96A46032150461CF06CF95C
:10399000A0B96A46052150461CF066F970B96A461E
:1039A000062150461CF060F940B96A463221504663
:1039B0001CF05AF910B96A466E2101E00AE060E095
:1039C00050461CF051F928B96A466D2150461CF04A
:1039D0004BF910B10320BDE8F88F6A4669215046C3
:1039E0001CF042F9F0BB6A466A2150461CF03CF9D3
:1039F000C0BB6A466E2150461CF036F990BB6A4641
:103A00006D2150461CF030F960BB6A4637215046A4
:103A10001CF02AF930BB6A46382150461CF024F9C4
:103A200000BB6A46352150461CF01EF9D0B96A46E3
:103A3000402150461CF018F9A0B96A46452150466D
:103A40001CF012F970B96A46412150461CF00CF97D
:103A500040B96A46422150461CF006F910B96A4640
:103A6000432100E009E050461CF0FEF828B96A4600
:103A7000492150461CF0F8F808B1022501E005B9CB
:103A80000125641C708CC0F30510A0423FF614AFF2
:103A90002846A0E7014840687047000078000020F1
:103AA0000549002048600861C86088600860486176
:103AB00002490860486070471029002080000020FB
:103AC000C0F30410072800D907207047A0F57F41F4
:103AD000FF3905D0002804D0712803D208490AE034
:103AE0001F2070470749713880B2096829B1064A1A
:103AF0005268904201D2085C704700207047000075
:103B000098DA0208EC0100200002002010B518210C
:103B10000348FFF716FD03490120087010BD00009F
:103B2000742A0020080200202DE9F04190460C463E
:103B3000050015D0FCF725FC0A4F06462146BA6859
:103B4000284690470446BA682819414690470146DE
:103B5000701A03E06218AA5C2A55641CA042F9D2CC
:103B6000BDE8F0811C0200202DE9F041094D90468E
:103B70000E466A681C46074619469047306020B1D9
:103B800020686A68384400219047C8F80000BDE802
:103B9000F08100001C0200202DE9F04F87B08A461A
:103BA000DDE910581F4693460446002105B12980DF
:103BB0005CB12078002809D0BAF1000F05D00026AA
:103BC00018F0060F15D0002004E0002007B0BDE873
:103BD000F08F401C215C0A2904D00D2902D0002955
:103BE000F7D100E0401C002DF0D04FF0FF312980CC
:103BF000ECE75FEA887001D541F6FF778946084611
:103C00008DF81410049127E00498CDF8189068B34B
:103C10004FF0000C05AA06ABCDF80CC0CDF8008023
:103C2000CDE9013220443B465A4651461DF016FE6E
:103C300006997A1A314417B20EB288B10499014438
:103C4000049120780A280BD00D2809D0605C0A283E
:103C50000FD00D280DD00846205C08B1002FD3DC12
:103C6000049848B105B12E800498AFE74FF0010CDD
:103C7000D0E7481C0490F3E7064A04A9204652689E
:103C80009047002DF0D001460022504613F014FA60
:103C900006B2E8E71C0200202DE9F04117468846ED
:103CA00006001ED0002F1CD0FCF76BFB04463846E4
:103CB000FCF767FB050014D00B4A2C444146926880
:103CC00030469047411903E0621BB25C3255641ED6
:103CD000A142F9D930442A463946BDE8F04116F0F0
:103CE00063BABDE8F08100001C02002000230278C6
:103CF000232902D0012A0DD00FE02AB10021012A88
:103D000004D0022A04D008E0012101E0017004E09F
:103D1000017001E0202902D00123184670470221DA
:103D2000F6E72DE9F0410E46804602460021334673
:103D300008461DF0D1FF04460027401C16F09EF8EF
:103D4000050008D02F5533464246611C1DF0C4FFC4
:103D50002846BDE8F081FEE72DE9F0471E461446EF
:103D60000D468246DDF8209015E000BF4FEA54086A
:103D700008FB0657394650464A469047002808DD5A
:103D800044F30000C0EB540407EB0605A4F1010462
:103D900001E005DA4446002CE8D12046BDE8F08772
:103DA0003846FBE72DE9FC5F9B460CAB8A46814613
:103DB000DDE9116093E81210DDE90F575FEA8078C2
:103DC0004FF030031AD45EB15FEAC07808D000F03B
:103DD0000C0858EA0C0803D0761E01E00B55641C51
:103DE000BC4204D2202CF9D301E00B55641C5FEADD
:103DF000C07803D0B44201D2202CF6D35FEAC06869
:103E000025D55FEA40580AD44CB1BC4201D0B44237
:103E100005D1641E03D0102D03D1641E04E0102DC3
:103E200002D0022D0AD00EE0850603D4202C1ED22B
:103E3000782506E0202C1AD2582502E0202C16D234
:103E400062250D55641C202C11D20B55641C202CAE
:103E50000DD2BCF1000F01D02D2306E0430701D5A0
:103E60002B2302E0030702D520230B55641CCDE968
:103E700000BAC846154681468B46AA46800714D12B
:103E8000274607E02A46DDE900316D1C2020C446A4
:103E9000E0477F1CB742F5D307E02A466D1C641E3D
:103EA000DDE900311BF80400C047002CF5D15FEAC2
:103EB000897006D409E02A46DDE900316D1C202016
:103EC000C047A5EB0A00B042F5D32846BDE8FC9FE9
:103ED0002DE9F04F8FB099468B46DDE91818DDE9E2
:103EE0001C63DDE91A4792468646002209B923F091
:103EF0001003580507AD00D5C9B1B1FBF4F004FBC0
:103F00001010C0B20A2801D2303009E05FEA836C99
:103F100002D54FF0410C01E04FF0610C60440A38CB
:103F2000B1FBF4F1A854521C09B1202AE5D3CDF815
:103F30000880CDE90563CDE90052CDE903474B4642
:103F4000524659467046FFF72DFF0FB0BDE8F08F7F
:103F50002DE9FF4F8FB01CACDDE9239594E80308F1
:103F600020AC94E8C004002450EA010201D125F0FD
:103F700010056A050DF11C0802D550EA010217D0A0
:103F800032463B46FCF762F9D2B20A2A01D23032FD
:103F900006E0AB0601D5412300E061231A440A3A4A
:103FA00008F80420641C50EA010201D0202CE7D359
:103FB000CDE90084CDF808B0CDE90595CDE9036AD7
:103FC0000FAF97E80F00FFF7EDFE13B0BDE8F08FDD
:103FD0009A4200D288547047704700002DE9FF4F85
:103FE00089B005460A9800249246002800D1FE4D6B
:103FF0008FE1252804D02246641C53460A990BE21F
:10400000491C4FF0000808460C9101782B2919D063
:1040100004DC202919D0232904D119E02D290ED040
:10402000302909D00026C8B2FEF704FBB0B10CA8B5
:10403000FEF7E9FA06461FE048F001010AE048F001
:10404000020107E048F0040104E048F0080101E043
:1040500048F01001401C88460C90D6E70C9908786F
:104060002A2809D1169840C81690002E02DA48F086
:1040700002087642491C0C910C984FF0000B017815
:104080002E2919D1401C0C9048F480680078FEF766
:10409000D1FA20B10CA8FEF7B6FA83460CE00C9AD0
:1040A00010782A2808D1169901C91691002800DC39
:1040B0000020521C83460C920C9801786C290AD07F
:1040C00004DC68290FD06A2919D128E0742929D085
:1040D0007A2914D126E0401C0C90017848F48078AD
:1040E0006C291CD00BE0401C0C90017848F0800833
:1040F000682904D148F04001401C88460C900146D4
:104100000078692822D015DC62281FD00DDC252814
:1041100072D050281AD058287FF46DAF16E048F4BA
:104120000071E9E748F48071E6E7632879D06428F4
:10413000F2D10BE0732875D004DC6F2806D070280C
:10414000EAD103E0752801D07828E5D178280DD090
:1041500058280BD070280BD0502809D06F2816D0C3
:10416000622816D00A2228F0100016E0102207E07C
:104170004878102248F48878562804D1491C0C91BC
:104180000878582807D00878502804D006E008227C
:1041900009E0022207E048F02000804608786928FC
:1041A00003D0642801D028F00C085FEA485001D5FC
:1041B00028F00108087869281FD064281DD05628E7
:1041C00064D05FEA885072D51698CDF818B0C01D3B
:1041D0000021CDE904210291CDE9076820F0070014
:1041E0005346F0E80212CDE9001216902246284606
:1041F0000A99FFF7ADFE88E009E15FEA885022D511
:10420000169804AFC01D20F00703F3E802011693CF
:10421000002387E80C08CDE90768002903DA0122AA
:1042200002E07FE0A6E00022002302921A461B1A59
:104230008A4103DB0022404262EB010153462246E1
:10424000CDE90001D3E75FEAC85004D5169901C94A
:104250000FE0404215E05FEA486003D5169911F877
:10426000040B06E05FEA0860F0D5169931F8040BFC
:1042700000B21691CDE9022BCDE90468C10F0028E8
:10428000E7DD53462246CDE900013AE01699AAEB54
:10429000040201C9169141680968009103680A98EF
:1042A00001192846FFF79AFE04442FE0FFE75FEA72
:1042B000C8500CD5CDE9022BCDE904681698002131
:1042C000534604C8CDE900211690224619E05FEA62
:1042D000486003D5169810F8041B08E05FEA0860F0
:1042E000169803D530F8041B89B200E002C8169076
:1042F00001AF0020009187E80508CDE90468534626
:10430000224628460A99FFF7E3FD04460C98401C14
:104310000C900C99087800287FF46BAE54457DD240
:1043200022467DE001275FEA887006D509E0224633
:10433000641C534620200A99A84738467F1CB04287
:10434000F5D316982246641C10F804CB16905346F9
:1043500060460A99A8475FEA887006D4D6E72246E5
:10436000641C534620200A99A84738467F1CB04257
:10437000F5D3CBE7169850F8049B16904B46BBF14B
:10438000000001D0014601E04FF0FF31484600E057
:10439000401C02780AB1491EFAD2C71A5FEA485097
:1043A00003D558465F4500D307465FEA887006D5B7
:1043B00011E02246641C534620200A99A84738463B
:1043C0007F1CB042F5D306E0224609F10109641CC6
:1043D00053460A99A84799F8000040B15FEA48514E
:1043E000F2D5BBF1010B01E0D93F0008ECD25FEA46
:1043F000887006D48AE72246641C534620200A9916
:10440000A84738467F1CB042F5D37FE706E0224636
:10441000641C534625200A99A84777E7AAF10102B0
:10442000534600200A99A8470DB02046BDE8F08FFA
:1044300010B502004FF000000CD04B1E194200D006
:10444000FEE70A44521E9A43B2F5803F02D20C2A7C
:1044500001D9104610BD0C2010BD08444A1E401E54
:104460009043114200D0FEE7704700002DE9F04173
:104470000F4601210025044641862E460BE01B49CC
:10448000FBF7F8FF10B16D1CADB202E0608E401C6E
:104490006086761CB6B257F8260010B10178002964
:1044A000EDD1208EA8421ED0A06A002610B115F0D2
:1044B00071FDA662E06A10B115F06CFDE662E800DD
:1044C00015F0DCFCA06238B1680015F0D7FCE062A2
:1044D00018B1A16A11B102E0FEE7FEE7002569000C
:1044E00015F0A0FE2586BDE8F0810000142101082A
:1044F0002DE9F84F8146407A0F4600F00700022868
:1045000019D010468046974200DD3A4616460320F1
:104510002A4C2B4A00EB460020F00305A0681168E6
:104520001035411A636805EB010C9C4505D24168C2
:1045300021F0004124E00846E4E79D4219D8924664
:104540004FF0FF3B48196168884210D90022694644
:104550001C48CDF800B00BF0ABFF002269461A48AA
:104560000BF0A6FFA168DAF80000091AEAE7A068D4
:10457000DDE7284615F082FCC0B1416841F00041FA
:1045800088EA6702416089EA02010160416801F03E
:104590004041491C31F0804141608681A0F80E8085
:1045A00005D500F110018160BDE8F88FFEE7A16834
:1045B00001F1100229448260A160F5E78800002023
:1045C000E8010020D5D500081105010870B586B0B6
:1045D00000224F4C8DF808208DF80C208DF810200B
:1045E000E2888A4201D0FF22A270E18090F83C204C
:1045F000142302F003024FF4B475012A24D0022AD6
:1046000068D0A578AA4211D010F8265F05EB0515F1
:1046100005EB4505B5FBF3F52570407800EB001080
:1046200000EB4000B0FBF3F06070A27004AA03A896
:10463000CDE9000201EB41004FF6FF7101EA4000B5
:1046400002AB627821781BE0A678B24210D0868C4B
:1046500006EB46067602B6FBF5F5A58090F8270036
:1046600000EB001000EB4000B0FBF3F06070A270B4
:1046700004AA03A8CDE90002C9B202AB627844E003
:1046800008F0AEFC9DF80C00BDF8003044099DF820
:10469000082064F30203ADF80030D308BDF8002011
:1046A0009DF8101063F3C702ADF80020CA08BDF8EA
:1046B000001062F30C21ADF800108108BDF8000075
:1046C00061F34F30ADF8000080B20090BDF80000FB
:1046D00006B070BDA678B24210D0868C06EB4606B6
:1046E0007602B6FBF5F5A58090F8260000EB0010E9
:1046F00000EB4000B0FBF3F02070A27004AA03A806
:10470000CDE90002CAB2217802ABA088B8E7000068
:104710003401002010B5084C012020700748FEF736
:10472000F3FE0028A06803D0BDE810401CF032BFA3
:10473000BDE810401CF022BFC0010020A42A0020C8
:1047400010B5044690F84200A16B820709D4B4F872
:1047500040204AB1A2F57F43FF3B1BD0521EA4F874
:104760004020B4F84020AAB909B1820712D52146E9
:104770001448FEF764FFFFF7CDFFE16809B120465A
:104780008847216909B1204688472046BDE8104086
:1047900015F000BCE26B52422263002911D082075F
:1047A00002D4626B524222634210521C62F34100F7
:1047B00084F84200A26A206A2262A062E06AE16292
:1047C000A06310BDA42A002070B5304D68681CF0AD
:1047D00097FD0646687880F00100687047E0002089
:1047E000287094F842006978C0F380028A4242D06F
:1047F00061F3820084F84200216B8A19030719D4FF
:10480000002917DC002A15DBC00709D1616939B11D
:1048100020468847216A01442162A16A0844A062B7
:10482000A16809B12046884794F8420040F008008A
:1048300084F84200206B8019206316D4E16A884214
:1048400000DD2163E169204688470146606A8842AD
:1048500004D0616262680AB120689047D4E90B0114
:10486000814202DB2046FFF76BFF287818B1084829
:10487000FEF74AFE03E021460548FEF757FE040016
:10488000ADD11CF043FD686070BD0000C001002088
:10489000A42A002070B5044640680D4608B1FFF711
:1048A000F9FF2268002A04D029462046BDE870405E
:1048B000104770BD89B20CF08BBE89B20CF0C4BE3B
:1048C0002DE9FF4F99B09846DDE926B12D9816469F
:1048D0008A464FF00009042811D0052811D0062877
:1048E00012D0142873D10127022508FB06F00E9080
:1048F0001A980024401E0D90701E06904AE1002771
:10490000F2E701270325F0E701270225FFF7C2F8A8
:104910000068D0F83890E8E7289860430BEB202235
:10492000299860430AEB202110124FEA212E7DD4F2
:104930001A9B98427ADABEF1000F77DBB645F9DAB6
:10494000D3B201F0FF0C802B05DAC3F17F014FF0E9
:10495000FF32490003E001225900A1F5807109915D
:10496000BCF1800F05DACCF17F034FF0FF315B0023
:1049700004E04FEA4C030121A3F580730A930EFB78
:10498000080C199B0CFB05330793831811937BD4F8
:10499000DDF834C0634577DC1EEB01030F9373D45D
:1049A000DDF818C063456FDC079B01FB08F102FBD3
:1049B000053201FB053116929C460C91BFB32D992F
:1049C000052905D014290AD006294CD059E0E5E084
:1049D0000C989CF8022081781698807810E0199A3B
:1049E0000E9902EB41010B180EFB08111198179359
:1049F0000EFB08F2085C0F99D25C01FB08F1C95C60
:104A0000914207D00A9B5943C3F5807302FB0311FF
:104A1000C1F30721904207D0099B5843C3F5807327
:104A200002FB0300C0F30720084401E09AE02CE0F9
:104A30002C99400808555FD09CF800109CF80100A4
:104A400001EB0020ADF80C000C980178407801EBE8
:104A50000020ADF8100016980178407801EB002096
:104A6000ADF808001FE0BCF800101FFA89F0814281
:104A700078D00C990988814274D0169909888142AE
:104A800070D0FF210846CFE737E0BCF80000ADF852
:104A90000C0016980088ADF808000888ADF81000E2
:104AA0002C98FF210155BDF80C00BDF8101088426C
:104AB00009D1BDF80810884205D12B98BDF80C101B
:104AC00000EB440017E00A98C2B2DDE903100EF0D3
:104AD00073FC04900998C2B2DDE902010EF06CFC8F
:104AE0007F22029004990EF067FC00902B98BDF88D
:104AF000001000EB440001804AE0079B93F800C0DF
:104B00005B780CEB0323DDF8ACC09BB22CF81430BF
:104B1000DDF8B4C0BCF1050F06D0BCF1060F06D01D
:104B2000BCF1140F09D10AE0079B9B780FE01FFA34
:104B300089FC634501D1002309E0FF2307E0199BAD
:104B40000EFB083C0E9B00EB43031CF8033008B936
:104B5000002A05DBDDF834C0604504D1002A02DDFF
:104B600009980BE011E0BEF1000F01D1002904DB30
:104B7000069A964509D1002907DD0A98C0F1FF0081
:104B80005843010A2C98015502E02C990020085541
:104B9000641C24B22A988442FFF6BEAE1DB0BDE864
:104BA000F08F000010B5818F92B00446A9B168461D
:104BB0000CF01EF80B480121CDE90040A08F0B90AE
:104BC00000200890CDE909010748079007480390A5
:104BD00068460CF081F812B010BD12B0BDE810406C
:104BE0001DF050BEFD280208AF0C0108FF28020886
:104BF00010B50446406882080AD0496821F00301D4
:104C0000091D08446060204600F042F8204610BDAF
:104C1000FEE74068103120F00300884201D30120F4
:104C20007047002070472DE9FC47054648680C4650
:104C300020F0030001AA69461DF078FBDDE9007051
:104C400005EBC71101EB80098046D9F83C0060B143
:104C500064B1C4E9020504F10806C46030460421C9
:104C6000FFF7FBFB864202D0FEE7FEE7FEE7C9F84E
:104C70003C400120296900FA07F21143296105EB44
:104C8000870100FA08F04A6902434A61BDE8FC87DF
:104C900010B5044600F087F8046010BD2DE9FC470C
:104CA00006464FF000000D0000900746019042D0EC
:104CB0000C46E9460DF10408802907D3084621F087
:104CC000E5FB411F01208840401E044442464946FE
:104CD00020461DF02BFB009C0A2C2CDA06EB8400EE
:104CE000019A40694FF0FF3101FA02F210400CD1F5
:104CF000641C3069A14008401DD021F0BFFB044670
:104D0000009006EB8000406978B121F0B7FB0346C4
:104D100006EBC411019001EB8000C76B5FB17868AE
:104D200020F00300A84201D2FEE7FEE739463046F4
:104D3000009A1EF07BFC3846BDE8FC8710B504469F
:104D4000FFF7A6FF416841F002014160606840F052
:104D50000100606010BD10B5044600F024F8416801
:104D600021F002014160606820F00100606010BD28
:104D700070B506460D46084600F015F8040010D040
:104D80002079C0070BD0686880080BD021463046D8
:104D900000F03CF821462846FFF72AFF0546284642
:104DA00070BDFEE7FEE7426800F1080122F0030053
:104DB000001F0844910800D1FEE7704770B5064611
:104DC0000C004FF000001ED0F2B120791546C0074C
:104DD0001BD011462046FFF71CFF78B1294620461C
:104DE00000F025F805462046FFF752FF686829467F
:104DF00040F0020068603046FFF715FF2046FFF7DD
:104E0000AAFF04F1080070BDFEE7FEE77CB5054689
:104E100048680C4620F0030001AA69461DF086FA96
:104E2000DDE90023214628461EF000FC7CBD2DE96B
:104E3000F0410D46044600F10801281F0E18606875
:104E400006F1080720F00300401BA0F104083846D3
:104E50000421FFF702FB874200D0FEE7606820F0E4
:104E6000030108EB0500001D814200D0FEE7307908
:104E700000F0030040EA0800706020F003000C28F6
:104E800000D2FEE7207900F003002843606030463E
:104E9000FFF754FF3046BDE8F08138B5044613F003
:104EA00087FB054613F0B9FB0028204605D0218F6B
:104EB000E18618F044FA012038BD11F0A7FD002862
:104EC00020461ED011F06EFC218FE08E81420CD066
:104ED0002087E08E00906A461C21204611F0D8FF02
:104EE0000128E9D1204618F02AFA284613F0A1FB40
:104EF0000428E0D1204616F0ABFD002112F0CFFCD3
:104F0000D9E711F0DFFDD6E770B511F0BDFF05461A
:104F100016F0E4FD044628460DF0C4F9014620468B
:104F2000BDE8704000221BF019BD00002DE9F04FD4
:104F30000D4687B00446002116F0BEFC60B329463A
:104F4000204600F061FA2946204600F06FF8002163
:104F5000204617F0DFFB05900021204617F08EFC5D
:104F600004900021204617F0A0FA012800D000206C
:104F700080460021204617F0E3FD07460021204629
:104F800017F00EFB42F2D17906464F450BD1608CEB
:104F9000000508D4012707E007B02846BDE8F04F18
:104FA0001C2115F03FB90027204616F003FDDFF85D
:104FB00078A0834620460021BAF8042017F0BEFCF2
:104FC000D5F810C0AB682968CDF800C0CDF80C80CA
:104FD000CDE90131C2B239465846059B09F05EFF62
:104FE00028834E4504D1608C400501D4012600E0A1
:104FF0000026204616F0C4FC074620460021BAF8D9
:10500000082017F09BFCC2B2686900246B68E9684D
:105010008DE81B0031463846049B09F03FFF68834A
:1050200007B0BDE8F08F0000A80000202DE9F34F85
:1050300081B00C46019809F0B5F90646019816F0C2
:10504000B9FC8246304601F000F82061400014F0BF
:1050500043FF20602069400014F03EFF002541F628
:105060009A79A0603AE036F91510DFF820814945B9
:1050700033D10027DFF818B11FE03946019816F048
:105080001BFC5946009017F07CFEA8B9009809F067
:105090009BF9012810D1009809F08CF9A8420BD196
:1050A000009817F01EFE4146404501DA084602E02E
:1050B000009817F016FE80467F1C019816F00EFC33
:1050C000B842DAD8B8F1000F03DBA16821F81580E7
:1050D00003E0A168002021F815006D1C2069A8429A
:1050E000C1D800252F46284641F69B784A4615E050
:1050F00036F91010414504DB0D44A5F5F8559B3DEC
:105100000BE0914204D1A16831F81010394403E05A
:10511000A36823F8101039440FB2401C2169814262
:10512000E6D80021019817F0F5FA2169C1F10102D2
:1051300000FB02A0C01B00B2002800DA0020002201
:105140004FF0FF331146C44611E000BF36F911702D
:1051500067450BDBA7F5F8579B3F3AB200FB02F31C
:10516000B3FBF5F3A76827F811300B46491C2769F4
:105170008F42EBD8002B07DBA91A4143B1FBF5F1B5
:10518000401AA16821F81300BDE8FE8F01E0FFFF7F
:10519000010006002DE9F14F00221146009819F098
:1051A0005FF80021009817F0B9F904460021009833
:1051B00017F076FB20440FFA80F90021009817F0D1
:1051C00061FA20440FFA80F8009817F01BF900EB01
:1051D000090101EB0800DFF898A006B254460098D8
:1051E00016F07CFB074600252AE0009821498068DC
:1051F000006850F82500834617F0C3FDF8B95846FB
:1052000018F0F6F840BB0021584617F01FF918B304
:10521000012821D002281FD003281DD00021584684
:1052200017F0A6FC58B9BBF81A10BBF81600081AFC
:10523000401C00B24844A04200DB044624B26D1C6E
:10524000BD42D2D3544504D004EB080000B2B042B2
:1052500000DC3046BDE8F88F0098BBF91A10B0F9B1
:105260001600081A411CA142E8DB0C46E6E70000E4
:1052700001E0FFFF010004002DE9F84F0022804605
:10528000114618F0D7FF0021404617F047F90446B1
:105290000021404617F0AAFA20440FFA80FA0021B4
:1052A000404617F055FA20440FFA80F9404617F0AF
:1052B000B7F800EB090101EB0A00DFF844B105B2D1
:1052C0005C46404616F00AFB07460021404617F0B0
:1052D000DAF801284FF0000644D078E0D8F808004A
:1052E0004849006850F82600009017F04AFDC0BBFE
:1052F000009818F07DF850B10098B8F91810B0F97E
:105300001400091A481CA0422ADB4C1C28E000218A
:10531000009817F09BF858B1032809D0062807D049
:10532000082805D00021009817F01CFC58B118E09F
:105330000098B8F91810B0F91400081A411CA142DD
:105340000EDB0C460CE00098143000900CF055FA7F
:105350005044A04204DB00980CF04FFA00EB0A0422
:1053600024B2761CBE42B9D35C453BD004EB0900A5
:1053700033E000BFD8F808002249006850F8260042
:10538000009017F0FEFC08BB009818F031F860BBE5
:105390000021009817F05AF838B3012825D00428C6
:1053A00023D0072821D00021009817F0E1FB68B92D
:1053B0000098143000900CF020FA4844A04204DB1E
:1053C00000980CF01AFA00EB090424B2761CBE42D5
:1053D000D0D35C4506D004EB0A0000B2584501D09A
:1053E000A84200DC2846BDE8F88F0098B0F91810F4
:1053F000B8F91400091A481CA042E6DB4C1CE4E78B
:1054000001E0FFFF010004002DE9F84F0C46834640
:1054100009F0CEFB064600F018FE6061400014F073
:105420005BFD60606069400014F056FD002541F6A8
:105430009A79E0603AE036F91500DFF828814845AE
:1054400033D10027DFF820A11FE03946584616F077
:1054500033FA5146009017F094FCA8B9009809F06F
:105460002FFC012810D1009809F020FCA8420BD194
:10547000009816F0F2FA4146404501DA084602E08B
:10548000009816F0EAFA80467F1C584616F026FA75
:10549000B842DAD8B8F1000F03DBE16821F81580D3
:1054A00003E0E168002021F815006D1C6069A84246
:1054B000C1D800252F46284641F69B784A4615E07C
:1054C00036F91010414504DB0D44A5F5F8559B3D18
:1054D0000BE0914204D1E16831F81010394403E047
:1054E000E36823F8101039440FB2401C616981420F
:1054F000E6D80021584617F0C1F98146584616F003
:105500003FFA01466069C0F1010209FB0210C01BAD
:1055100000B2002800DA002000224FF0FF331146CD
:10552000C44610E036F9117067450BDBA7F5F85754
:105530009B3F3AB200FB02F3B3FBF5F3E76827F8B1
:1055400011300B46491C67698F42EBD8002B07DBF3
:10555000A91A4143B1FBF5F1401AE16821F81300A3
:10556000BDE8F88F01E0FFFF010006001CB50B88C5
:1055700004892344ADF800304B8844892344ADF8B6
:1055800002308B8804892344ADF80430C9884389EC
:105590001944ADF806104369694698471CBD0000E0
:1055A0002DE9FF4F89B0C8781A9CC0070D46002826
:1055B00001D0F84800E0F848069001D0F74800E034
:1055C000F748049001D1F54800E0F5484FF010038A
:1055D0004FF00C0E4FF0080BCDF814006188A28834
:1055E0004FF0000AA1EB0201504609B25246D4F82E
:1055F00010C00FE002EB8207E66803EB870816F89D
:1056000008805FEAC87809D00BEB8707F65B891B37
:1056100009B2521C9445EDD8002254E00EEB8707E6
:10562000F65B304400B2F4E7E66802EB820703EB76
:10563000870CB146CDF820C016F80C60F60741D1B2
:10564000002872D091FBF0F80EEB8706079639F828
:10565000066006FB08F60FFA86FCCDF800C04FF096
:10566000060C0CEB870C042639F90C8006EB870638
:10567000DDF800C039F90660E04500DCC446664547
:1056800004DC009EC446B04500DC6646DDF800C080
:105690000196664506D0DDF820C04FF00108C246ED
:1056A00049F80C80D4F80C80019E0BEB870728F892
:1056B0000760D4F80CC0079F3CF80770C01B891B1B
:1056C00000B209B2521C26699642ADD8BAF1000F59
:1056D00084D10021099816F0E2FE012826D0002787
:1056E0000020ADF80800ADF80C0003A902A8CDE930
:1056F00000012089B4F9022003B2287818991DF01E
:105700000EF8E878384207D0099816F053F9BDF83A
:1057100008100844ADF808000B99099816F0CCF869
:1057200006464FF4FA682AE1FFE7FEE70127D7E7CC
:105730009C49304617F025FB00286FD100213046E8
:1057400016F018FFF0B34FF00009484621690FE04A
:10575000E26800EB800352F82320B24207D1E168EF
:1057600000EB80020BEB820031F9009002E0401C5C
:105770008142EDD8E878C007708C04D020F48060B6
:1057800040F4006003E020F4006040F48060708426
:1057900006F11400049982468847484528D03046CF
:1057A00017F0CDFDB08AADF80000F08AADF8020028
:1057B000308BADF80400708BADF8060049465046BA
:1057C000069A00E010E090476A462921304611F021
:1057D0005FFB304616F082F93246222111F058FB69
:1057E000304617F0ACFD03E0708C20F4406070840C
:1057F000002000906878012811D0022817D105995F
:1058000006F114008847B4F90010491C21F0010189
:10581000081A00EBD07040F34F0007E0A7E00599AD
:1058200006F1140088472188081A00B20090E87831
:10583000384208D0049906F114008847BDF80810D2
:10584000081AADF80800304600216B2217F076F8F0
:105850000FFA80F9304600216C2217F06FF80FFA2A
:1058600080FA304617F03DFA0190304616F0F5F810
:105870000146C9F3413001280FD129F4C040404509
:105880000BDCB0F57A7F01DDC0F57A70019A5043E8
:10589000642290FBF2F00FFA80F9CAF3413001283C
:1058A0000ED12AF4C04040450ADCB0F57A7F01DD14
:1058B000C0F57A704843642190FBF1F00FFA80FA4A
:1058C000B18A1698F28A411A01EB0900179900B2C1
:1058D0008A1A02EB0A01EA7809B2D207002A02D03A
:1058E000BDF9082000E0009A10440FFA80FA01D0B8
:1058F000009801E0BDF9080008440FFA80F95AEA5F
:1059000009011BD0304617F01AFDB18A01EB0A00DD
:10591000B082318B01EB0A003083F18A01EB090080
:10592000F082718B01EB09007083304617F007FDA0
:1059300000234A465146304617F0A8FDE878384221
:105940000CD1049906F11400884719990844BDF850
:105950000C100844BDF80810084406E0BDF80C100F
:1059600019980844BDF80810081AADF80800E8783E
:105970000BAAC0F38001099808F0E0FF0646002E4C
:1059800004D0DDE90B0188427FF4D2AE0DB0BDE852
:10599000F08F000083180108791801081F1801080A
:1059A000C7170108010006002DE9F04F91B00E0065
:1059B00005463FD02E83286808B114F0EBFA06EBB9
:1059C0004600062101EB400014F058FA286040B36D
:1059D000022101EB46010144E960042101EB86014B
:1059E0000144C5E9010101210024012E1AD0F00073
:1059F000083014F071FA814600EB860000F10408CB
:105A0000B00000B2A346ADF81000C0F10102801052
:105A1000ADF812B00FFA82FA5C46CDF828B00690C5
:105A2000ABE0FEE7B4220270E8680480E8684180D9
:105A3000A868048011B0BDE8F08F0027BDF81220DF
:105A4000BAF1000F07DC032101EB42010AEB010070
:105A50000FFA80FA0CE0BDF810100523521A03EB80
:105A6000420202EB0A00491E0FFA80FAADF810104C
:105A7000BDF81200401CADF8120004A800F0E7F8D1
:105A800068B1BDF9100006AA811042F827100AA9D2
:105A900000F0030041F827007F1C042FCEDB042F09
:105AA00071D109990698884212D129F8140028F872
:105AB00014B0DDE90A010144DDE90C20104408447A
:105AC00069680855696800010855641C24B252E0F1
:105AD0000799884219D029F8140028F814B06A6888
