:020000040800F2
:100000006808002065010008911C0008411B0008D9
:1000100000000000000000000000000000000000E0
:10002000000000000000000000000000951C000817
:100030000000000000000000931C0008971C00084E
:1000400077010008770100087701000877010008B0
:1000500077010008770100087701000877010008A0
:1000600000000000A50400087701000877010008DF
:100070007701000877010008770100087701000880
:100080007701000877010008770100087701000870
:1000900000000000770100087701000877010008E0
:1000A000770100087701000877010008DD230008C8
:1000B0007701000877010008000000000000000040
:1000C00000F002F800F03EF80CA030C80838241800
:1000D0002D18A246671EAB4654465D46AC4201D180
:1000E00000F030F87E460F3E0FCCB6460126334274
:1000F00000D0FB1AA246AB46334318471425000034
:1001000034250000103A02D378C878C1FAD85207D3
:1001100001D330C830C101D504680C6070470000BD
:100120000023002400250026103A01D378C1FBD813
:10013000520700D330C100D50B6070471FB51FBDFB
:1001400010B510BD00F07BF91146FFF7F7FF02F084
:10015000A3F900F093F903B4FFF7F2FF03BC00F03A
:1001600099F900000748804707480047FEE7FEE787
:10017000FEE7FEE7FEE7FEE704480549054A064BB1
:10018000704700000B1D0008C10000086802002035
:10019000680800206804002068040020FEB50546B9
:1001A00010460C46184373D0AE468C460020AD1A5C
:1001B00001469C4167D36646002701243D46B61A96
:1001C0009D4102D313463A462124654676462F04C4
:1001D000360C3E432D0CB61A9D4104D3150C1B045E
:1001E0002B4312041034654676462F06360A3E43EA
:1001F0002D0AB61A9D4104D3150E1B022B43120281
:100200000834654676462F0736093E432D09B61A4F
:100210009D4104D3150F1B012B431201241D65467C
:100220007646AF07B6083E43AD08B61A9D4104D3E3
:10023000950F9B002B439200A41C65467646EF0762
:1002400076083E436D08B61A9D411AD392185B4159
:10025000641C16E00018764665464941B71A9D4170
:100260000191009009D36046B11A98418E468446A8
:10027000009801990025401C6941DD0752082A4376
:100280005B08641EE6D57246634603B0F0BDFFE727
:1002900000200146C046C0462A462346F5E701E055
:1002A00004C0091F0429FBD28B0701D50280801CE2
:1002B000C90700D00270704700290BD0C30702D0D5
:1002C0000270401C491E022904D3830702D5028014
:1002D000801C891EE3E70022EEE70022DFE7002210
:1002E00003098B422CD3030A8B4211D300239C4673
:1002F0004EE003460B433CD4002243088B4231D3EB
:1003000003098B421CD3030A8B4201D394463FE07E
:10031000C3098B4201D3CB01C01A524183098B42DE
:1003200001D38B01C01A524143098B4201D34B01C7
:10033000C01A524103098B4201D30B01C01A52412A
:10034000C3088B4201D3CB00C01A524183088B42B1
:1003500001D38B00C01A524143088B4201D34B009A
:10036000C01A5241411A00D201465241104670470C
:100370005DE0CA0F00D04942031000D34042534011
:1003800000229C4603098B422DD3030A8B4212D3D1
:10039000FC22890112BA030A8B420CD38901921103
:1003A0008B4208D3890192118B4204D389013AD040
:1003B000921100E08909C3098B4201D3CB01C01A15
:1003C000524183098B4201D38B01C01A5241430928
:1003D0008B4201D34B01C01A524103098B4201D316
:1003E0000B01C01A5241C3088B4201D3CB00C01A83
:1003F000524183088B4201D38B00C01A5241D9D29B
:1004000043088B4201D34B00C01A5241411A00D21B
:100410000146634652415B10104601D34042002B17
:1004200000D54942704763465B1000D3404201B596
:100430000020C046C04602BD7047704770477546F1
:1004400000F024F8AE46050069465346C008C000D7
:10045000854618B020B5FFF78FFE60BC002749081D
:10046000B6460026C0C5C0C5C0C5C0C5C0C5C0C54C
:10047000C0C5C0C5403D49008D46704710B5044613
:10048000C046C0462046FFF766FE10BD00487047D4
:100490000402002001491820ABBEFEE7260002003E
:1004A0007047000010B5024800F0D0F810BD000001
:1004B000A801002010B50446006C0949800880009E
:1004C00040186064207814210838FFF708FF0449B9
:1004D0008031A164C106C90E01208840E06410BDCE
:1004E000000802400179084B8906890E8A00D2185B
:1004F0000265054A4432491E42658A07920F01216E
:100500009140816570470000FC080240F0B5846CA2
:10051000C56C6560046D002C02D0446D856D65600E
:100520000B4C6568066C1C273E400127B7403D43D5
:100530006560046863608368102B036803D099606A
:100540000068C260F0BD9A600068C160F0BD000044
:100550000000024072B6FEE7F0B5002808D0014660
:1005600020314A79022A05D00422C2630020087192
:100570000120F0BD026813680E24A3431360426C8F
:100580001468FF2301339C431460026814686408F4
:10059000640014600C4A5568066C1C242640012433
:1005A0002746B7403D435560826CC56C5560026D6F
:1005B000002A05D015689D431560826D406D42602C
:1005C0004C7100200871F0BD00000240F8B5002415
:1005D000024620325179022903D00421C16301244B
:1005E0002DE001680B680E25AB430B6001680B68BA
:1005F0005B085B000B60416C0B68FF250135AB436A
:100600000B6010494D68066C1C231E4001231F46D9
:10061000B7403D434D60816CC56C4D60016D002954
:1006200006D00E681D02AE430E60416D856D4D60B3
:10063000537100211171816B002900D08847204639
:10064000F8BD000000000240C06B7047F0B42C49B8
:100650000C6802681368056C1C273D400426AE40F8
:10066000264211D05E070FD513689B0603D4146889
:1006700004239C4314604B68046C04223C40A24059
:1006800013434B60016B1CE00227AF400646274036
:100690002036002F19D09F0717D513689B0605D465
:1006A00013680A24A3431360012272714B68046C1F
:1006B0001C2214400222A24013434B6000213171DE
:1006C000C16A00291AD0F0BC08470827AF4027426A
:1006D00014D01B0712D513680E24A34313604B6874
:1006E000046C1C22144001221546A5402B434B608C
:1006F000C263727100213171416BE2E7F0BC704757
:100700000000024070B504003FD025482568142140
:100710002818FFF7E4FD80002064022026462036DA
:10072000707128681F4908402860E168A068626904
:100730000843216911430843A1690843E16908435B
:10074000216A084321680A68104308602046FFF7C1
:10075000B1FE0121A06889030025884200D16560AF
:100760002079616C8006800E0860A06CE16C4160AD
:100770006068401E03280AD82046FFF7B3FE206DAC
:100780000560606DA16D416004E0012070BD2565CC
:100790006565A565E563012070713571002070BD48
:1007A000F8FFFDBF0F80FFFFF8B504468C462030F0
:1007B0000179002501290BD0012606714179002716
:1007C000012907D08021E163077101252846F8BD82
:1007D0000220F8BD02214171E763206801684908E1
:1007E0004900016061462046FFF790FE206B00281B
:1007F0002068016801D00E2205E0042291430160C7
:10080000206801680A2211430160606C0168CA0314
:10081000074902D502680A430260206D002802D011
:1008200002680A4302602068016831430160CDE735
:1008300000010000F0B5002303249AE02A460125B8
:100840009D402A407ED00E79B607B60F012E01D00A
:10085000022E16D186682746B4465E00B646B740DB
:100860006646BE43B446CF687646B74066463743D1
:1008700087604668AE430D79ED06ED0F9D40354328
:1008800045600D79ED43AD0708D0C5685F00264689
:10089000BE40B5438E68BE402E43C6600D79AD079D
:1008A000AD0F022D0ED1DD08AD002D18AC462D6A1E
:1008B0005E07F60E0F27B740BD430F69B7402F43C1
:1008C00065462F6205685F002646BE40B5430E7937
:1008D000B607B60FBE402E4306604D68AD03AD0FA0
:1008E00046D09E08264DB6007519AC462D6E9E0763
:1008F000F60E0F27B740BD4305273F07B84201D189
:1009000000270FE01F4FB84201D101270AE01E4F18
:10091000B84201D1022705E01C4FB84201D103279C
:1009200000E00527B7402F43154D664637662D6812
:100930004E689543F60200D51543114F3D607D6822
:10094000954300E014E04E68B60200D515437D6083
:100950000B4D80356E684F689643BF0300D5164334
:100960006E602E684F689643FF0300D516432E60D5
:100970005B1C0A681546DA4000D05FE7F0BD000056
:10098000001802400004005000080050000C005005
:1009900001488068704700000800002070B50246DA
:1009A00040325378202B1CD11378012B19D001230E
:1009B000137024245470046825689D4325600468DE
:1009C00025681E03B5432560046825680D4325602E
:1009D00000680168194301602020507000201070E9
:1009E00070BD022070BD70B5024640325378202B96
:1009F0001BD11378012B18D00124147024235370B9
:100A000003681D68A5431D6005682B680F26360224
:100A1000B34309021943296000680168214301605A
:100A2000202050700020107070BD022070BD0000AA
:100A300070B5040006D025464035687800260028A9
:100A400002D005E0012070BD2E70204600F04EF867
:100A500024206870206801684908490001600F215E
:100A60006068090688432168086121688A68012056
:100A7000C00382438A60E1680129A1682FD0212246
:100A800092021143226891600121E268C902022AA0
:100A90002268536825D08B43536021684A68124B03
:100AA0001A434A602168CA688243CA606169206942
:100AB0000843A169090208432168C860216AE06906
:100AC0000843216808602068016801221143016021
:100AD0006664202068702663AE70002070BD0143FC
:100AE000D0E70B43D8E700000080000210B586B0C5
:100AF000044614216846FFF7F0FB1249206888423B
:100B00001ED1114C606B012108436063606B08408B
:100B100005900320C0020090122001900020029056
:100B2000039006200490052069460007FFF782FE27
:100B3000E16B012080050143E163E16B0140059118
:100B400006B010BD00580040001002400248816805
:100B500002788918816070470800002010B50848A5
:100B600000240168821511430160032000F00AF897
:100B7000002801D0012401E000F028F8204610BD33
:100B80000020024070B50F4E002431780546002940
:100B900015D07D20C000FFF7A2FB01460A4800687F
:100BA000FFF79DFB00F030FC002808D1042D06D291
:100BB00000222946401E00F02BF8756000E0012459
:100BC000204670BD080000201400002008B5094828
:100BD000016801221143016000681040009005483F
:100BE0004038C26B01040A43C263C06B08400090E6
:100BF00008BD000040100240002805DBC106C90EF8
:100C000001208840014908607047000000E100E0D1
:100C100010B501F01FFC10BD10B50F4C2168032268
:100C20005202914301432160C11FFF39FA390ED1AD
:100C30000A480621006848430949FFF750FB401C59
:100C400002E0002805D0401E61694905F9D4002062
:100C500010BD032010BD00000070004014000020F3
:100C600040420F00F8B5044600680026664D800338
:100C700058D5654800274038C06BC00009D4624889
:100C80004038C26B01040A43C263C06B08400127AD
:100C900000905E480168821511430160FFF778FEFD
:100CA000009005E0FFF774FE0099401A022825D84D
:100CB00056480068C005F5D5E869032109020840D7
:100CC0000FD0616A81420CD0E86903210902EA6908
:100CD0008843012109040A43EA61EA698A43EA6117
:100CE000E861C0070FD0FFF753FE009008E0FFF760
:100CF0004FFE0099411A4648814201D9032609E076
:100D0000E8698007F3D5E869032109028843616A2D
:100D10000843E861002F05D03B484038C26B01040E
:100D20008A43C2632078C00705D06869616880087B
:100D30008000084368612078C00606D568690321F1
:100D400089028843A168084368612088800506D528
:100D500068690321890488436169084368612088C0
:100D6000400506D56869032109058843A169084340
:100D700068612078800606D56869032109038843E5
:100D8000E168084368612088400411D56869E16919
:100D900080008008084368610121E0698907884272
:100DA00006D119484038C168012212041143C160BC
:100DB0002068800210D5686901218905226A88436C
:100DC00010436861206A884206D10F484038C168E4
:100DD000012212061143C1602088000512D56869FE
:100DE000032189038843216908436861012120693F
:100DF0008903884206D104484038C16801221204A0
:100E00001143C1603046F8BD401002400070004000
:100E100088130000F8B50F46060043D04D4D2868F2
:100E20004007400FB84213D22868C008C0003843BA
:100E30002860FFF7ADFD044605E0FFF7A9FD011BA3
:100E40004548814261D828684007400FB842F4D134
:100E50003068424C81070DD5400704D5A0680721B2
:100E600009030843A060A0680F2109028843B16804
:100E70000843A0603078C00732D0706801280AD0DB
:100E800002280BD000280FD03449403103280ED05F
:100E9000C969890704E02168890301E021688901A3
:100EA000002906DB0120F8BD21684905F8E7096A39
:100EB000EFE7A168C908C9000143A160FFF768FD19
:100EC000009006E0FFF764FD0099411A2248814234
:100ED0001BD8A068382108407168C9008842F1D148
:100EE00028684007400FB84217D91A480168C90856
:100EF000C90039430160FFF74BFD054607E0FFF7E6
:100F000047FD411B1448814201D90320F8BD114817
:100F100000684007400FB842F1D13078400706D54D
:100F2000A068072109038843F1680843A06000F026
:100F300031F8A1683C2289091140094A515CC9066F
:100F4000C90EC8400749086007480068FFF71AFE45
:100F5000F8BD00000020024088130000001002408D
:100F6000B0250008140000200C00002006480749A6
:100F700000688968064A4904490F8900515CC9061E
:100F8000C90EC84070470000140000200010024045
:100F9000F025000810B5204CA068204A8006400FBC
:100FA00016D0A0688006410F501001290FD0A1680B
:100FB0008906490F022912D0A0688006400F042834
:100FC00023D0A0688006400F032821D0002010BD48
:100FD000206801218004400F8140104612E0E16842
:100FE0008B07E1689B0F4906490F491C032B00D072
:100FF0001046FFF774F9E1684904490E4843E16877
:10100000490F491CFFF76BF910BD0120C00310BD4B
:101010007D20000210BD0000001002400024F400FA
:10102000F8B504007ED020783827C007ED4D0028A1
:1010300046D0A868E96838408907890F102802D08F
:1010400008280BD001E0032908D0012062680004C1
:1010500082420AD129680143296015E0286880038B
:101060002ED560680028DDD02AE0052301211B046D
:1010700089049A422A6802D10A432A60EAE7824335
:101080002A60286888432860606800280CD0FFF731
:101090007FFC064604E0FFF77BFC801B642873D8C6
:1010A00028688003F7D50BE0FFF772FC064604E0E2
:1010B000FFF76EFC801B6428F1D828688003F7D402
:1010C0002078800769D5A868E96838408A07072131
:1010D000920FC902102802D0002813D001E0022A82
:1010E00010D0E068002846D028688843216908436A
:1010F00028602868FF21013108432860FFF748FC79
:1011000006462CE02A68520502D5E268002A89D0FA
:101110006A687F231B029A4363691B021A436A6051
:10112000002800E08DE00ED128688843216908433B
:101130002860286801218004400F8140AA48FFF7F9
:10114000CEF8AA490860AA480068FFF71BFD0028EE
:1011500077D122E0FFF71CFC801B02289FD828686B
:101160004005F7D568687F21090288436169090253
:101170000843686011E02968FF200130814329603D
:10118000FFF706FC064605E098E0FFF701FC801B30
:10119000022884D828684005F7D42078954E0007A7
:1011A0002ED5A8688006400F03280AD0A069002821
:1011B000306A16D0012108433062FFF7E9FB074689
:1011C0000BE0306A80071BD5A06900289FD017E08C
:1011D000FFF7DEFBC01B022870D8306A8007F7D506
:1011E0000EE0400840003062FFF7D2FB074604E003
:1011F000FFF7CEFBC01B022860D8306A8007F7D407
:10120000207840076CD5A86800278006400F042886
:1012100018D0E86BC00008D4E96B01200007014337
:10122000E963E96B01400127009173480168C90532
:1012300019D40168821511430160FFF7A9FB0090E2
:101240000DE083E0F06980074AD5A06800287DD0D2
:1012500046E0FFF79DFB0099401A02282ED8664809
:101260000068C005F5D5A168012910D00420052922
:10127000F16911D049084900F161F1698143F161D7
:10128000A068002816D0FFF783FB00900EE0F069FD
:1012900001210843F061F3E70143F161F7E7FFF74C
:1012A00077FB0099411A5548814267D8F069800759
:1012B000F5D50EE0FFF76CFB009007E05EE0FFF76E
:1012C00067FB0099411A4D48814257D8F069800761
:1012D000F5D4002F04D0E86B012109078843E863A7
:1012E000E06900287BD0A9688906490F02294FD000
:1012F000012636060228286805D0B0432860FFF78B
:1013000047FB04463CE0B0432860FFF741FB07463B
:1013100004E0FFF73DFBC01B02282FD8286880019E
:10132000F7D4616A206AA26A0843E16A1202114393
:101330000843216B0843616B0843E968304A114058
:101340000843E86028683043286000E045E0E8682A
:10135000012109070843E860FFF71AFB044604E08F
:10136000FFF716FB001B022808D828688001F7D574
:1013700035E0FFF70DFB001B022801D90320F8BD63
:1013800028688001F5D4E8681E490840E86026E036
:101390000128F4D0E868226A8107890F91421CD1A4
:1013A0007021626A0140914217D17F21A26A09022D
:1013B00001401202914210D11F214904E26A01400A
:1013C00091420AD107214906226B0140914204D182
:1013D000400F616B4007884201D00120F8BD00201A
:1013E000F8BD0000001002400024F40014000020AA
:1013F0000C000020401002400070004088130000E4
:101400008C80C111FCFFFEEE094910B5401E8842D8
:1014100001D9012010BD074C60610321081F01F0B4
:1014200019F80020A06107202061002010BD0000F5
:10143000FFFFFF0000E000E010B5014680310A79AF
:10144000012A15D001220A7124228A6002681368D9
:101450001468640864001460012252079343002258
:10146000426600680360202088600A71104610BD43
:10147000022010BD7047704770B5044605468034A1
:10148000207901281AD0012020712420A06028682A
:1014900006680268520852000260286882680723C2
:1014A0005B069A430A438260284600F02FFC2868B6
:1014B00006602020A0600020207170BD022070BD59
:1014C00070B50446054680342079012819D00120E2
:1014D00020712420A0602868066802685208520023
:1014E000026028688268D200D2080A4382602846D7
:1014F00000F00CFC286806602020A060002020710D
:1015000070BD022070BD70477047F8B505460446AF
:101510008035A868EE6821688A6810271206002ABC
:101520001BDA212819D1EFF31080012282F31088F1
:101530008A6880239A438A6080F31088E06F0028CD
:1015400008D0FFF709F8002804D0E06FFFF77CF817
:10155000202824D0204600F07FFD216888684006BE
:101560001BD5222E19D1EFF31080012282F31088AF
:101570008A6840239A438A6080F31088286800288C
:1015800008D0FEF7E9FF002804D02868FFF75CF8D0
:10159000202804D0204600F02DFD0020F8BD2F614A
:1015A0000320F8BD70470000F8B503680446D96908
:1015B00018689A68B44D0E462E4025468035002E98
:1015C00075D0B24EB24F1640074037436ED0CF07AA
:1015D00006D0C70504D501271F622B693B432B6149
:1015E0008B0708D5D30706D0276802233B622B69F7
:1015F00004273B432B614B0708D5D30706D0276848
:1016000004233B622B6902273B432B610B0709D55F
:1016100020230340334305D02668082333622E6914
:101620001E432E610B0509D5430107D5012326680A
:10163000DB0233622B69202633432B612B69002B9D
:1016400042D089060AD520210840C9050A40104326
:1016500004D0616F002901D020468847286921689D
:101660008968490602D42821084232D0204600F079
:10167000C1FC21688868400627D5EFF3108001225D
:1016800082F310888B68402293438B6080F310882C
:101690002868002819D07F4981632868FEF796FFE3
:1016A000002811D02868816B0DE000E017E08E065D
:1016B00015D5012720263F07064017403E430ED090
:1016C000616FB5E020468847F8BD2046FFF76AFF06
:1016D000F8BD2046FFF766FF00202861F8BDE66EE2
:1016E000012E7DD1CE067BD5C60679D510221A6291
:1016F00023689868264640064036002849DA29685B
:10170000086840680004000CE8D0B78B8742E5D930
:10171000F08308680068800634D4EFF3108001215C
:1017200081F3108819681701B943196080F3108894
:10173000EFF31080012181F3108821688B685B082A
:101740005B008B6080F31088EFF31080012181F340
:10175000108821688B684027BB438B6080F310881A
:101760002020E8600020E066EFF31080012181F383
:10177000108821680B6893430B6080F310882868F9
:10178000FEF7EAFE02202067B08BF18B401A81B28F
:1017900035E0B08BF18B401A81B2F08B00289DD0E0
:1017A00000299BD0EFF31080012686F310881E6875
:1017B000FF272137BE431E6080F31088EFF31080AF
:1017C000012383F3108823689E68304FFF433E4017
:1017D0009E6080F310882020E8600020E06600E032
:1017E00011E06067EFF31080012383F31088236812
:1017F0001D6895431D6080F31088022020672046F5
:10180000FFF738FEF8BDCE0208D5560206D50120F6
:10181000000518622046FFF777FEF8BD0E060BD5CF
:1018200001278026FF0506403A40164304D0A16FE9
:10183000002900D046E7F8BD4A0614D5420612D565
:101840002046EFF31081012282F310881A684024A9
:10185000A2431A6081F310882021A96000218167CA
:1018600000F06DF9F8BD0A0205D5420003D5204607
:10187000FFF749FEF8BDC901FCD50028FADA204679
:10188000FFF7F9FDF8BD00000F080000010000108F
:1018900020010004D51E000870B5040005D02546BF
:1018A0008035A868002802D006E0012070BD002025
:1018B0002871204600F026F82420A86020680168DE
:1018C000490849000160A06A002802D0204600F0C3
:1018D0003FFA204600F0DEFB0128E7D0206841688F
:1018E0000922D20291434160206881682A229143F3
:1018F000816020680168012211430160204600F0E8
:101900008DFA70BDF0B591B0064614216846FEF719
:10191000E4FC282105A8FEF7E0FC354A31680120E7
:10192000344D02270024914243D10590069405A826
:10193000FFF798F9002801D0FEF70CFE2D48403043
:101940000268012189030A430260006808400F9081
:10195000686B38436863686B029438400F90C0200E
:10196000009003946946019704942348FEF762FFB0
:10197000234D22482860AC603220EC6068606C61C6
:10198000AC61EC6180202C6228612846FEF7BAFE2B
:10199000002801D0FEF7DEFD80208551002211468F
:1019A0001B20AE62FFF734F91B20FFF725F911B0B9
:1019B000F0BD144A9142FAD1EA6B012149040A436D
:1019C000EA63EA6B0A400F92696B01436963696BD2
:1019D0000490C907C90F0F910C21009105200294B2
:1019E0000197039469460007FEF724FFDFE7000034
:1019F000003801400010024000040050080002407E
:101A0000A80100200044004070B58C231B58202BF7
:101A100001D0022070BD00290BD0002A09D001247A
:101A200083682403A34206D10369002B03D1CB07AB
:101A300001D0012070BD0023C3660B4B04689C429B
:101A40000ED063681B020BD5EFF31083012585F3DD
:101A5000108825680126B6063543256083F3108873
:101A600000F01EFC70BD0000008000407047704711
:101A7000FFB5064604468036B06883B00D46202880
:101A800002D0022007B0F0BD002D0CD00598002830
:101A900009D00120A1680003814206D120690028F5
:101AA00003D1E80701D00120ECE7002030612120BC
:101AB000B060FEF76DFF0190274640370598B88269
:101AC0000598F8820120A1680003814202D12069B3
:101AD000002802D00295002515E00020029012E0B7
:101AE00000228021204600F031FC002818D1029805
:101AF000002819D02168007888620298401C029062
:101B0000F88A401EF882F88A019B00280698009007
:101B1000E6D100224021204600F018FC00280AD01F
:101B20002020B0600320ADE728882168C005C00DE3
:101B30008862AD1CE4E72020B0600020A2E7704777
:101B4000FEE7000008B50848816B0122114381635C
:101B5000806B01211040009000220920FFF758F807
:101B60000920FFF749F808BD0010024008B50848F1
:101B7000416B012211434163416B11400091426B63
:101B800002210A434263406B0840009008BD0000F8
:101B90000010024010B5134811490160124941601C
:101BA000002181600161416181610122C161C260E6
:101BB0000162FEF73DFF002801D0FEF7CBFC0021BB
:101BC0000848FEF7EBFE002801D0FEF7C3FC002119
:101BD0000448FEF708FF002801D0FEF7BBFC10BD4B
:101BE000005800402C000020B57DB11010B51848F9
:101BF000164901604B21C901416000218160C1602B
:101C000001618161C16101620C22416242618162B4
:101C1000FFF742FE002801D0FEF79CFC00210C4893
:101C2000FFF74EFC002801D0FEF794FC0021084885
:101C3000FFF722FC002801D0FEF78CFC0448FFF7D8
:101C4000FBFB002801D0FEF785FC10BD00380140E9
:101C50008000002010B50D480B4901604B21C901DF
:101C6000416000218160C16001618161C1610162E7
:101C70000C22416242618162FFF70EFE002801D012
:101C8000FEF768FC10BD0000004400401401002075
:101C9000FEE77047704710B5FEF758FF10BD30B52E
:101CA00093B038216846FEF718FB002501200E95F9
:101CB0000F95109540021195FEF7AEFF0224E0014A
:101CC000039000944020059008200A9080030B9018
:101CD000079400020C900894000104950D9009955A
:101CE0006846FFF79DF9002801D072B6FEE707208D
:101CF0000EA931C102210EA81195FFF78BF800281B
:101D000001D072B6FEE713B030BD7047F8B5044697
:101D1000416E4034002915D000688168806809014F
:101D20004D0F0A4E400F3746315C083F385CC0000B
:101D3000FEF7D5FA6085785D715DC000FEF7CFFAD9
:101D40002085F8BD01206085FAE70000A82500087D
:101D500010B5018D090707D501684A680123DB0327
:101D60009A43836B1A434A60018DC90707D0016803
:101D70004A6801235B049A43C36A1A434A60018D8F
:101D8000890707D501684A6801231B049A43036B3E
:101D90001A434A60018D490707D501684A68012343
:101DA0009B049A43436B1A434A60018DC90607D5C9
:101DB0000268916801231B039943C36B1943916027
:101DC000018D890607D501688A6801235B039A4360
:101DD000036C1A438A60018D490612D503685A685C
:101DE00001210905446C8A4322435A60426C8A42AD
:101DF00007D10268516803235B059943836C19433B
:101E00005160018D090607D501684A680123DB048A
:101E1000C06C9A4302434A6010BD0000FEB50546FF
:101E20000026803504462E61FEF7B2FD0190206841
:101E3000006820270007002817DA254800900022B4
:101E400039042046019B00F081FA00280DD0EFF301
:101E50001080012181F3108821680A6880239A4349
:101E60000A6080F31088AF6028E0206800684007AF
:101E700027D5174800900121002289052046019BA3
:101E800000F064FA00281CD0EFF31080012181F3E8
:101E9000108821680A68FF2321339A430A6080F37F
:101EA0001088EFF31080012181F3108821688A687F
:101EB000520852008A6080F31088EF602E71032070
:101EC000FEBDAF60EF60E66626672E710020FEBDA6
:101ED000FFFFFF0110B5806A002201464031CA832E
:101EE000CA82FFF75FFB10BDF8B5846A20468030D8
:101EF00081680546C66820688068002700060028BB
:101F000006DA212904D156200753204600F0A4F810
:101F100020688068400606D5222E04D15E20075333
:101F2000204600F067F82869102108432861204600
:101F3000FFF738FBF8BD70B501460968806A09688B
:101F400000228906002938DB5E210A52EFF3108156
:101F5000012383F3108803681C68FF250135AC4317
:101F60001C6081F31088EFF31081012383F3108844
:101F700003689C68640864009C6081F31088EFF338
:101F80001081012383F3108803689C684025AC43CB
:101F90009C6081F3108820238C210B50C16E012995
:101FA0000BD1EFF31081012383F3108803681C68C1
:101FB0001025AC431C6081F310880267C16E0129B3
:101FC00002D0FFF753FD70BD5C21095AFFF752FAAA
:101FD00070BD10B5806A01210167C16E012902D070
:101FE000FFF745FD10BD5C21095A4908FFF742FA89
:101FF00010BD000010B5EFF31081012282F31088AC
:1020000002681368FF242134A343136081F310880E
:10201000EFF31081012282F31088026893680D4C5F
:102020002340936081F31088C16E01290BD1EFF337
:102030001081012282F31088026813681024A343E0
:10204000136081F3108820228C210A500021C16680
:10205000416710BDFEFFFFEF10B5EFF310810122C5
:1020600082F3108802681368C024A343136081F3CD
:102070001088EFF31081012282F3108802689368C0
:102080000124E405A343936081F31088202180306C
:10209000816010BDF8B50446016880682369E56970
:1020A0001843636900262B431843734A0B68734D2A
:1020B0002B4003430B602068416803231B039943B3
:1020C000E368194341602168A069914201D0236A05
:1020D00018438B686A4D2B4003438B602068C16AAC
:1020E000636A090909011943C162664923686648A0
:1020F0008B420AD140698007800F09D001282CD07B
:10210000022828D0032816D113E060498B4201D160
:10211000002111E093420ED1416903208002014069
:102120000AD001208002091A17D0091A13D081425F
:1021300001D1082100E010210120554D554FC00369
:1021400093423DD100290AD0022911D0042909D097
:10215000082934D10BE00221EEE70421ECE7FEF779
:1021600005FF01E0FEF716FF050001D179E0054605
:10217000606A4000395A28460091FEF7B0F8676857
:1021800079007918814267D83903814264D30023EA
:1021900028461946009AFEF701F8020E09020302CA
:1021A000780811431818002251413A460023FDF7E0
:1021B000F5FF03210902384A411A91424FD94BE0F9
:1021C000E269824227D1002906D0022907D00429DA
:1021D00007D0082940D108E0FEF7C8FE03E02846F2
:1021E00003E0FEF7D7FE00283BD0616A4900795A28
:1021F000FEF775F8616840004A088018FEF76FF82E
:102200000146264A1039914226D8511C0140000748
:10221000400F084323E0002906D0022907D00429F3
:1022200007D0082918D108E0FEF7A0FE03E02846F1
:1022300003E0FEF7AFFE002813D0616A4900795A27
:10224000FEF74DF861684A088018FEF748F8014625
:10225000124A1039914201D9012602E080B2216868
:10226000C86020460121403041850185002060671B
:10227000A0673046F8BD000000800040F369FFCF42
:10228000FFF4FF11003801404010024000440040BC
:102290000024F40088250008FFFC0F00EFFF000079
:1022A00070B5044681654030828300202546803524
:1022B00028612221E9602968002919D0204BCB62CE
:1022C0002B68204919632B681F49596329681346F5
:1022D0008863A66D2168324624312868FEF764FAC7
:1022E000002805D0102028612020E860012070BD62
:1022F000206900280CD0EFF31080012181F31088B1
:1023000021680A68FF2301331A430A6080F31088AA
:10231000EFF31080012181F31088226893680B434A
:10232000936080F31088EFF3108081F310882168A8
:102330008A6840231A438A6080F31088002070BDA9
:10234000371F0008D31F0008E91E0008FFB581B041
:1023500005460E46044680350A9F32E0781C30D090
:10236000FEF716FB0499401AB84218D8002F16D071
:1023700020680168490724D5802E22D0402E20D025
:10238000C169C94309070CD4082606622046FFF735
:1023900031FE2E6100202871012005B0F0BD032020
:1023A000FBE7C069C04300050BD401202168C002CF
:1023B00008622046FFF71EFE2020286100202871B9
:1023C000EDE72068C1693046884305D000210398B5
:1023D0008142C3D00020E0E70121F8E710B5194899
:1023E000C1690907490F0AD00E2101621648FFF79B
:1023F0008CF8122215491448FFF706FB10BDC1697D
:10240000C90617D5102101620F48FFF77EF80E4864
:1024100080300068006840681221081A80B21228D3
:1024200003D10A480078AA2808D012220749064892
:10243000FFF7EAFA0448FFF7B7F810BD0449012096
:102440000870F7E7003801408000002018000020E5
:10245000000000208307FF22DB0E9A408907090E47
:102460009940002808DB830809489B001B1818685E
:1024700090430843186070470007000F083883082E
:1024800004489B001B18D86990430843D8617047E3
:1024900000E400E000ED00E0FEF760FBFFF7FFFB6B
:1024A000FFF764FBFFF74EFBFFF7D4FBFFF772FB70
:1024B000FFF79CFB2D490F2008602D482021C160AB
:1024C000002505712B480121417105712A491E2003
:1024D000086227488038FFF718F825481222274954
:1024E0008038FFF791FA002801D072B6FEE7204845
:1024F000803800680168102211430160FEF748FA35
:102500001F4C1E4F6060FEF743FA064620780128F4
:1025100020D06068301A3228F5D912211748FDF70B
:10252000DAFEAA2038705520787414497D71B420E1
:1025300088710A2312221348FFF79AFA0C48666042
:102540008038FEF7E2FF0A4812220C498038FFF774
:102550005BFAD8E709497D71B42088710A231222F9
:102560000848FFF785FA25706660ECE7000802402E
:1025700000010020C80100200038014018000020A0
:1025800000000020140100200100020004000600E9
:1025900008000A000C00100020004000800000012C
:1025A0000101010307010000080402040801010100
:1025B000000000000000000000000000000000001B
:1025C000000000000000000000000000000000000B
:1025D00001000000020000000300000004000000F1
:1025E00006000000070000000800000009000000CD
:1025F00000000000000000000000000000000000DB
:1026000001000000020000000300000004000000C0
:102610003026000800000020180000000401000817
:10262000482600081800002050080000200100087B
:102630000000000000000000010000000400000095
:08264000000000000024F4007A
:04000005080000C12E
:00000001FF
